:020000040800F2
:1040000000500020899C0008879C0008859C0008BF
:10401000859C0008859C0008859C00080000000025
:10402000000000000000000000000000879C000865
:10403000879C000800000000879C0008879C0008FF
:10404000859C0008859C0008859C0008859C0008CC
:10405000859C0008859C0008859C0008859C0008BC
:10406000859C0008859C0008859C0008859C0008AC
:10407000859C0008859C0008B5760008859C000892
:10408000859C0008859C0008859C0008158D00080B
:10409000E58C0008FD8C0008859C0008859C0008C4
:1040A000859C0008859C0008859C0008859C00086C
:1040B000859C0008A54E0008859C0008859C00088A
:1040C000859C0008859C0008859C0008859C00084C
:1040D000859C0008859C0008859C0008859C00083C
:1040E000859C0008859C0008859C0008859C00082C
:1040F000859C0008859C0008859C0008859C00081C
:10410000859C0008859C0008859C0008859C00080B
:10411000859C0008859C0008859C0008859C0008FB
:1041200015770008859C0008859C0008859C000880
:10413000859C0008859C0008859C00085B8D000814
:104140002B8D0008438D0008859C0008859C000885
:1041500080B582B000AF78607B681A687B689B8806
:104160001946104605F09FF90346002B14BF0123A2
:104170000023DBB218460837BD4680BD80B582B04B
:1041800000AF78607B681A687B689B881946104688
:1041900005F084F900BF0837BD4680BD80B582B008
:1041A00000AF78607B681A687B689B881946104668
:1041B00005F076F900BF0837BD4680BD80B582B0F6
:1041C00000AF78607B681A687B689B881946104648
:1041D00005F06CF900BF0837BD4680BD80B400AF64
:1041E00000BFBD4680BC704780B582B000AF0023E1
:1041F0003B701A48FFF7ACFF03461A463B7813445E
:10420000DBB23B701648FFF7A3FF0346002B03D039
:104210003B780233DBB23B701248FFF799FF03464D
:10422000002B03D03B780433DBB23B703B4618468F
:1042300002F086F80C4B1B78012B05D1FFF7CEFF5F
:10424000094B00221A7005E0074B1B780133DAB2E4
:10425000054B1A7000BF0837BD4680BD8025002081
:104260008825002090250020CC24002080B582B035
:1042700000AF0F4B1B68184601F0A2FE03465B011E
:104280007B607B680B4A82FB03129210DB17D31A08
:1042900019467E2001F0DAFE04F05EF90346194665
:1042A0003B2001F0BFFE00BF0837BD4680BD00BF08
:1042B0007C1000206766666680B594B000AF184B2E
:1042C0001B780133DAB2164B1A70164BDA78144B9E
:1042D0001B789A4294BF01230023DAB2124B1B7859
:1042E000002B0CBF01230023DBB21340DBB2002BF9
:1042F0001ED00B4B00221A700B4B1B780133DAB225
:10430000094B1A70094B1B780133DAB2074B1A704C
:10431000064B1B78052B32D9044B01221A702EE074
:10432000CE24002088100020CF2400208000002010
:10433000B84B5A7AB84B1B789A4294BF012300239A
:10434000DAB2B64B1B78012B0CBF01230023DBB282
:104350001340DBB2002B12D0AF4B00221A70AF4BD0
:1043600000221A70AE4B5B780133DAB2AC4B5A7054
:10437000AB4B5B78052B02D9A94B01225A70A74B96
:104380001B781946A34A0B465B000B445B001344A1
:1043900003331B781B01DAB29F4B1B781344DBB24B
:1043A00087F840309D4B1B7819469A4A0B465B00B4
:1043B0000B445B0013441B781B01DAB2974B1B784C
:1043C0001344DBB287F84130944B1B781846924B6C
:1043D0001B781A46934913461B019B1A9B004FF406
:1043E000617200FB02F213440B4404331B88A7F8EC
:1043F00042308A4B1B781846874B1B781A468949EE
:1044000013461B019B1A9B004FF4617200FB02F2E2
:1044100013440B4430331B88A7F844307F4B1B7880
:1044200018467D4B1B781A467E4913461B019B1A82
:104430009B004FF4617200FB02F213440B440633FD
:104440001B883B87754B1B781846734B1B781A46A5
:10445000744913461B019B1A9B004FF4617200FBC9
:1044600002F213440B4408331B887B876B4B1B7889
:104470001846694B1B781A466A4913461B019B1A5A
:104480009B004FF4617200FB02F213440B440A33A9
:104490001B88BB87614B1B7818465F4B1B781A46FD
:1044A000604913461B019B1A9B004FF4617200FB8D
:1044B00002F213440B440C331B88FB87574B1B78C9
:1044C0001846554B1B781A46564913461B019B1A32
:1044D0009B004FF4617200FB02F213440B440E3355
:1044E0001B883B864D4B1B7818464B4B1B781A4656
:1044F0004C4913461B019B1A9B004FF4617200FB51
:1045000002F213440B4410331B887B86434B1B7809
:104510001846414B1B781A46424913461B019B1A09
:104520009B004FF4617200FB02F213440B441B68C2
:104530007B63012387F82830002387F82930374B25
:104540001B781846344B1B781A46364913461B0114
:104550009B1A9B004FF4617200FB02F213440B4460
:1045600022331B887B852D4B1B7818462A4B1B78E2
:104570001A462C4913461B019B1A9B004FF461728B
:1045800000FB02F213440B4424331B88BB85234BEE
:104590001B781846204B1B781A46224913461B01EC
:1045A0009B1A9B004FF4617200FB02F213440B4410
:1045B00026331B88FB85022387F82030002387F8E9
:1045C0002130164B1B781846134B1B781A46154999
:1045D00013461B019B1A9B004FF4617200FB02F211
:1045E00013440B4428331B887B840C4B1B781846E0
:1045F000094B1B781A460B4913461B019B1A9B005B
:104600004FF4617200FB02F213440B442A331B88FF
:104610000AE000BF88100020CE240020CF24002014
:104620008000002068130020BB84A24B1B78184632
:10463000A14B1B781A46A14913461B019B1A9B00EC
:104640004FF4617200FB02F213440B442C331B88BD
:10465000FB8403233B7600237B76964B1B7818461E
:10466000954B1B781A46954913461B019B1A9B00D4
:104670004FF4617200FB02F213440B442E331B888B
:104680007B8304233B748B4B1B7818468A4B1B7827
:104690001A468B491346DB009B1A9B004FF4D272DB
:1046A00000FB02F213440B4408331B88DBB27B741B
:1046B000804B1B781846804B1B781A467F4913465F
:1046C0001B019B1A9B004FF4617200FB02F2134422
:1046D0000B4436331B887B82764B1B781846764B0F
:1046E0001B781A46754913461B019B1A9B004FF411
:1046F000617200FB02F213440B4438331B687B6188
:1047000005233B727B8D184602F08EFF0346DBB219
:104710007B72BB8D184602F087FF0346DBB2BB728B
:10472000FB8D184602F080FF0346DBB2FB727B8CE8
:10473000184602F079FF0346DBB23B73BB8C184688
:1047400002F072FF0346DBB27B73FB8C184602F06B
:104750006BFF0346DBB2BB737B8B184602F064FF32
:104760000346DBB2FB73534B1B781946544A4FF494
:10477000D27301FB03F3134402331B88DBB23B719A
:104780004C4B1B7819464E4A4FF4D27301FB03F38E
:1047900013441B88DBB27B71464B1B781946484A91
:1047A0004FF4D27301FB03F313440C331B881B0A31
:1047B0009BB2DBB2BB713F4B1B781946404A4FF4AA
:1047C000D27301FB03F313440C331B881B0A9BB207
:1047D000DBB2FB7107F14003184601F005FE354BD3
:1047E0001B781946374A0B465B000B445B001344A9
:1047F0001B78032B49D107F13803184601F03AFE24
:1048000007F13003184601F085FE2A4B1B781A4643
:104810002D4B9B5C012B04D107F12803184601F0B6
:10482000C7FE244B1B781A46274B9B5C022B04D1F6
:1048300007F12003184601F0BBFE1E4B1B781A46F9
:10484000214B9B5C032B04D107F11803184601F0A0
:10485000AFFE184B1B781A461B4B9B5C042B04D1F4
:1048600007F11003184601F0A3FE124B1B781A46FD
:10487000154B9B5C052B04D107F10803184601F08A
:1048800097FE3B46184601F0B9FE104B1B78012BF2
:1048900005D1FFF7EBFC0D4B00221A7005E00B4B26
:1048A0001B780133DAB2094B1A7000BF5037BD468E
:1048B00080BD00BFCF240020CE240020681300203C
:1048C000701A00208810002080000020CD240020D5
:1048D00080B483B000AF0346FB7100BF0C37BD4608
:1048E00080BC7047B0B58CB000AFF860B9601346BB
:1048F000FB71002387F82830BB687B62002387F8B0
:10490000233000233B840023FB770023BB77002365
:104910007B77002387F82F30002387F82E30FB6841
:10492000B3F5B36F11D0FB68B3F5B36F00F2D48168
:10493000FB6840F29652934200F0CA81FB6840F255
:104940009752934200F0C081C6E17B6A1B7887F8DA
:10495000283007F114030822796A184601F0E4FBB5
:1049600097F82830013B202B00F2B88101A252F8C1
:1049700023F000BFF9490008334A0008DD4C000865
:10498000DD4C0008DD4C0008DD4C0008DD4C000863
:10499000DD4C0008DD4C0008DD4C0008DD4C000853
:1049A000DD4C0008DD4C0008DD4C0008DD4C000843
:1049B0005D4A0008DD4C0008DD4C0008DD4C0008B5
:1049C000DD4C0008DD4C0008DD4C0008DD4C000823
:1049D000DD4C0008DD4C0008DD4C0008DD4C000813
:1049E000DD4C0008DD4C0008DD4C0008DD4C000803
:1049F000A74A00087B4B00087B7D012B0AD1BB7DB9
:104A0000012B03D1B84B01221A7055E1B64B072296
:104A10001A7051E17B7D022B40F04E81BB7D012B52
:104A200003D1B14B01229A7146E1AF4B07229A7133
:104A300042E17B7D012B06D1BB7D03F00F03DAB28F
:104A4000A94BDA703AE17B7D022B40F03781BB7DC8
:104A500003F00F03DAB2A44B5A722FE17B7D03F00F
:104A60000103002B03D0A148FFF788FB02E09F4819
:104A7000FFF794FB7B7D03F00203002B03D09C48DF
:104A8000FFF77CFB02E09A48FFF788FB7B7D03F091
:104A90000403002B03D09748FFF770FB13E1954800
:104AA000FFF77CFB0FE17B7D013B87F82330BB7D6B
:104AB0009BB203F00F033B84FB7D03F00F03FB77F6
:104AC000FB7F013B87F82F30FB7F87F82E3097F86C
:104AD0002330002B04D097F82330012B40F0F080D6
:104AE000FB7D002B05D1002387F82F300F2387F89B
:104AF0002E300023BB85BB7D012B03D149F28033CF
:104B0000BB8506E0BB7D002B40F0EA804FF41343E9
:104B1000BB8597F82F3087F82B3097F82B2097F824
:104B20002E309A421ED297F8232097F82B10724805
:104B300013461B019B1A0B44032200F8232097F80D
:104B4000232097F82B106C4813461B019B1A0B442B
:104B50009B000344BA8D5A8097F82B30013387F8B5
:104B60002B30DAE797F823205F4913465B001344A4
:104B70005B000B4408221A70A2E07B7D013B87F8A2
:104B80002330BB7D3B84FB7D03F00F03FB77FB7F72
:104B9000013B87F82F30FB7F87F82E3097F82330C2
:104BA000002B04D097F82330012B40F08B8000239A
:104BB000BB770E237B77FB7D002B05D1002387F885
:104BC0002F300F2387F82E3097F82F3087F82A30B0
:104BD00097F82A2097F82E309A4262D2BB7F87F846
:104BE000293097F829207B7F9A4254D297F82300E6
:104BF00097F82A2097F8291097F829300C33DDB25E
:104C00003E4C1346DB009B1A5B00D22200FB02F2F3
:104C100013440B442A4604F823203B8C5AB297F8DD
:104C20002930012101FA03F35BB213405BB23B77F9
:104C30003B7F002B15D097F8230097F82A2097F890
:104C400029102E4C1346DB009B1A5B00D22200FB7E
:104C500002F213440B449B00234440F202225A8088
:104C600013E097F8230097F82A2097F82910234C8F
:104C70001346DB009B1A5B00D22200FB02F21344B6
:104C80000B449B00234402225A8097F829300133B9
:104C900087F82930A5E797F82A30013387F82A30BA
:104CA00096E797F82320104913465B0013445B00F6
:104CB0000B4409221A7005E000BF0FE000BF0DE0B1
:104CC00000BF0BE000BF09E0642387F8283008E04C
:104CD0006E2387F8283004E000BF02E000BF00E048
:104CE00000BF3037BD46B0BD8810002058250020D9
:104CF0006025002068250020B81D0020301E0020FF
:104D000080B500AF4B4B00221A704A4B1B781946F6
:104D1000382001F087F902224749484801F06EFD2A
:104D200003224549464801F069FD002242494548B1
:104D300001F064FD01224049434801F05FFD042376
:104D400004224249424801F027FA04234FF400426A
:104D50004049414801F020FA04234FF480423D4984
:104D60003E4801F019FA04234FF4005239493C48F7
:104D700001F012FA04234FF480623649394801F0F9
:104D80000BFA04234FF400623249374801F004FA69
:104D9000022310222F49354801F0FEF90223202278
:104DA0002C49334801F0F8F90223402229493148BF
:104DB00001F0F2F9022310222F49304801F0ECF9FA
:104DC00004234FF480722E492E4801F0E5F90423A4
:104DD0004FF4805228492C4801F0DEF902234FF4A9
:104DE00000721549294801F0D7F902234FF4807267
:104DF0001149274801F0D0F9042380220E492548A3
:104E000001F0CAF9042340220B49234801F0C4F9F8
:104E100002234FF480720F49204801F0BDF90223AC
:104E2000202205491E4801F0B7F901F079FC00BFC6
:104E300080BD00BF7810002000100140F82700203E
:104E4000FC27002000280020042800200018014032
:104E50005025002000140140582500206025002026
:104E6000682500207025002078250020802500205E
:104E70008825002090250020000C01409825002066
:104E800000080140A0250020A8250020B025002012
:104E9000B8250020C0250020C8250020D0250020EE
:104EA000D825002080B500AF034B1B68184601F0E1
:104EB0002FF800BF80BD00BF7C100020B0B5ADF55D
:104EC0002E6D02AF00F0AAFD00F079FFFFF718FF8A
:104ED0009A494FF0007004F0D7FA00F0F7FD00F0A7
:104EE00029FE00F0AFFE00F035FF03F0E7FA7F2067
:104EF000FFF7EEFC41F2883004F0EAFA07F5B06300
:104F000001228F49184603F089FB07F13003012283
:104F10008C49184603F082FB8B4A07F5B063136097
:104F20008A4A07F13003136007F5B06388491846D1
:104F300003F028FB07F130038549184603F022FBF4
:104F400007F5B0634FF4B361184603F029FB07F58A
:104F5000B06340F29651184603F022FB07F130038C
:104F60004FF4B361184603F01BFB07F1300340F226
:104F70009751184603F014FB01F075F9754B764A0A
:104F80001A60744B754A5A60724B20225A72714BE8
:104F900020221A7207F108037149184600F022FF17
:104FA000704A07F10803136007F108030A226E49EB
:104FB000184600F04FFF07F1080332226B491846EC
:104FC00000F048FF07F6D823A3F6D42340F20112DD
:104FD0001A8007F6D823A3F6D82340F201121A80CC
:104FE000012387F8D33A002387F8D73A4FF47A732E
:104FF000A7F8D03A5E4B02225A705D4B01229A709C
:105000005B4B0022DA705A4B01221A71584B07226F
:105010001A70574B01225A71554B0222DA71544BC8
:1050200001221A72524B00225A72514B01229A727B
:105030004F4B07229A714E4B0222DA72002003F086
:1050400024FA012003F021FA0121002002F002FCE1
:105050000121012002F0FEFB002387F8D63A97F8E1
:10506000D63A012B21D897F8D62A13465B00134471
:105070005B003F4A13445A1C97F8D63A0133DBB21F
:105080001946104602F0D4FD97F8D63A4FF4B472A0
:1050900002FB03F3374A1344184602F0E1FD97F888
:1050A000D63A013387F8D63AD9E7002387F8D53ABC
:1050B00097F8D53A012B00F2558497F8D53A07F6C0
:1050C000D822A2F6D422D25C0132D1B207F6D8227D
:1050D000A2F6D422D15497F8D53A07F6D822A2F6F0
:1050E000D422D25C97F8D53A02F00F02D1B207F67B
:1050F000D822A2F6D422D15497F8D52A1C491346B7
:105100005B0013445B000B441B78013B082B00F24F
:10511000228401A252F823F079510008F9530008C3
:10512000BD550008575900082D5900085759000867
:1051300057590008415700081D580008C00040108A
:1051400000640040006800408010002084100020AF
:10515000E5480008C0240020000000204000002096
:10516000000400407C100020E9410008B94200081A
:10517000881000209810002097F8D53A184602F0C1
:10518000E9FD97F8D52AD24913465B0013445B002A
:105190000B4401331B78022B11D197F8D53A1846EE
:1051A00003F012F997F8D53A184602F0E3FD97F8A4
:1051B000D53A1A4649F21101032003F081F8012380
:1051C00087F8D73A97F8D52AC14913465B001344AC
:1051D0005B000B4403331B7897F8D72A9A427BD89D
:1051E00097F8D51A97F8D73A5A1EBA4813465B0073
:1051F0001344DB004FF4B47201FB02F21344034486
:10520000103300221A7097F8D51A97F8D73A5A1E19
:10521000B04813465B001344DB004FF4B47201FB4B
:1052200002F21344034403F108014FF000024FF06F
:105230000003C1E9002397F8D51A97F8D73A5A1E08
:10524000A44813465B001344DB004FF4B47201FB27
:1052500002F213440344113300221A7097F8D51A4E
:1052600097F8D73A5A1E9B4813465B001344DB005D
:105270004FF4B47201FB02F21344034412330022D0
:105280001A7097F8D51A97F8D73A5A1E91481346CC
:105290005B001344DB004FF4B47201FB02F21344D1
:1052A0000344133300221A7097F8D51A97F8D73AA7
:1052B0005A1E884813465B001344DB004FF4B47257
:1052C00001FB02F21344034400221A7097F8D73A04
:1052D000013387F8D73A75E797F8D52A13465B006C
:1052E00013445B007A4A1344033397F8D52A1146D6
:1052F000184601F019FB0346002B00F02983012317
:1053000087F8D73A97F8D52A714913465B001344BA
:105310005B000B4403331B7897F8D72A9A4260D876
:1053200097F8D51A97F8D72A6A4813465B001344B2
:10533000DB004FF4B47201FB02F213440344012278
:105340001A7097F8D53A184602F004FD97F8D51A66
:1053500097F8D73A5A1E13465B001344DB004FF40C
:10536000B47201FB02F213445A4A991897F8D52AED
:1053700097F8D73A184601F055FF97F8D51A97F8DD
:10538000D73A5A1E13465B001344DB004FF4B47245
:1053900001FB02F213444F4A991897F8D52A97F85F
:1053A000D73A184601F080FF97F8D51A97F8D73A00
:1053B0005A1E13465B001344DB004FF4B47201FB2A
:1053C00002F21344434A991897F8D52A97F8D73A26
:1053D000184601F0BBFC97F8D73A013387F8D73A63
:1053E00090E797F8D52A3A4913465B0013445B00CF
:1053F0000B4402221A70ABE297F8D53A184602F035
:10540000A9FC3548FEF7CAFE012387F8D73A97F87A
:10541000D52A2F4913465B0013445B000B4403332A
:105420001B7897F8D72A9A4200F2A48097F8D52AD9
:10543000274913465B0013445B000B4401331B7880
:10544000022B40F0918097F8D51A97F8D73A5A1E58
:10545000204813465B001344DB004FF4B47201FB99
:1054600002F21344034410331B78012B27D097F822
:10547000D51A97F8D73A5A1E164813465B001344BC
:10548000DB004FF4B47201FB02F213440344103307
:105490001B78032B13D097F8D51A97F8D73A5A1ED2
:1054A0000C4813465B001344DB004FF4B47201FB5D
:1054B00002F21344034410331B78052B10D197F8E4
:1054C000D52A97F8D73A0549184601F096FA4BE0E5
:1054D0008810002098100020502500205CA70008AC
:1054E00097F8D51A97F8D73A5A1EC54813465B0065
:1054F0001344DB004FF4B47201FB02F21344034483
:1055000010331B78022B27D097F8D51A97F8D73A83
:105510005A1EBB4813465B001344DB004FF4B472C1
:1055200001FB02F21344034410331B78042B13D005
:1055300097F8D51A97F8D73A5A1EB14813465B0028
:105540001344DB004FF4B47201FB02F21344034432
:1055500010331B78062B07D197F8D52A97F8D73A3E
:10556000A849184601F049FA97F8D73A013387F865
:10557000D73A4CE797F8D53A184602F0EBFB97F884
:10558000D53A1946002002F0C7FB0346002B0AD08B
:1055900097F8D52A9C4913465B0013445B000B44E3
:1055A00005221A70D7E197F8D52A974913465B0070
:1055B00013445B000B4403221A70CCE19348FEF7BE
:1055C000DDFD97F8D53A184602F0C4FB012387F8B1
:1055D000D73A97F8D52A8C4913465B0013445B00F1
:1055E0000B4403331B7897F8D72A9A4213D897F8BD
:1055F000D53A07F6D822A2F6D422D15C97F8D52A5C
:1056000097F8D73A184601F037FA97F8D73A0133A6
:1056100087F8D73ADDE740F2451002F0E5F80123BC
:1056200087F8D73A97F8D52A774913465B00134491
:105630005B000B4403331B7897F8D72A9A4200F299
:10564000898197F8D52A97F8D73A1146184601F07C
:105650006BFA0346002B03D0052002F0C5F8F0E7F3
:1056600097F8D53A07F6D822A2F6D422D45C97F858
:10567000D51A97F8D73A5A1E614813465B0013446F
:10568000DB004FF4B47201FB02F213440344133302
:105690001D7897F8D51A97F8D73A5A1E13461B016A
:1056A0009B1A9B004FF4617201FB02F21344584AAB
:1056B0001A4497F8D70A97F8D53A009313462A4622
:1056C000214601F061FA034683F00103DBB2002BAF
:1056D00009D097F8D52A4C4913465B0013445B0068
:1056E0000B4405221A7097F8D51A97F8D73A5A1E24
:1056F0001346DB009B1A9B004FF4D27201FB02F2AF
:105700001344444A991897F8D52A97F8D73A184677
:1057100001F024FF034683F00103DBB2002B09D024
:1057200097F8D52A384913465B0013445B000B44B5
:1057300005221A7097F8D73A013387F8D73A71E7FC
:10574000012387F8D73A97F8D52A2F4913465B00EB
:1057500013445B000B4403331B7897F8D72A9A4213
:1057600042D897F8D52A97F8D73A591E2A481346AF
:105770001B019B1A0B4410F82330002B2ED097F8F6
:10578000D52A97F8D73A591E234813461B019B1A6E
:105790000B4410F8234097F8D52A97F8D73A591EAA
:1057A0001D4813461B019B1A0B449B0003445A8857
:1057B00097F8D70A97F8D53A00930023214602F0CC
:1057C0008FFC97F8D52A97F8D73A591E12481346F6
:1057D0001B019B1A0B44002200F8232097F8D73AAC
:1057E000013387F8D73AAEE797F8D52A064913462A
:1057F0005B0013445B000B4403221A70ABE000BF54
:105800009810002004A800088810002050250020CF
:1058100068130020701A0020B81D0020012387F8AB
:10582000D73A97F8D52A544913465B0013445B00D6
:105830000B4403331B7897F8D72A9A426BD800237E
:1058400087F8D43A97F8D43A052B5ED897F8D50A5A
:1058500097F8D73A5A1E97F8D41A484C1346DB00EB
:105860009B1A5B00D22200FB02F213440B4414F893
:105870002330002B43D097F8D50A97F8D73A5A1E11
:1058800097F8D41A3D4C1346DB009B1A5B00D222DA
:1058900000FB02F213440B4414F8234097F8D50A96
:1058A00097F8D73A5A1E97F8D41A344D1346DB00AE
:1058B0009B1A5B00D22200FB02F213440B449B00B4
:1058C0002B445A8897F8D70A97F8D53A00930023C3
:1058D000214602F005FC97F8D50A97F8D73A5A1EE8
:1058E00097F8D41A254C1346DB009B1A5B00D22292
:1058F00000FB02F213440B44002204F8232097F823
:10590000D43A013387F8D43A9CE797F8D73A013371
:1059100087F8D73A85E797F8D52A174913465B00E9
:1059200013445B000B4403221A7014E01448FEF782
:1059300025FC40F6C41001F070FF97F8D52A0E49F7
:1059400013465B0013445B000B4401221A7002E013
:1059500000BF00E000BF97F8D53A013387F8D53A89
:10596000FFF7A6BB03F0DEFD0548FEF727FC32205B
:1059700001F053FFFFF799BB88100020301E002074
:105980005025002080B500AF03F03CFD022003F05D
:1059900041FD042003F002FE042003F0F7FD002087
:1059A00003F05CFE032003F0F9FD032003F0EEFD9D
:1059B000002003F0EBFE032003F0CAFE042003F0F6
:1059C000DBFE002003F0CEFE002003F017FE0620D1
:1059D00003F04EFE012003F055FE002003F05CFEB4
:1059E000002003F0DBFD002003F0D0FD022003F0D7
:1059F00035FE054B054A1A60054B064A1A60064BF0
:105A0000024A1A6000BF80BD6C1000200090D003D5
:105A1000701000200048E8017410002080B500AF2D
:105A2000FFF7B0FF40F2023003F0BAFE40F203305D
:105A300003F0B6FE4FF4417003F0B2FE40F20530C1
:105A400003F0AEFE40F2063003F0AAFE40F20B3047
:105A500003F0A6FE40F2813003F0A2FE4FF4207066
:105A600003F09EFE40F2812003F09AFE40F20930DE
:105A700003F096FE40F2862003F092FE4FF4407051
:105A800003F08EFE40F2993003F08AFE40F29A3025
:105A900003F086FE4FF4437003F082FE40F28E3036
:105AA00003F07EFE40F28F3003F07AFE00BF80BD2F
:105AB00080B500AF034803F0C5FF034803F0C2FF01
:105AC00000BF80BD00380040003C004080B582B07F
:105AD00002AFA02302220321134803F0A5FC4023B8
:105AE00001220021104803F09FFC104803F062FFE0
:105AF0000F4B00221A60002301930023009301231F
:105B000000222021094803F0AAFF084803F074FF8F
:105B1000064803F07FFF054803F085FF034803F0C4
:105B200061FF00BFBD4680BD00080140003001405C
:105B30001C30014080B500AF4FF40053012200211A
:105B4000104803F071FC4FF40043012200210D487E
:105B500003F06AFC0C4803F02DFF0C4B00221A6086
:105B6000094803F065FF084803F04FFF012106488C
:105B700003F06DFF044803F04DFF034803F032FFCC
:105B800000BF80BD000C0140003800401C380040C0
:105B900080B584B000AF786039600421254803F0F7
:105BA0009DFB254B1B6803F04103002B14BF012311
:105BB0000023DBB2002B04D0204B1B68DBB2FB734D
:105BC000EFE71E4A04211B4803F003FC7B681A46DA
:105BD0000421184803F006FC3B689BB21A460421D6
:105BE000144803F008FC0421124803F0C5FB04210B
:105BF000104803F0ABFB002204210E4803F099FB90
:105C0000002204210B4803F087FB4FF4405204218B
:105C1000084803F074FB0421064803F0B6FB042196
:105C2000044803F0C4FB064803F007FF00BF103729
:105C3000BD4680BD00000240083800400C380040DE
:105C40000038004080B500AF4FF48063012200218E
:105C5000104803F0E9FB4FF48053012200210D4866
:105C600003F0E2FB0C4803F0A5FE0C4B00221A6087
:105C7000094803F0DDFE084803F0C7FE012106488D
:105C800003F0E5FE044803F0C5FE034803F0AAFE56
:105C900000BF80BD00100140003C00401C3C0040A3
:105CA00080B584B000AF786039600121254803F0E9
:105CB00015FB254B1B6803F04103002B14BF012388
:105CC0000023DBB2002B04D0204B1B68DBB2FB733C
:105CD000EFE71E4A01211B4803F07BFB7B681A4655
:105CE0000121184803F07EFB3B689BB21A46012154
:105CF000144803F080FB0121124803F03DFB012111
:105D0000104803F023FB002201210E4803F011FB91
:105D1000002201210B4803F0FFFA4FF44052012109
:105D2000084803F0ECFA0121064803F02EFB01219C
:105D3000044803F03CFB064803F07FFE00BF103729
:105D4000BD4680BD00040240083C00400C3C0040C1
:105D5000003C004080B500AFF021112003F0ECFFC3
:105D6000112003F0DBFFF021102003F0E5FF1020ED
:105D700003F0D4FF00210E2003F0DEFF0E2003F01D
:105D8000CDFF0021382003F0D7FF382003F0C6FFF5
:105D900020210D2003F0D0FF0D2003F0BFFF0021D4
:105DA0001A2003F0C9FF1A2003F0B8FF00211D20BC
:105DB00003F0C2FF1D2003F0B1FF00BF80BD80B51E
:105DC00000AF4FF41C71032003F0DAFD002003F054
:105DD0006BFD002003F09AFD002003F075FD00BF6D
:105DE00080BD000080B584B000AF786039607B680A
:105DF0003A681A62386803F053FE386803F055FEBB
:105E000040F27F21386803F05FFE4FF6FF7138687B
:105E100003F05CFE0023FB60FB68032B0FDC7B6858
:105E2000FA680B4943F822107B68FA6808324FF68B
:105E3000FF7123F81210FB680133FB60ECE77B680D
:105E400000225A627B6818461037BD4680BD00BFED
:105E50001960000880B584B000AFF860B9601346DF
:105E6000FB80FB685B6A032B4BDCFB681B6A1846F4
:105E700003F025FEFB68186AFB685B6A234AD35C63
:105E80000122194603F024FEFB68186AFB685B6A6E
:105E90001E4AD35C0022194603F0E0FEFB685A6AF2
:105EA000FB68B96843F82210FB685A6AFB881946F8
:105EB00089000B4419468800194603460B449B0091
:105EC00099B2FB68083223F81210FB681A6AFB6863
:105ED0005B6A022101FA03F31946104603F0D3FD71
:105EE000FB681B6A0021184603F0CAFEFB681B6AA8
:105EF000184603F0DFFDFB685B6A5A1CFB685A62B8
:105F000000E000BF1037BD4680BD00BF689D00089F
:105F100080B584B000AF78600023FB60FB68032B82
:105F20004ADC7B681A6A0221FB6801FA03F319460E
:105F3000104603F0ACFD0346002B39D07B681B6A8A
:105F4000184603F09BFE03467B817B681A6A022198
:105F5000FB6801FA03F31946104603F09EFDFB6847
:105F60009A007B681B6A134434331B687A68F968AB
:105F7000083132F811201046FA6891007A68126AE6
:105F80000A443432034413607B68FA6853F82230C1
:105F900098477B681B6A184603F070FE03469AB266
:105FA0007B89D31A99B27B68FA680C3223F81210F5
:105FB000FB680133FB60B1E700BF1037BD4680BD11
:105FC00080B487B000AF786000237B6100233B6121
:105FD0003B69032B1ADC7B683A690C3233F81230C8
:105FE0001A4613469B0013445B0019467B683A69C6
:105FF000083233F8123091FBF3F3FB607A69FB68E7
:1060000013447B613B6901333B61E1E77B691846DF
:106010001C37BD4680BC704780B400AF00BFBD4692
:1060200080BC704780B483B000AF03463960FB7119
:10603000FB793A685201044941F8232000BF0C372C
:10604000BD4680BC704700BF680E002080B483B09E
:1060500000AF03463960FB71FB7904493A6841F8A7
:10606000232000BF0C37BD4680BC7047680E00205F
:1060700080B487B000AF78608023FB750D4B3B6127
:106080000023FB60FB687E2B0EDC3B699B697A6812
:106090009A4202D1FB68FB7506E0FB680133FB60A6
:1060A0003B691C333B61EDE7FB7D18461C37BD4661
:1060B00080BC70478400002080B483B000AF0346EA
:1060C0000A46FB711346BB71FB790449BA79CA547D
:1060D00000BF0C37BD4680BC704700BFD0240020F5
:1060E00080B483B000AF786039607B68012B09D140
:1060F0003B684FF6FF72934204D1054B1B68054A7B
:10610000C2F87C3600BF0C37BD4680BC704700BF6C
:10611000681000208400002080B500AF4FF6FF71AA
:106120000120FFF7DDFF80BD80B487B000AFF860CD
:10613000B9607A60FB687B61BB683B6107E03A69E4
:10614000531C3B617B69591C796112781A707B681A
:106150005A1E7A60002BF2D100BF00BF1C37BD462B
:1061600080BC704780B485B000AFF860B9607A60D9
:1061700007E0BA68131DBB60FB68191DF96012685F
:106180001A607B685A1E7A60002BF2D100BF00BFF4
:106190001437BD4680BC704780B586B000AFF8604C
:1061A000B96011461A460B46FB8013467B710023EB
:1061B000FB750223BB750023BB82FB68BA681A60BB
:1061C000FB68FA889A807B79013B032B18D801A2DF
:1061D00052F823F0E5610008EB610008F161000866
:1061E000F76100080123BB820BE00123BB7508E0C7
:1061F0000023BB7505E00323FB750023BB7500E09E
:1062000000BFFB88BA7DF97DB86803F00DF9BB8A41
:10621000012B04D1FB881946B86803F03FF900BF91
:106220001837BD4680BD00BF80B582B000AF786032
:106230007B6800225A707B6800221A70786802F02E
:1062400097FD7B6818460837BD4680BD80B483B093
:1062500000AF78607B6810229A757B6818460C370F
:10626000BD4680BC704780B500AF00F01DF800F05F
:1062700055F800F0A7F800F0EBF800F039F900F05D
:1062800085F900F0A9F900F003F800BF80BD000017
:1062900080B500AF034B10221A72024800F018F8C4
:1062A00000BF80BDEC26002080B500AF002002F0CA
:1062B00009FB0346044A1360012002F003FB034676
:1062C000024A136000BF80BDE4260020E8260020BB
:1062D00080B582B000AF7860044B1B6819467868BF
:1062E00000F006F800BF0837BD4680BDE426002058
:1062F00080B582B000AF786039607B681B88194632
:106300007B6803F108027B685B68DBB2386802F0E7
:106310006FFA00BF0837BD4680BD000080B400AFF3
:10632000064B40F299521A80044B08225A60034BE4
:1063300000221A7400BFBD4680BC704704270020AD
:1063400080B582B000AF78607B681A781B4B1A72F8
:106350007B685A78194B5A727B685B881B0A9BB220
:10636000DAB2164B9A727B685B88DAB2134BDA7238
:106370007B689B881B0A9BB2DAB2104B1A737B684E
:106380009B88DAB20D4B5A737B68DB881B0A9BB281
:10639000DAB20A4B9A737B68DB88DAB2074BDA739E
:1063A0000648FFF795FF064B1B6819460348FFF7A1
:1063B0009FFF00BF0837BD4680BD00BF04270020F7
:1063C000E826002080B400AF064B4FF4C0621A806C
:1063D000044B08225A60034B00221A7400BFBD46CA
:1063E00080BC70471C27002080B582B000AF786069
:1063F0007B681A78154B1A727B685A78134B5A725D
:106400007B685B881B0A9BB2DAB2104B9A727B687E
:106410005B88DAB20D4BDA727B689B881B0A9BB2F1
:10642000DAB20A4B1A737B689B88DAB2074B5A734D
:10643000064B00229A73054B0022DA730348FFF7DC
:1064400047FF00BF0837BD4680BD00BF1C270020A6
:1064500080B400AF064B40F201621A80044B082260
:106460005A60034B00221A7400BFBD4680BC7047BF
:106470003427002080B582B000AF78607B681B882D
:106480001B0A9BB2DAB2194B1A727B681B88DAB20C
:10649000164B5A727B685B881B0A9BB2DAB2134BAD
:1064A0009A727B685B88DAB2104BDA727B689B88E1
:1064B0001B0A9BB2DAB20D4B1A737B689B88DAB267
:1064C0000A4B5A737B68DB881B0A9BB2DAB2074B14
:1064D0009A737B68DB88DAB2044BDA730348FFF700
:1064E000F7FE00BF0837BD4680BD00BF342700203F
:1064F00080B400AF064B40F202621A80044B0822BF
:106500005A60034B00221A7400BFBD4680BC70471E
:106510004C27002080B582B000AF78607B681B8874
:106520001B0A9BB2DAB2184B1A727B681B88DAB26C
:10653000154B5A727B685B881B0A9BB2DAB2124B0E
:106540009A727B685B88DAB20F4BDA727B685B68A1
:10655000DAB20D4B1A737B685B681B12DAB20A4B16
:106560005A737B685B681B14DAB2074B9A737B68BB
:106570005B681B0EDAB2044BDA730348FFF7A8FE20
:1065800000BF0837BD4680BD4C27002080B400AF57
:10659000064B40F203621A80044B08225A60034BF8
:1065A00000221A7400BFBD4680BC704764270020DB
:1065B00080B582B000AF7860082279680448FFF7A0
:1065C000B3FD0448FFF784FE00BF0837BD4680BD19
:1065D0006C2700206427002080B400AF064B40F2F7
:1065E00004621A80044B08225A60034B00221A747A
:1065F00000BFBD4680BC70477C27002080B582B0BC
:1066000000AF7860114B00221A72104B00225A72B0
:106610000E4B00229A720D4B0022DA727B681A79B7
:106620000A4B1A737B685A79084B5A737B689A79BC
:10663000064B9A737B68DA79044BDA730348FFF7E9
:1066400047FE00BF0837BD4680BD00BF7C27002045
:1066500080B582B000AF786039607B68012B1CD1B7
:106660003B684FF6FF72934217D10E48FFF7DCFDEF
:106670000D48FFF7EBFD0D48FFF7E8FD0C48FFF76D
:10668000E5FD0C48FFF7E2FD0B48FFF7DFFD0B4887
:10669000FFF7DCFD0A48FFF7D9FD00BF0837BD460C
:1066A00080BD00BFE0250020EC260020042700204C
:1066B0001C270020342700204C27002064270020BE
:1066C0007C27002080B500AF4FF6FF710120FFF757
:1066D000BFFF80BD80B483B000AF786039603B6895
:1066E0005B00054A1A447B681A607B6818460C37C1
:1066F000BD4680BC704700BF9827002080B483B09F
:1067000000AF78607B681B68044A9B1A5B109BB2E1
:1067100018460C37BD4680BC704700BF9827002044
:1067200080B582B000AF2F4802F0A2FB2D4802F0E6
:10673000A4FB2C4802F0ABFB2A4802F0A3FB01218A
:10674000284802F080FB274802F050FB00237B60C2
:106750007B68254A9342D4BF01230023DBB2002B80
:1067600003D07B6801337B60F2E71E4802F04EFBEA
:106770001C4802F05EFB1D4A04211A4802F08CFB03
:10678000184802F0B8FB1A4A01211A4802F021FE0B
:10679000194B1A460121174802F024FE4FF480726B
:1067A0000121144802F0C5FD4FF480620121114817
:1067B00002F0B2FD302201210E4802F01CFE012140
:1067C0000C4802F0C3FD01210A4802F0C8FD012176
:1067D000084802F0ECFD034802F010FB00BF083748
:1067E000BD4680BD002401407F3801009427002071
:1067F0004C2401400000024098270020B0B584B02E
:1068000000AFF860B9601346FB71FB79012202FA10
:1068100003F39BB200220021B86802F005FEFC7968
:10682000F868FFF76BFF03461D462146B86800F085
:106830000BF803461A46034B5A5500BF1037BD46A6
:10684000B0BD00BF9427002080B483B000AF786053
:1068500039607B68184A93421AD07B68164A934283
:1068600023D87B68154A934204D07B68144A93422C
:1068700006D01AE03B68072B12DC3B68DBB215E060
:106880003B68012B0EDC3B68DBB20833DBB20DE06A
:106890003B68052B08DC3B68DBB20A33DBB205E062
:1068A00000BF02E000BF00E000BF102318460C3715
:1068B000BD4680BC704700BF001001400008014089
:1068C000000C014080B582B000AF786039607B6811
:1068D000012B14D13B684FF6FF7293420FD1002178
:1068E0000948FFF7F7FE01210848FFF7F3FE0221F0
:1068F0000748FFF7EFFE03210648FFF7EBFE00BF56
:106900000837BD4680BD00BFF8270020FC270020C7
:10691000002800200428002080B500AF4FF6FF714A
:106920000120FFF7CFFF80BD80B586B002AF786051
:106930000B46FB707B681B787B730023BB737B7BF0
:10694000002B01D1002354E07B7B0F2B01D90023C6
:106950004FE00123FB73FA7B7B7B9A4240D8FB78A4
:10696000184601F0F7F9FB78184601F003FAFB78B6
:106970000093002301220121002001F031FA034697
:10698000002B28D0FB7B9AB2FB78009300230121D7
:10699000002001F0A5FB0346002B0CBF01230023C0
:1069A000DBB2002B1BD0BB7B0133BB73FA7B7B7B41
:1069B0009A4208D2F87BFB78009300231022012131
:1069C00001F08EFB07E0F87BFB78009300230022A8
:1069D000012101F085FBFB7B0133FB73BBE700BFAB
:1069E0007B68BA7B1A70BB7B002B14BF012300238A
:1069F000DBB218461037BD4680BD80B586B002AF09
:106A000003463960FB711346BB71FB79002B02D042
:106A1000FB790F2B06D9BB791946062001F062F9E4
:106A2000034625E00023FB81FB899B003A68134461
:106A30001B78002B13D0FB899B003A68134419780C
:106A4000FB899B003A6813445A88F879BB79009314
:106A5000002301F045FBFB890133FB81E4E7BB79AF
:106A60001946002001F058F9034683F00103DBB218
:106A700018461037BD4680BD80B586B002AF0346CC
:106A8000FB710B46BB7113467B71FB79002B02D067
:106A9000FB790F2B06D97B791946062001F022F9E4
:106AA00003463DE0BB790F2B06D97B7919460620BA
:106AB00001F018F9034633E007F10E02F8797B790B
:106AC000009313460122062101F08AF9FB8943F461
:106AD00000639BB2FB81FB891BB2C3F30B031AB2A9
:106AE000BB791B031BB213431BB29BB2FB81FA8918
:106AF000F8797B7900930023062101F0F1FA7B7984
:106B00001946002001F008F90346002B01D00023AC
:106B100006E07A79B979FB79184601F0B1F80123DA
:106B200018461037BD4680BD80B586B002AF03461B
:106B30000A46FB711346BB71FB79002B02D0FB792F
:106B40000F2B06D9BB791946062001F0CBF8034676
:106B500016E007F10E02F879BB7900931346012283
:106B6000062101F03DF90346002B08D0FB8903F410
:106B70000063002B14BF01230023DBB200E00023DD
:106B800018461037BD4680BD90B595B002AF3B604A
:106B90000346FB710B46BB7113467B7107F108027C
:106BA000F87997F85830009313460322302101F00A
:106BB00017F90346002B1FD03B891A01624B134083
:106BC0007A8902F00F0213433B643B6C03F4802389
:106BD000002B08D03B6C6FEA43336FEA53331A46FD
:106BE0003B681A6002E03A6C3B681A60BB89C3F3E9
:106BF0000E039AB23B689A807B79C3F14103D9B204
:106C000007F108047A79F87997F858300093234609
:106C100001F0E6F80346002B21D07B7987F8473056
:106C200097F84730002B1AD097F84730013B87F888
:106C300047307B795A1E97F84730D31A5B0007F12B
:106C40004802134433F8402C97F84730C2F30E0241
:106C500091B23A685B0013440A46DA80E0E707F134
:106C60000802F87997F8583000931346072241211B
:106C700001F0B6F80346002B21D0072387F84730F0
:106C800097F84730002B1AD097F84730013B87F828
:106C9000473097F84730C3F106035B0007F148021D
:106CA000134433F8402C97F84730C2F30E0291B2E8
:106CB0003A6810335B0013440A465A80E0E707F154
:106CC0000802F87997F858300093134603224821B8
:106CD00001F086F80346002B11D03B89C3F30E0365
:106CE0009AB23B681A867B89C3F30E039AB23B685B
:106CF0005A86BB89C3F30E039AB23B689A8607F1A2
:106D00000802F87997F858300093134603222D2192
:106D100001F066F80346002B08D03A893B68DA8612
:106D20007B891B04BA891A433B689A6397F85830E9
:106D30001946002000F0F0FF034683F00103DBB2A8
:106D400018464C37BD4690BDF0FF07002DE9B04F07
:106D5000BCB002AF0346C7F8D81087F8DF3013463F
:106D600087F8DE30D7F8D8104FF000024FF000035C
:106D7000C1E9022397F8DF30002B03D097F8DF300A
:106D80000F2B07D997F8DE301946062000F0AAFF2E
:106D9000034641E2D7F8D8301B7C002B07D197F887
:106DA000DE301946062000F09DFF034634E2D7F896
:106DB000D8301B7C013B052B00F2268201A252F841
:106DC00023F000BFDD6D000811700008DD6D0008C4
:106DD000117000080D6F00081F710008172387F855
:106DE000E73097F8E730192B24D897F8E7309BB2B3
:106DF0001B029AB297F8DF0097F8DE300093002369
:106E0000702101F06DF997F8E730173B07F1E002C8
:106E10005B001A4497F8DF0097F8DE3000931346C2
:106E200001226F2100F0DCFF97F8E730013387F88B
:106E3000E730D6E797F8DE301946002000F06CFF07
:106E40000346002B09D0D7F8D8104FF000024FF0BE
:106E50000003C1E902230023DEE1B7F8E0309BB272
:106E60000022C7F8D030C7F8D420D7E934120B4637
:106E7000DB0AC7F8CC300B465B05C7F8C830D7E94A
:106E800032341A4602F04042C7F8C020234603F0CD
:106E90001F03C7F8C430B7F8E2309B03DA17C7F80E
:106EA000B830C7F8BC20D7E930341846D7E92E12DD
:106EB0000D462843C7F8B00023461343C7F8B43043
:106EC000B7F8E4309BB20022C7F8A830C7F8AC206E
:106ED000D7F8A830C3F30D03C7F8A0300023C7F8D4
:106EE000A430D7E92C341846D7E928120D46284398
:106EF000C7F8980023461343C7F89C30D7E92623E8
:106F0000D7F8D810C1E90223012385E1182387F8B7
:106F1000E73097F8E7301A2B24D897F8E7309BB280
:106F20001B029AB297F8DF0097F8DE300093002337
:106F3000702101F0D5F897F8E730183B07F1E0022F
:106F40005B001A4497F8DF0097F8DE300093134691
:106F500001226F2100F044FF97F8E730013387F8F2
:106F6000E730D6E797F8DE301946002000F0D4FE6F
:106F70000346002B09D0D7F8D8104FF000024FF08D
:106F80000003C1E90223002346E1B7F8E0309BB2D9
:106F90000022C7F89030C7F89420D7E924120B4696
:106FA000DB0AC7F88C300B465B05C7F88830B7F8AA
:106FB000E2305B01DA17C7F88030C7F88420D7E9E0
:106FC00022120846D7E920341D4640EA050A234626
:106FD00042EA030BB7F8E4309BB20022BB67FA67C2
:106FE000BB6F03F01F033B6700237B67D7E91C34AB
:106FF0001A464AEA0202BA6623464BEA0303FB66D4
:10700000D7E91A23D7F8D810C1E90223012303E1F5
:10701000132387F8E73097F8E730152B24D897F833
:10702000E7309BB21B029AB297F8DF0097F8DE3088
:1070300000930023702101F053F897F8E730133BD9
:1070400007F1E0025B001A4497F8DF0097F8DE30A2
:107050000093134601226F2100F0C2FE97F8E7303B
:10706000013387F8E730D6E797F8DE30194600207D
:1070700000F052FE0346002B09D0D7F8D8104FF08D
:1070800000024FF00003C1E902230023C4E0B7F877
:10709000E0309BB200223B667A66D7E918120B46B5
:1070A000DB0AFB650B465B05BB65D7E916341A4660
:1070B00002F040423A65234603F01F037B65B7F8B0
:1070C000E2309B03DA17BB64FA64D7E9143418463C
:1070D000D7E912120D4628433864234613437B64D4
:1070E000B7F8E4309BB20022BB63FA63BB6BC3F317
:1070F0000D033B6300237B63D7E910341846D7E9BF
:107100000C120D462843B86223461343FB62D7E9AD
:107110000A23D7F8D810C1E9022301237CE0102309
:1071200087F8E73097F8E730122B24D897F8E73044
:107130009BB21B029AB297F8DF0097F8DE300093FB
:107140000023702100F0CCFF97F8E730103B07F1E7
:10715000E0025B001A4497F8DF0097F8DE300093F6
:10716000134601226F2100F03BFE97F8E730013310
:1071700087F8E730D6E797F8DE301946002000F0B0
:10718000CBFD0346002B09D0D7F8D8104FF00002F2
:107190004FF00003C1E9022300233DE0B7F8E030DF
:1071A0009BB200223B627A62D7E9082311464FEA7C
:1071B000D12913464FEA4358B7F8E2305B01DA179A
:1071C000BB61FA61D7E90623114648EA010449EA9E
:1071D0000305B7F8E4309BB200223B617A613B695A
:1071E00003F01F03BB600023FB60D7E902231146B5
:1071F000214339602B437B60D7E90023D7F8D810AF
:10720000C1E90223012307E097F8DE301946062082
:1072100000F068FD034600BF1846E837BD46BDE8EC
:10722000B08F00BF80B586B002AF03463960FB71F6
:107230001346BB713B6800225A743B6800229A7463
:10724000FB790F2B06D9BB791946062000F04AFDC1
:10725000034625E007F10E02F879BB790093134647
:1072600001226B2100F0BCFD0346002B0FD0FB89EF
:10727000DB089BB2DBB203F00703DAB23B685A7457
:10728000FB89DBB203F00703DAB23B689A74BB797F
:107290001946002000F040FD034683F00103DBB2F5
:1072A00018461037BD4680BD80B586B002AF034694
:1072B0003960FB711346BB713B6800221A743B684E
:1072C0000E22DA743B6800225A61FB79002B24D12C
:1072D00007F10A02F879BB790093134601220821CD
:1072E00000F07EFD7B8943F6FF7293420CBF0123C1
:1072F0000023FB7307F10A02F879BB790093134668
:107300000122042100F06CFD7B8903F48043002BF3
:1073100014BF01230023BB736EE0FB79002B02D066
:10732000FB790F2B06D9BB791946062000F0DAFC51
:10733000034608E107F10802F879BB790093134688
:107340000122082100F04CFD0346002B22D0F879E1
:10735000BB790093002343F6FF72082100F0C0FEC2
:1073600007F10A02F879BB7900931346012208213C
:1073700000F036FD3A89F879BB79009300230821A3
:1073800000F0AEFE7B8943F6FF7293420CBF0123EF
:107390000023FB7307F10802F879BB7900931346C9
:1073A0000122012100F01CFD0346002B24D03B8963
:1073B00043F020039AB2F879BB79009300230121AE
:1073C00000F08EFE07F10A02F879BB7900931346AC
:1073D0000122012100F004FD3A89F879BB7900937C
:1073E0000023012100F07CFE7B8903F02003002BA9
:1073F0000CBF01230023BB733B6800225A61BA799A
:1074000007F10D031146184600F086FC034683F091
:107410000103DBB2002B00F08D80FB7B002B6BD0D7
:107420003B680E22DA743B68494A5A61BB7B002BE9
:107430005ED03B6801221A743B685B7C072B09D144
:107440003B689B7C072B05D13B6801225A743B6843
:1074500000229A743B685B7C072B09D13B689B7CBC
:10746000022B05D13B6802225A743B6800229A74B1
:107470003B685B7C072B09D13B689B7C032B05D1C8
:107480003B6802225A743B6800229A743B685B7C1A
:10749000062B09D13B689B7C022B05D13B6803225C
:1074A0005A743B6801229A743B685B7C062B09D1B5
:1074B0003B689B7C062B05D13B6803225A743B68D2
:1074C00001229A743B685B7C062B09D13B689B7C4C
:1074D000012B05D13B6803225A743B6802229A743F
:1074E0003B685B7C022B25D13B681A4A5A6121E03C
:1074F0003B6805221A741DE03B680622DA743B687B
:1075000000225A613B68144A5A61BB7B002B0ED0A3
:107510003B6802221A743B685B7C072B0AD13B68EC
:107520009B7C002B06D13B6804221A7402E03B6866
:1075300006221A74BB791946002000F0EDFB0346C1
:1075400083F00103DBB218461037BD4680BD00BF93
:10755000E8A90008D8A90008F8A9000880B58CB0EF
:1075600002AF03463960FB711346BB7107F10C0291
:10757000F879BB79009313460222092100F030FC10
:107580000346002B05D0BA893B681A80FA893B680C
:107590005A8007F10C02F879BB79009313460D224B
:1075A0001A2100F01DFC0346002B20D0BA893B684D
:1075B0009A80FA893B68DA803A8A3B681A81FA8AAB
:1075C0003B685A813A8B3B689A817A8B3B68DA81B7
:1075D000BA8B3B681A82FA8B3B685A823A8C3B68BA
:1075E0009A827A8C3B68DA82BA8C3B681A8307F1FC
:1075F0000C02F879BB79009313460122312100F087
:10760000EFFB0346002B02D0BA893B685A83BB7953
:107610001946002000F080FB034683F00103DBB233
:1076200018462837BD4680BD80B485B000AF0346FC
:10763000FB800023FB73FB7B0A4A32F81330FA8885
:107640009A4206D2FB7BA52B03D8FB7B0133FB734D
:10765000F1E7FB7B283BDBB25BB218461437BD4633
:1076600080BC70478CA8000880B483B000AF03468C
:107670003960FB71FB7903F07F03FB71FB791B0918
:10768000DBB203F007035B003A6813441B881A4619
:10769000FB7903F00F0322FA03F303F00103002B3D
:1076A00014BF01230023DBB218460C37BD4680BC53
:1076B0007047000080B500AF124B1B6803F4005305
:1076C000002B14BF01230023DBB2002B05D00E4B8F
:1076D0001B680D4A43F4005313600421094801F06C
:1076E0005DFE0A4802F0AEF90421064801F068FE8A
:1076F000074B1B78DBB20133DAB2054B1A7000BFBF
:1077000080BD00BF0000024004000240003800407D
:107710000828002080B500AF124B1B6803F002035D
:10772000002B14BF01230023DBB2002B05D00E4B2E
:107730001B680D4A43F0020313600121094801F060
:107740002DFE0A4802F07EF90121064801F038FEBC
:10775000074B1B78DBB20133DAB2054B1A7000BF5E
:1077600080BD00BF0004024004040240003C004011
:107770000828002080B584B000AFF860B9601346D7
:10778000FB71FEF795F9FB79002B04D1B968F86815
:10779000FEF7FEF906E0FB79012B03D1B968F86822
:1077A000FEF77EFABB68DAB2024B1A7000BF1037E0
:1077B000BD4680BD0928002080B483B000AF0346D9
:1077C000FB71FB79002B03D1054B1B68DBB202E098
:1077D000044B1B68DBB218460C37BD4680BC7047B3
:1077E000480002400C04024080B485B000AF7860CD
:1077F0007B689B007B600023FB60FA687B689A4291
:1078000006D200BF00BF00BFFB680133FB60F4E796
:1078100000BF1437BD4680BC704780B485B000AF50
:1078200078607B684FF4616202FB03F37B600023A6
:10783000FB60FA687B689A4206D200BF00BF00BFB7
:10784000FB680133FB60F4E700BF1437BD4680BC22
:107850007047000080B582B000AF03460A46FB7156
:107860001346BB71BB79012B0CD1FB79002B02D1E4
:107870000C48FCF783FCFB79012B0FD10A48FCF77D
:107880007DFC0BE0FB79002B02D10648FCF786FC5F
:10789000FB79012B02D10448FCF780FC00BF0837BC
:1078A000BD4680BDA0250020A825002080B582B05F
:1078B00000AF0346FB71FB79002B04D10848FCF7AD
:1078C00047FC034608E0FB79012B04D10548FCF78F
:1078D0003FFC034600E0002318460837BD4680BD44
:1078E000B0250020B825002080B582B000AF034647
:1078F0000A46FB711346BB71BB79012B0CD1FB7996
:10790000002B02D10C48FCF739FCFB79012B0FD17D
:107910000A48FCF733FC0BE0FB79002B02D1064848
:10792000FCF73CFCFB79012B02D10448FCF736FC48
:1079300000BF0837BD4680BDC8250020C0250020F7
:1079400080B487B000AFF8600B467A60FB72134BCF
:1079500000221A700023FB75FA7DFB7A9A4208D246
:10796000FB7DFA68134400221A70FB7D0133FB751E
:10797000F2E700233B613A697B689A4208DA084AD9
:107980003B69134400221A703B6901333B61F2E703
:1079900000BF1C37BD4680BC704700BF08280020D0
:1079A0002828002080B487B000AFF860B960134683
:1079B000FB710023FB75FA7DFB799A420FD2FB7DA8
:1079C000FA6813441A78FB7DB9680B441B789A4215
:1079D00001D0012304E0FB7D0133FB75EBE70023BD
:1079E00018461C37BD4680BC7047000080B586B085
:1079F00000AFF8607A601A460B46FB721346BB7202
:107A00004FF6FF737B6197F820301846FFF7D4FEDE
:107A10000346FB74284B1B78DBB2002B0AD17B6931
:107A20005A1E7A61002B05DDFA7CBB7A9A4201D995
:107A3000012300E00023002B07D097F820301846E0
:107A4000FFF7BAFE0346FB74E4E77B69002B2DDDEC
:107A5000194B1B78DBB2002B14BF01230023DBB2D0
:107A6000002B02D0144B00221A70144B1B78DAB290
:107A7000FB7AD31ADAB2114B1A70FB7ABB7400236B
:107A80007B747A7CFB7A9A420ED2BB7C013BBB743E
:107A9000BB7C7A681A447B7CF9680B4412781A70B4
:107AA0007B7C01337B74ECE7FB7A00E00023184613
:107AB0001837BD4680BD00BF0828002009280020D7
:107AC00080B584B000AF78600B46FB701346BB7086
:107AD0007B68FB60BB7800211846FFF7BBFE0120E6
:107AE000FFF782FEFB78002B0CD0FB78013BFB708C
:107AF000FB78FA6813441B789BB219460D4801F0D5
:107B000076FFEFE70C4B1B6803F00203002B0CBF62
:107B100001230023DBB2002B00D0F3E70620FFF7A0
:107B200063FEBB7801211846FFF794FE00BF1037B3
:107B3000BD4680BD003001400830014080B485B0B2
:107B400000AF78600B467B804223FB737B88002B61
:107B50000ED07B88013B7B807B887A6813441A783F
:107B6000FB7B5340BB73BB7B044AD35CFB73EDE7E9
:107B7000FB7B18461437BD4680BC704708AA000836
:107B800080B582B000AF7860084611461A460346B9
:107B90007B800B467B7013463B707B881B0A9AB236
:107BA0007B680433D2B21A707B6803337A88D2B20E
:107BB0001A707B6802337A7802F07F02D2B21A70B0
:107BC0003B781B01D9B23B7C03F00F03DAB27B6830
:107BD00001330A43D2B21A707B680133042118467C
:107BE000FFF7ACFF03461A467B681A7000BF0837E0
:107BF000BD4680BD80B400AF0B4B1B780133DAB2B9
:107C0000094B1A70084B1B7803F00303DAB2064BDA
:107C10001A70054B1B781A46044B9B5CDBB2184666
:107C2000BD4680BC704700BF0A28002064100020B9
:107C300080B483B000AF78600B46FB70FB78064AD7
:107C40000021D154054A7B681360012318460C3784
:107C5000BD4680BC704700BF242800201C2800209F
:107C600080B483B000AF7860044A7B68136001235E
:107C700018460C37BD4680BC704700BF2028002046
:107C800080B582B000AF0346FB710B46BB71134653
:107C90007B71BB790F2B06D97B791946062000F042
:107CA00021F8034618E0FB790E2B06D97B7919469B
:107CB000062000F017F803460EE0FB79002B06D1F2
:107CC0007B791946062000F00DF8034604E0FB79A5
:107CD0000349BA79CA54012318460837BD4680BD06
:107CE0000C28002080B483B000AF03460A46FB7125
:107CF0001346BB71FB79002B01D10623FB71BB79C5
:107D00000449FA79CA54002318460C37BD4680BC92
:107D1000704700BF2428002080B483B000AF786093
:107D20000B46FB707B68002B04D0FB78084AD25CC2
:107D30007B681A70FB78064AD35C002B14BF0123C2
:107D40000023DBB218460C37BD4680BC704700BF2D
:107D50002428002080B483B000AF0346FB71FB7978
:107D6000034A0021D15400BF0C37BD4680BC704788
:107D70002428002080B582B000AF0346FB71FB7958
:107D800019460020FFF7C8FF0346002B01D000234F
:107D900021E0FB7900211846FFF75CFD1320FFF777
:107DA00023FDFB7901211846FFF754FD40F23F20E7
:107DB000FFF71AFDFB7900211846FFF74BFD132052
:107DC000FFF712FDFB7901211846FFF743FD012063
:107DD000FFF723FD012318460837BD4680BD00008C
:107DE00090B58DB002AF3B600346FB710B46BB7193
:107DF00013467B71002387F82630002387F825304F
:107E0000002387F824307B795A1C13469B001344C7
:107E10003B6297F8383019460020FFF77DFF034694
:107E2000002B01D000234EE17B79002B02D07B791F
:107E3000322B07D997F8383019460620FFF752FF42
:107E4000034640E1A24B1B681B78022B40F03381B4
:107E5000FFF7D0FE0346FB77002387F827307B79B6
:107E600099B2FB7F9B005BB243F001035BB2DBB2D4
:107E7000FC79BA7907F1180000932346FFF780FEDA
:107E800007F110033A6A05211846FFF759FD07F17B
:107E900008033A6A05211846FFF752FD97F8383073
:107EA0001A46396A8B48FFF765FC97F8382007F1C6
:107EB000180305211846FFF703FE3B6ADBB2053BBA
:107EC000DAB207F1100097F8383000931346814A70
:107ED0000521FFF78BFD0346052B14BF012300236B
:107EE000DBB2002B07D097F8383019460120FFF796
:107EF000F9FE0346E7E007F1100107F11803052238
:107F00001846FFF74FFD0346002B14BF0123002343
:107F1000DBB2002B07D097F8383019460120FFF765
:107F2000E1FE0346CFE07B795A1E7A71002B14BF25
:107F300001230023DBB2002B00F0BB8097F8263032
:107F4000013387F8263097F826301A4692001344FA
:107F500087F825303B6ADAB297F82530D31ADBB2BE
:107F6000053B87F8243097F825305A4A1A4497F889
:107F7000241007F1080097F8383000930B460521CC
:107F8000FFF734FD0346BB77BB7F002B07D197F883
:107F9000383019460220FFF7A5FE034693E0BB7F69
:107FA000052B07D097F8383019460320FFF79AFEC3
:107FB000034688E007F1080305211846FFF7BEFDD8
:107FC0000346002B14BF01230023DBB2002B07D094
:107FD00097F8383019460420FFF784FE034672E014
:107FE000BB7A03F07F02BB799A4207D097F838300A
:107FF00019460920FFF776FE034664E0FB79002B63
:108000003DD0354B1968FA7913465B001344DB0009
:10801000183B0B445B69002B31D02F4B1968FA7960
:1080200013465B001344DB00183B0B445A69BB79D1
:1080300011461846FFF718FB0346002B0FD07B7A3A
:1080400003F00F03FA7925498A5C934217D097F819
:10805000383019460720FFF745FE034633E07B7AA8
:108060009B08DBB203F00302FB7F9A4207D097F82C
:10807000383019460820FFF735FE034623E03B68F9
:10808000002B0DD03B7B1B021AB2FB7A1BB21343B1
:1080900019B297F827305B003A6813448AB21A8005
:1080A00097F82730013387F82730BB790133BB714C
:1080B00039E7012307E097F8383019460A20FFF71F
:1080C00011FE034600BF18462C37BD4690BD00BFC9
:1080D0001C28002028280020202800200C28002010
:1080E00090B58DB002AF3B600346FB710B46BB7190
:1080F0001346BB80002387F827300A233B6297F89A
:10810000383019460020FFF707FE0346002B01D048
:108110000023CBE0674B1B681B78022B40F0BE802E
:10812000FFF768FD0346FB77FB7F9B005BB243F0E4
:1081300002035BB2DBB2FC79BA79B98807F11800A7
:1081400000932346FFF71CFD07F110033A6A05214F
:108150001846FFF7F5FB07F108033A6A05211846B0
:10816000FFF7EEFB97F838301A46396A5248FFF7A6
:1081700001FB97F8382007F1180305211846FFF78F
:108180009FFC3B6ADBB2053BDAB207F1100097F8BF
:10819000383000931346484A0521FFF727FC034671
:1081A000052B14BF01230023DBB2002B07D097F867
:1081B000383019460120FFF795FD034676E007F1B8
:1081C000100107F1180305221846FFF7EBFB0346E1
:1081D000002B14BF01230023DBB2002B07D097F83C
:1081E000383019460120FFF77DFD03465EE007F1B8
:1081F000080097F8383000930023304A0521FFF734
:10820000F5FB0346BB77BB7F002B07D197F83830CF
:1082100019460220FFF766FD034647E0BB7F052BAA
:1082200007D097F8383019460320FFF75BFD034667
:108230003CE007F1080305211846FFF77FFC0346E1
:10824000002B14BF01230023DBB2002B07D097F8CB
:10825000383019460420FFF745FD034626E07B7AB7
:108260009B08DBB203F00302FB7F9A4207D097F82A
:10827000383019460820FFF735FD034616E03B6805
:10828000002B09D03B7B1B021AB2FB7A1BB21343B3
:108290001BB29AB23B681A80002307E097F8383087
:1082A00019460A20FFF71EFD034600BF18462C376B
:1082B000BD4690BD1C280020282800202D28002025
:1082C00080B58AB002AF0346FB710B46BB801346F4
:1082D000BB710523FB61BB7919460020FFF71CFD2C
:1082E0000346002B01D0002365E0354B1B681B784B
:1082F000012B06D1BB7919460A20FFF7F3FC034690
:1083000059E02F4B1B681B78022B4DD1FA79B988A5
:1083100007F11400032300930023FFF731FC07F15A
:108320000C03FA6905211846FFF70AFBBB791A46C8
:10833000F9692448FFF71EFABA7907F114030521F9
:108340001846FFF7BDFB07F10C00BB790093002333
:108350001C4A0521FFF74AFB0346052B14BF0123E6
:108360000023DBB2002B06D0BB7919460120FFF7B2
:10837000B9FC03461FE007F10C0107F114030522C5
:108380001846FFF70FFB0346002B14BF0123002301
:10839000DBB2002B06D0BB7919460120FFF7A2FC07
:1083A000034608E0012306E0BB7919460A20FFF7DF
:1083B00099FC034600BF18462037BD4680BD00BF6C
:1083C0001C2800202828002080B584B000AF034678
:1083D000FB71FB7919460020FFF79EFC0346002B3A
:1083E00001D000234DE0FB7900211846FFF77CFA0D
:1083F0008820FFF7F9F9FB7901211846FFF774FA95
:108400004FF40033FB60FB791846FFF74FFA034641
:10841000012B0CBF01230023DBB2002B10D0FB6823
:108420005A1EFA60002B0CBF01230023DBB2002B85
:10843000E9D0FB7919460B20FFF754FC034620E0F6
:108440004FF40033FB60FB791846FFF72FFA034621
:10845000002B0CBF01230023DBB2002B10D0FB68E4
:108460005A1EFA60002B0CBF01230023DBB2002B45
:10847000E9D0FB7919460B20FFF734FC034600E0F6
:10848000012318461037BD4680BD80B582B000AFCD
:108490000346FB71FB7919460020FFF73DFC0346BC
:1084A000002B01D0002305E0FB7901211846FFF7DE
:1084B0001BFA012318460837BD4680BD80B584B03D
:1084C00000AF244BBB6000F0F3FE4FF4FF71B868BF
:1084D00000F0F6FE7860BB68D3F8F8377A689A4205
:1084E00031D10023FB60FB68FE2B2AD8BB68FA68F9
:1084F00033F832301846FDF7BBFD0346FB70FB78BE
:10850000802B1AD0BB68FA6833F83230002B14D0B5
:10851000BA68FB68DB0013445B681A46FB781146B7
:108520001846FDF793FDBA68FB68DB001344DA7860
:10853000FB7811461846FDF7BFFDFB680133FB6071
:10854000D1E7002301E04FF0FF3318461037BD4656
:1085500080BD00BF00F8010880B400AF024B1B785B
:108560001846BD4680BC70472729002080B485B0DE
:1085700000AFF860B9601346FB7100BF1437BD4609
:1085800080BC704780B483B000AF786039607B688E
:108590003A68C3F8302500BF0C37BD4680BC704731
:1085A00080B582B000AF786039607B68D3F8483519
:1085B000092B17DC7B68D3F848353A6891B27A68A2
:1085C00003F526735B0013440A469A807B68D3F850
:1085D00048355A1C7B68C3F84825786800F054FA7F
:1085E000012300E0002318460837BD4680BD80B552
:1085F00082B000AF78607B681946786800F006FBAF
:108600007B6803F5FA731946786800F0FFFA78681A
:1086100000F03AFA00BF0837BD4680BD80B584B08F
:1086200000AFF860B9601346FB71FB680022C3F825
:10863000E823FB680022C3F82C25FB68474AC3F8EF
:108640003025FB680022C3F84825FB68BA68C3F8E8
:108650004C25F868FFF7CBFFF86800F09BFABB6881
:108660003F4A934204D0BB683E4A93422CD054E028
:108670004FF40063022200213B4800F0D5FE4FF486
:108680000061394800F00AFF4FF4805302220321B1
:10869000354800F0C9FE142001F040FBF021142001
:1086A00001F04AFB152001F039FBF021152001F003
:1086B00043FB132001F032FBF021132001F03CFBBF
:1086C0002A4AFB68136028E0202302220021284860
:1086D00000F0AAFE2021264800F0E0FE40230222FE
:1086E0000321234800F0A0FE402001F017FBF021F9
:1086F000402001F021FB412001F010FBF02141203E
:1087000001F01AFB3F2001F009FBF0213F2001F0AE
:1087100013FB164AFB68536000BFFB68D3F84C3567
:10872000184600F0EDFBFB791946F86800F022F8D6
:10873000F86800F0A9F9FB68D3F84C350221184617
:1087400000F0DEFCFB68D3F84C351021184600F031
:10875000D7FCFB6818461037BD4680BD6D85000804
:108760000064004000680040000801402829002003
:10877000000C0140B0B58CB00AAF78600B46FB70BE
:108780007B68D3F84C45FA78184913465B001344CC
:108790009B000B441968FA78144813465B00134495
:1087A0009B00034404331868FA78104D13465B00AD
:1087B00013449B002B4408331B68002208920022BC
:1087C00007920693059004910023039300230293DC
:1087D000002301930023009300230122002120465F
:1087E00000F09AFB00BF0837BD46B0BD08AC0008DA
:1087F00080B586B002AFF860B9607A60FB70FB6844
:10880000D3F84C350121184600F07EFCFB68D3F804
:108810004C057B680193FB78009300230022B96824
:1088200000F077FC0346002B06DAFB68D3F82C3502
:10883000132B01DC012300E00023002B32D0FB6866
:10884000D3F82C35BA6891B2FA681B01134403F5CA
:108850007B730A461A80FB68D3F82C35FA78F968DE
:108860001B010B4403F57C731A60FB68D3F82C35AD
:108870007A681268F9683F331B010B4404331A60AD
:10888000FB68D3F82C357A685268F9681B010B44F1
:1088900003F57E731A60FB68D3F82C355A1CFB680D
:1088A000C3F82C25FB68D3F82C35002B06DDFB68BC
:1088B000D3F84C350121184600F022FC00BF1037D8
:1088C000BD4680BD80B483B000AF78607B68012B6B
:1088D00004DC054A7B6852F8233000E00023184688
:1088E0000C37BD4680BC70472829002080B58CB06D
:1088F00006AF786039607B68D3F84C35184600F0D5
:10890000CFFC0346002B23D07B68D3F84C053B6893
:10891000D9B207F114020023059307F10803049369
:1089200007F11103039307F11003029307F11203F8
:10893000019307F1130300931346012200F059FC41
:108940007B68D3F8303578697A7C07F1080198475D
:1089500000BF1837BD4680BD90B585B002AF7860C6
:108960007B68D3F82C35002B2DDD7B68D3F84C05C4
:108970007B68D3F82C35013B7A681B01134403F55F
:108980007B731B881C467B68D3F82C35013B7A68C7
:108990001B01134403F57C731B68DBB27A68D2F8C1
:1089A0002C25013A3F32120179680A4404320192BF
:1089B000009300230022214600F0ABFB0346002B6E
:1089C00001DB012300E00023002B07D07B68D3F8F4
:1089D0002C355A1E7B68C3F82C25C1E77B68D3F879
:1089E0002C35002B06D17B68D3F84C350121184675
:1089F00000F08AFB00BF0C37BD4690BDF0B589B0D2
:108A000004AFF860B9607A603B607B681B681E4603
:108A10003B681B885B0199B23B6802331B885B0192
:108A200098B23B6804331B885B019CB23B680633F9
:108A30001B885B019BB27A68126802F00102012573
:108A400002950192009323460246304600F048FB0F
:108A5000BB6800221A607B681B685A1C7B681A601E
:108A60003B68063300221A803A6804321B88138060
:108A70003B68023312881A801A883B681A8000BF4C
:108A80001437BD46F0BD000080B588B000AF7860F7
:108A900007F1100300221A605A600123FB607B6813
:108AA000D3F84C35394A934205D0394B1B681B0A21
:108AB00003F03F0300E00023BB600023FB617B6801
:108AC000D3F84835FA699A4221DAFA687968FB697D
:108AD00003F526735B000B449988530007F12002CD
:108AE00013440A4623F8102CFB680133FB60FB6833
:108AF000042B08D107F1100307F1080207F10C015C
:108B00007868FFF77BFFFB690133FB61D7E77B6880
:108B100003F5FA73BB617B6803F5FA73BA69D31A7C
:108B2000B3F5E17F21DCBB691B884FF6FF729342EE
:108B30001BD0FB68BA6912885B0007F120010B4467
:108B400023F8102CFB680133FB60FB68042B08D171
:108B500007F1100307F1080207F10C017868FFF72D
:108B60004DFFBB693233BB61D5E7FB68002B08DDE5
:108B700007F1100307F1080207F10C017868FFF70D
:108B80003DFF00BF2037BD4680BD00BF00640040F0
:108B9000006A004080B586B000AF7860184B7B61FA
:108BA000184B1B683B6100F083FBFA21786900F0E9
:108BB00087FBF8603A69FB689A421BD17B687D228B
:108BC0000F491846FDF7CEFA7B6803F5FA737D224C
:108BD0000D491846FDF7C6FA7B681946786800F01B
:108BE00049F87B6803F5FA731946786800F042F893
:108BF000012300E0002318461837BD4680BD00BFA2
:108C000000F00108E8F30108F4F1010880B485B030
:108C100000AF786039600023FB60FB68092B24DC1F
:108C2000FB68322202FB03F33A6813444FF6FF72EB
:108C30001A800023BB60BB68072B12DCFB68322262
:108C400002FB03F33A68D118BA6813465B00134479
:108C50005B000B44073300221A70BB680133BB6012
:108C6000E9E7FB680133FB60D7E700BF1437BD4677
:108C700080BC704780B586B000AF786039603B68D3
:108C80007B617A693B68D31AB3F5E17F26DC7B69A7
:108C90001B884FF6FF72934220D07B6902333B6101
:108CA0007B6902333A69D31A2A2B13DC3B6993F9A7
:108CB0000530002B0EDD3B691B881846FDF7D8F9FF
:108CC0000346FB73FB7B9AB23B691A803B69063310
:108CD0003B61E5E77B6932337B61D2E700BF183740
:108CE000BD4680BD80B500AF0020FFF7EBFD034619
:108CF00000211846FFF7FAFD00BF80BD80B500AF28
:108D00000020FFF7DFFD034601211846FFF7EEFDC7
:108D100000BF80BD80B500AF0020FFF7D3FD034644
:108D20001846FFF719FE00BF80BD80B500AF0120D7
:108D3000FFF7C8FD034600211846FFF7D7FD00BF27
:108D400080BD80B500AF0120FFF7BCFD03460121C7
:108D50001846FFF7CBFD00BF80BD80B500AF0120F6
:108D6000FFF7B0FD03461846FFF7F6FD00BF80BDD4
:108D700080B487B000AF78607B685A787B681B78D6
:108D80009A422ED000237B617B69FF2B25DC7B6917
:108D9000FB740023FB60FB68072B14DC97F913308E
:108DA000002B09DAFB7C5B005AB27B681B785BB254
:108DB00053405BB2FB7402E0FB7C5B00FB74FB681E
:108DC0000133FB60E7E77A687B6913440233FA7C7E
:108DD0001A707B6901337B61D6E77B681A787B6800
:108DE0005A7000BF1C37BD4680BC70478368DB07E4
:108DF0005EBF836843F00103836070478368DB07CD
:108E000042BF836843F0010383607047836800F1C9
:108E1000080243F00803836013681B07FCD4704703
:108E2000836843F00403836070478068C0F3800068
:108E3000704708B50246FFF7F3FF1046FFF7F5FF4E
:108E40000028FAD108BD0022134610B501FA02F439
:108E500003321E2A43EA0403F8D10022036101FA17
:108E600002F40332182A43EA0403F8D1C36010BDA8
:108E7000836823F0010383607047436843F4807381
:108E800043607047836823F400638360704783689E
:108E900043F00203836070471029F0B510D8002416
:108EA0006FF03B064FF0010C274623465FFA8CF526
:108EB000A94206D2013943EA0153C36207634463FE
:108EC000F0BD062D0AD8157806F13C0E05FA0EF510
:108ED0002C430CF1010C01320536E7E7073D052D67
:108EE00015789BBF06F11E0E05FA0EF5B5402F430F
:108EF00088BF2B43EDE7836843F48073836070473A
:108F0000044B98420CBF40F2192040F21A2000F0A6
:108F100055BC00BF006400402DE9F3410468884659
:108F200024F0020404600468964644F001040460DE
:108F30004FF6FF749DF820C09DF824109DF828205E
:108F40009DF83C609DF840700194019C051D013C1A
:108F5000019414B14468E407F7D52C68E4076ED592
:108F60000024C4610468B8F1000F4FD044F08004BD
:108F700004600468BEF1000F4BD044F0400404606C
:108F8000002B49D0036843F0200303600368BCF161
:108F9000000F45D043F0100303600368002942D05E
:108FA00043F0080303600368002A3FD043F0040342
:108FB0000360C369002F3CD043F00043C361C36921
:108FC000002E39D043F08043C3610E9B0D99013BC5
:108FD000C3F309030B430C99C2690B430B990B4371
:108FE0001343C361036823F0010303604FF6FF736B
:108FF0000193019B013B019313B12B68DB07F8D46C
:10900000286800F0010002B0BDE8F08124F080047F
:10901000AEE724F04004B2E7036823F02003B4E78E
:1090200023F01003B8E723F00803BBE723F00403A1
:10903000BEE723F00043C1E723F08043C4E70120EB
:10904000E1E70000F0B50125244C9DF81C70D4F830
:109050000066854046F00106C4F80066D4F81CE6B8
:10906000EE432EEA050EC4F81CE641B3D4F80C1604
:109070002943C4F80C1632B3D4F804262A4300F16D
:10908000006000F6C840C4F80426C0000360069AD9
:10909000059B4360114BD2B1D3F814262A43C3F881
:1090A000142627B1D3F81C261543C3F81C560B4AC7
:1090B000D2F8003623F00103C2F80036F0BDD4F830
:1090C0000C163140D5E7D4F804263240D7E7D3F860
:1090D00014261640C3F81466E3E700BF00600040A2
:1090E00030B4BDF808409DF8105044EA034404959C
:1090F00042EA01430294012230BC0021FFF7A2BFE3
:1091000043690B4343617047436923EA01034361A9
:1091100070472DE9F041804680689DF818E04501D0
:10912000079E2AD4D8F8080004012AD4D8F80800E9
:10913000C00050D54FF4D075022005EB080422B3CF
:10914000C90041F0040145F808101BB1236843F041
:1091500002032360636823F00F03636062680EF00C
:109160000F03134363600EF1FF33072B2AD8DFE8A8
:1091700003F02623201B1815120E4FF4C075002093
:10918000DBE74FF4C8750120D7E74905DBE7002787
:10919000F37963F31F67B37963F31747737963F365
:1091A0000F27337963F307074FF0000CF37863F36D
:1091B0001F6CB37863F3174C737863F30F2C337819
:1091C00063F3070CC4F808C0E760236843F00103A9
:1091D0002360BDE8F0814FF0FF30FAE721B9C368A2
:1091E00043F02003C3607047036943F02003036129
:1091F00070472DE9F3474FF4D876DDE90AA9DDE998
:109200000C8EDDE90E4C4FF4E075CDE9006502AD42
:1092100005EB810555F8085C4759461917F0040716
:1092200015BF01278AF800708AF80070475916BFE9
:1092300047597F0DFF081F604359C3F3400389F866
:10924000003073681B0A88F80030736803F00F035E
:109250008EF80030BCF1000F03D073681B0CACF823
:109260000030B568F368C5F3072625706670C5F34E
:109270000746C5F30765E570C3F3072523716571DC
:10928000C3F30745C3F30763A670A571E37122B169
:1092900002B0BDE8F047FFF7A1BF02B0BDE8F0871C
:1092A000836813F0E05F14BF0120002070470000C6
:1092B000024A936843F00103936070470030024014
:1092C000002310B5044A8B4201DB106810BD50F832
:1092D000234001331460F6E70030024014230022DB
:1092E000013903FB01039A60DA601A615A610F23A6
:1092F0004268890003FA01F1114341607047142369
:1093000001395943083010B50C5824F440540C501E
:109310000B5813430B5010BD142301395943083027
:1093200010B50C5824F440640C500B5813430B50E8
:1093300010BD142301395943083010B50C5824F4DA
:1093400040740C500B5813430B5010BD14230139BB
:10935000594308300B5843F080030B5070471423D7
:109360000139594308300B5843F020030B500B5878
:1093700023F480430B5070471423013959430830BC
:109380000B5823F010030B50704714230139594335
:1093900008300B5843F002030B5070471423013977
:1093A000594308300B5823F002030B507047142325
:1093B0000139594308300B5843F001030B507047F3
:1093C00014230139594308300B5823F001030B5083
:1093D00070471423013903FB01008368DB0758BF82
:1093E000026170471423013903FB01008368DB0726
:1093F00058BF426170471423013959430C300A5059
:1094000070470000024A136843F01003136070476E
:1094100000200240034A136823F00703034313604C
:10942000704700BF002002402DE9F04100264FF0B8
:109430000F0E9C46036847684CFA06F4E4071BD5F8
:10944000072E94BF9846B846B4B24FEA84048ABF48
:10945000203CA4B2A4B20EFA04F528EA0508A51C23
:10946000ADB202FA05F501FA04F42C4344EA08040B
:10947000072E94BF234627460136102EDCD1036009
:109480004760BDE8F0810000034A536823F0E063C1
:109490000B43034353607047000001400161704774
:1094A000090401617047806808407047C36801EA99
:1094B000030221EA030141EA024101617047000011
:1094C000024BD868C0F34000704700BF0030004036
:1094D000C000012838BF0120002208B5411E5FEA04
:1094E000113CD3B202F1010218D1062B84BF40F621
:1094F000FF7106230A4AD068C007FCD445F25550D4
:1095000010605360FFF7DCFF0028FBD145F2555394
:1095100013604AF6AA239160136008BD4008DDE796
:10952000003000404AF6AA22014B1A60704700BF83
:1095300000300040062824D8DFE800F004090E13AC
:10954000181D2000104B1868C0F3406070470E4B88
:109550001868C0F3C06070470B4B1868C0F34070C8
:109560007047094B1868C0F340407047064B1868B5
:10957000C0F340007047044B186AF9E7024B586A81
:10958000F6E70020704700BF00100240024608B511
:109590001046FFF7CFFF0028FAD008BD06282AD8CA
:1095A000DFE800F0040A0F14191E2400124A1368A1
:1095B00043F08073136070470F4A136843F0806371
:1095C000F8E70D4A136843F08053F3E70A4A13683B
:1095D00043F48033EEE7084A136843F00103E9E7F8
:1095E000054A136A43F0010313627047024A536A43
:1095F00043F00103536270470010024006282AD846
:10960000DFE800F0040A0F14191E2400124A136840
:1096100023F08073136070470F4A136823F0806350
:10962000F8E70D4A136823F08053F3E70A4A1368FA
:1096300023F48033EEE7084A136823F00103E9E7D7
:10964000054A136A23F0010313627047024A536A02
:1096500023F001035362704700100240034A53682D
:1096600023F0030303435360704700BF0010024020
:10967000034A536823F4701343EA804353607047EE
:1096800000100240034A536823F4803343EA004346
:109690005360704700100240034A536823F40033BC
:1096A00043EA40435360704700100240024B186A7F
:1096B00000F40040704700BF00100240024A136AE5
:1096C00043F40043136270470010024006283BD861
:1096D000DFE800F035353525350415001B4B1A6AD7
:1096E00042F001021A621A6A9007FCD51A6A22F443
:1096F00040721A621A6A42F480721A627047134BFF
:109700005A6A42F001025A625A6A9107FCD51A6AF3
:1097100022F440721A621A6A42F40072EDE70B4BAF
:109720001A6842F480321A601A689203FCD51A6AE9
:1097300022F440721A621A6A42F44072DDE7034A68
:10974000136A23F440731362704700BF0010024095
:10975000034A536823F4404343EA8033536070471D
:1097600000100240034A536823F4605343EAC023C5
:109770005360704700100240034A536823F4E063CB
:1097800043EA00235360704700100240034A5368C5
:1097900023F0F00343EA00135360704700100240C7
:1097A0000122430903F1804303F50433196800F0F3
:1097B0001F0002FA00F008431860704701224309B5
:1097C00003F1804303F50433196800F01F0002FA27
:1097D00000F0014319601A6822EA0000186070471F
:1097E000054BD3F804289206FBD5D3F8042842F0A1
:1097F0001002C3F80428704700200040054BD3F83E
:10980000042822F01002C3F80428D3F80428920692
:10981000FBD570470020004038B5044600254FF4C2
:109820006770FFF7BDFF40F29B30FFF7B9FF00F014
:1098300093FA2046124CFFF749FFC4F80058C4F8C9
:109840000458FFF73BFFFFF7CBFF4FF6FF73C4F859
:109850000858C4F80C58C4F81858C4F81C58C4F870
:109860002038C4F82438FFF7C9FFD4F8043823F0AF
:109870000803C4F80438D4F804381B07FBD538BDF6
:109880000020004008B5FFF7ABFF064B82B2C0F3E3
:109890000340C3F80C28C3F80808BDE80840FFF7E8
:1098A000ADBF00BF0020004008B5FFF799FF054B92
:1098B000020C80B2C3F81828C3F81C08BDE80840A1
:1098C000FFF79CBF0020004008B5FFF789FF012883
:1098D0000DD0022811D030B90B4AD2F8003843F02D
:1098E0000103C2F80038BDE80840FFF787BF064A09
:1098F000D2F8003843F00203F3E7034AD2F8003805
:1099000043F00403EDE700BF0020004001280AD027
:1099100002280ED030B90A4AD2F8043823F00103E5
:10992000C2F804387047064AD2F8043823F002031C
:10993000F6E7034AD2F8043823F00403F0E700BF47
:109940000020004008B54FF46770FFF729FF40F290
:109950009B30FFF725FF00F0FFF9084BD3F80428F0
:1099600022F00802C3F80428D3F804281107FBD515
:10997000D3F804289206FBD508BD00BF00200040A4
:1099800038B505464FF467700C46FFF709FF40F203
:109990009B30FFF705FFFFF789FE18B1BDE838409F
:1099A000FFF7D0BF2846FFF737FF2046BDE8384015
:1099B000FFF768BF0A4B98420ED003F574439842F4
:1099C00006D0A3F57843984209D140F20E2001E079
:1099D0004FF4C670FFF7F2BE40F20F20FAE770476F
:1099E000003C0040036843F0400303607047836815
:1099F0009B07FCD5C1607047036843F400430360D4
:109A0000036843F4804303607047036843F4806352
:109A100003607047036843F400730360436823F0F6
:109A2000040343607047036843F480730360704726
:109A3000036823F0040303607047436843F00103A5
:109A400043607047436823F0010343607047032974
:109A50009FBF036823F0030319430160704730B5CB
:109A60000468049D04F441542C43039D2C431C437F
:109A7000144343680C4344F0040443F0040343607C
:109A80000460002030BDC3680B43C36070470369A6
:109A90000B4214BF012000207047C9430161704789
:109AA000036843F0800303607047036823F01003EA
:109AB00003607047036843F0010303607047036865
:109AC00023F001030360704781627047C1627047F1
:109AD00006297AD8DFE801F00479337963799200B6
