:020000040800F2
:1040000000500020190101081501010813010108E1
:104010001301010813010108130101080000000049
:104020000000000000000000000000001501010871
:104030001501010800000000150101081501010823
:104040001301010813010108130101085567000855
:1040500013010108130101081301010813010108EC
:1040600013010108130101081301010813010108DC
:104070001301010813010108DD9000081301010874
:104080001301010813010108130101082DB60008EE
:10409000FDB5000815B60008130101081301010859
:1040A000130101081301010813010108130101089C
:1040B000130101083D6700081301010813010108FD
:1040C000130101081301010813010108130101087C
:1040D000130101081301010813010108130101086C
:1040E000130101081301010813010108130101085C
:1040F000130101081301010813010108130101084C
:10410000130101081301010813010108130101083B
:10411000130101081301010813010108130101082B
:10412000130101081301010813010108130101081B
:1041300013010108130101081301010873B60008F7
:1041400043B600085BB6000813010108130101081B
:1041500080B582B000AF78607B681A687B689B8806
:10416000194610460BF003FC0346002B14BF012335
:104170000023DBB218460837BD4680BD80B582B04B
:1041800000AF78607B681A687B689B881946104688
:104190000BF0E8FB00BF0837BD4680BD80B582B09C
:1041A00000AF78607B681A687B689B881946104668
:1041B0000BF0DAFB00BF0837BD4680BD80B582B08A
:1041C00000AF78607B681A687B689B881946104648
:1041D0000BF0D0FB00BF0837BD4680BD80B483B074
:1041E00000AF78607B6810229A757B6818460C37A0
:1041F000BD4680BC7047B0B582B000AF78607B68C8
:10420000043331241D46002C05DB2846FFF7E6FF6A
:104210001835013CF7E77B6818460837BD46B0BD46
:1042200080B582B000AF094B1B68FB80142003F0FF
:10423000E3FC03463B60FB883A689A420CBF0123CB
:104240000023DBB218460837BD4680BDE8F7FF1FE4
:1042500080B483B000AF0346FB71FB790C4A12F8BF
:104260002330032B0BD0FB79094A12F82330082B9B
:1042700005D0FB79064A12F82330092B01D101231E
:1042800000E0002318460C37BD4680BC704700BFD5
:10429000580A002080B582B000AF0023FB710023D4
:1042A000BB71122003F0A8FC0346002B07DD0020A1
:1042B000FFF7CEFF0346002B01D0012300E00023CF
:1042C000002B02D00123FB7110E0122003F094FCBC
:1042D0000346002B05D11D4B1B78072B01D1012371
:1042E00000E00023002B01D00123FB71132003F019
:1042F00083FC0346002B07DD0120FFF7A9FF0346DF
:10430000002B01D0012300E00023002B02D0012369
:10431000BB710DE0132003F06FFC0346002B02D1AC
:104320000A4B1B79072B0123002B01D00123BB7102
:10433000FB79012B04D1BB79012B01D1012300E0D2
:10434000002318460837BD4680BD00BF580A00202C
:1043500080B500AFFFF79EFF0346002B0CBF012383
:104360000023DBB2002B01D0012319E01E2003F053
:1043700043FC0346002B06D00A4B1B681B8D002B09
:1043800001D0012300E00023002B01D0012307E02E
:10439000054B1B681B6C002B01D0012300E00023A0
:1043A000184680BD9C2B0020902B0020B0B483B019
:1043B00000AF0446084611461A462346FB710346E1
:1043C000BB710B467B7113463B713B79012B16D1B8
:1043D000FA79B979214813461B019B1A5B000B44FB
:1043E000002200F82320FA79B9791C4813461B01F2
:1043F0009B1A5B000B449B00034401225A80F8790E
:10440000BA797979164C1346DB009B1A5B004FF49E
:10441000D27200FB02F213440B447A7904F8232091
:104420003B79012B01D1012500E00025F879BA790B
:1044300079790B4C1346DB009B1A5B004FF4D27268
:1044400000FB02F213440B449B0023442A465A808B
:1044500000BF0C37BD46B0BC704700BF581D0020E0
:10446000D01D00202DE9F04F91B000AF172003F0D0
:10447000C3FB03463B873B8F032B05D1182003F07A
:10448000BBFB03469BB202E0C44B1B689B8FFB86C1
:10449000192003F0B1FB034687F835301A2003F0EA
:1044A000ABFB034687F83430BD4B1B78012B04D09F
:1044B000BC4B1B78192B40F0EC81B94B1B78012BBE
:1044C0000BD1162003F098FB03469AB2B34B1B683E
:1044D0009B8F13449BB2B44A1380B14A02231370DA
:1044E000002387F83D3097F83D30002B40F0D18114
:1044F00097F83D301846FFF7ABFE0346002B00F05F
:10450000C281002387F83E3097F83D30A74A9B00D0
:1045100013445B7897F83E209A4280F0B4816B4652
:104520001E46002387F83F3097F83D1097F83E303D
:104530009F481A4692001A4453001A464FF4967345
:1045400001FB03F31344034408331B78591E3963FA
:104550000B4601330022BB61FA61D7E906452246CA
:104560002B469018B8605B41FB60D7E902232046D8
:1045700012EB0008284643EB00094FF000024FF011
:1045800000034FEA091343EA18734FEA08129046F2
:1045900099460B46013300223B617A61D7E9044515
:1045A00022462B46901838605B417B60D7E9002398
:1045B000204612EB000A284643EB000B4FF00002A6
:1045C0004FF000034FEA0B1343EA1A734FEA0A1243
:1045D00092469B460B465A1C13465B0013445B00F5
:1045E0000733DB08DB00ADEB030D6B4601335B08E3
:1045F0005B00FB62FC6A97F83D1097F83E306C4810
:104600001A4692001A4453001A464FF4967301FB5F
:1046100003F31344034408331B781A4613465B0024
:1046200013445B001A460021204604F028F80023BA
:1046300087F83C3097F83D1097F83E305C481A46B2
:1046400092001A4453001A464FF4967301FB03F389
:104650001344034408331A7897F83C3093423AD213
:10466000544B1D7897F83D0097F83E3097F83C1072
:10467000514C1A461201D21A53001A464FF4617374
:1046800000FB03F313440B445B002344DB8819460F
:10469000284606F01BF903467B8597F83D1097F8EE
:1046A0003E3043481A4692001A4453001A464FF4CB
:1046B000967301FB03F3134403440833197897F806
:1046C0003C307A8DF86A06F0DFFF97F83C30013312
:1046D00087F83C30AEE7002387F83B3097F83D1071
:1046E00097F83E3032481A4692001A4453001A4650
:1046F0004FF4967301FB03F31344034408331A7811
:1047000097F83B30934280F0B78097F83B20F96AE6
:1047100013465B0013445B000B4404331B883B854A
:1047200097F83B20F96A13465B0013445B000B4487
:1047300002331B8887F827301A4B1B78182B23D895
:104740003A8DFB8E9A421FD91A4B1C7897F83D1070
:1047500097F83E3018481A461201D21A93001A46AA
:104760004FF4E16301FB03F31344034430331B882C
:104770001946204605F0F8FF03461A4697F83530EB
:10478000934201D9012300E00023002B56D03B8F38
:10479000022B13D0032B2FD059E000BF902B002009
:1047A00000010020A02B0020A22B0020580A00208E
:1047B0005C0A0020682B0020880B00203F4B1A88E1
:1047C0003B8D93420ED997F8272097F83E1097F823
:1047D0003D000123FFF7EAFD97F83F30013387F8EA
:1047E0003F3034E097F8272097F83E1097F83D00C7
:1047F0000023FFF7DBFD2AE0304B1A883B8D934204
:1048000012D93A8DFB8E9A420ED997F8272097F845
:104810003E1097F83D000123FFF7C8FD97F83F30A1
:10482000013387F83F3012E097F8272097F83E10C1
:1048300097F83D000023FFF7B9FD08E097F827201F
:1048400097F83E1097F83D000023FFF7AFFD97F86B
:104850003F2097F834309A4208D997F8272097F8E4
:104860003E1097F83D000023FFF7A0FD97F83B307E
:10487000013387F83B3031E7B54697F83E300133D6
:1048800087F83E3040E697F83D30013387F83D30F9
:1048900029E60B4B1B780133DAB2094B1A70084B2F
:1048A0001B78192B05D9064B00221A70054B0122E3
:1048B0001A7000BF4437BD46BDE8F08FA22B002020
:1048C000A02B00200001002080B400AF00BFBD4637
:1048D00080BC704780B584B000AF042003F08CF931
:1048E0000346002B0CBF01230023DBB2002B58D062
:1048F0009D4B1B78012B44D101233B7100237B711D
:104900009A48FFF725FC03461A467B791344DBB22D
:104910007B719748FFF71CFC03465B007A79DBB29A
:104920001344DBB27B719348FFF712FC03469B00F4
:104930007A79DBB21344DBB27B710023BB718E4802
:10494000FFF706FC03461A46BB791344DBB2BB7182
:104950008A48FFF7FDFB03465B00BA79DBB21344DC
:10496000DBB2BB718648FFF7F3FB03469B00BA79C5
:10497000DBB21344DBB2BB713B1D184604F076F882
:1049800000E000BF784B1B780133DAB2764B1A7027
:10499000754B1B78022B40F02D81734B01221A704E
:1049A00028E1042003F028F90346002B14BF01235B
:1049B0000023DBB2002B00F01D81724B1B681846F0
:1049C00008F05EFD6F4B1A686E4B1B681B68243342
:1049D0001B6810469847042003F00EF90346022B8B
:1049E0000BD0042003F008F90346012B07D11D204A
:1049F00003F002F90346012B01D1012300E000235B
:104A0000FB73614B1B78012B66D1FFF743FC034618
:104A1000002B09D05B4B1B681B79012B04D1FB7B5E
:104A2000002B01D0012300E00023002B0AD0554BBE
:104A30001B681B6C002B5DD1524B1B68184608F09D
:104A40004FFE57E0FFF726FC0346002B06D04D4BE8
:104A50001B681B79072B01D1012300E00023002BE9
:104A600005D0484B1B68184608F046FE42E0FFF7A9
:104A700011FC0346002B0BD1424B1B681B79042B06
:104A800006D0404B1B681B79012B01D0012300E0AD
:104A90000023002B0ED03B4B1B68184608F038FE55
:104AA000FFF7F8FB0346002B0CBF01230023DBB20A
:104AB000BB731FE0334B1B681B6C002B1AD0314BB0
:104AC0001B68184608F024FE2F4B00221A702F4B4B
:104AD0001B682F4A13600DE02D4B1B6803F5FA721B
:104AE0002A4B1B689A4205D2FFF7D4FB03461A46AD
:104AF000254B1A70042003F07FF80346012B0CBFEE
:104B000001230023DBB2002B60D0224B1B68184628
:104B100003F062FA1F4B1B68184603F0FDFB1D4BA8
:104B20001B681B8D002B46D01A4B1B681B7C012B6E
:104B30000AD1184B1B681B79012B05D1154B1B683B
:104B4000184603F0F5FB36E0124B1B681B7C012B6B
:104B500022D1104B1B681B79072B1DD10D4B1B68F5
:104B6000184603F0F1FB26E001010020202C002074
:104B7000282C0020302C0020F02B0020F82B0020C7
:104B8000002C0020902B0020A52B00206C2B002057
:104B9000A82B00209C2B0020204B1B681B7C002B8B
:104BA00009D11E4B1B681B79092B04D11B4B1B68B9
:104BB000184603F0D5FBFFF7CBFB0346002B19D0BB
:104BC000164B1B68184603F0CBFB13E0134B1B6816
:104BD0001B79012B0ED0114B1B68184603F09CFB70
:104BE0000E4B1B68184603F0F7F90C4B1B68184670
:104BF00003F0B6FB0A4B1B78012B05D1FFF764FECF
:104C0000074B00221A7005E0054B1B780133DAB21E
:104C1000034B1A7000BF1037BD4680BD9C2B00208F
:104C2000A42B002080B582B000AF194B1B6818463A
:104C300002F0A4FF03465B017B607B68154A82FBA0
:104C400003129210DB17D31A1946232003F006F83B
:104C500005F0C8FF03461946222002F0FFFF04209A
:104C600002F0CAFF0346002B14BF01230023DBB26E
:104C7000002B09D0084B1A68074B1B681B682C33A4
:104C80001B6864211046984700BF0837BD4680BDA9
:104C90009805002067666666902B002080B500AFFF
:104CA0001948FFF78BFA042002F0A6FF0346002BF9
:104CB00007DD172002F0A0FF0346002B01DD0123D2
:104CC00000E00023002B01D0FFF7CCFB042002F012
:104CD00093FF0346012B0CBF01230023DBB2002B03
:104CE0000FD01E2002F088FF0346002B14BF0123C3
:104CF0000023DBB2002B04D0044B1B68184603F0E2
:104D00003BFB00BF80BD00BFE82B00209C2B002098
:104D100080B400AF00BFBD4680BC704780B500AF17
:104D2000104B1B78012B05D1FFF7F2FF0D4B002232
:104D30001A7005E00B4B1B780133DAB2094B1A707D
:104D4000094B1B78032B05D1FFF7A8FF064B002268
:104D50001A7005E0044B1B780133DAB2024B1A706B
:104D600000BF80BDAC2B0020AD2B002090B59DB0C6
:104D700000AFB74B1B780133DAB2B54B1A70B54BA5
:104D80005A78B34B1B789A4294BF01230023DAB2BE
:104D9000B14B1B78002B0CBF01230023DBB2134067
:104DA000DBB2002B12D0AA4B00221A70AA4B0022B1
:104DB0001A70AA4B1B780133DAB2A84B1A70A74BB2
:104DC0001B78052B02D9A54B01221A70A24B1B7828
:104DD000A04A9B0013445B781B01DAB29C4B1B7802
:104DE0001344DBB287F848309B4B1B781A46994B2B
:104DF00013F822301B01DAB2974B1B781344DBB255
:104E000087F84930944B1B781846914B1B781A460B
:104E1000934913461B019B1A9B004FF4E16200FB70
:104E200002F213440B4404331B88A7F84A308D4B1D
:104E30001878894B1B781C46854B1B781A46884985
:104E400013461B019B1A9B004FF4E16204FB02F224
:104E500013440B4430331B88194605F085FC034688
:104E60009BB2A7F84C307C4B1B781946784B1B78CB
:104E700018467D4A0B461B015B1A5B0003449B01ED
:104E8000134404331B8803F080039BB2A7F84E3011
:104E9000714B1B7818466E4B1B781A4670491346A7
:104EA0001B019B1A9B004FF4E16200FB02F21344CA
:104EB0000B4406331B88A7F84030674B1B78184615
:104EC000634B1B781A46664913461B019B1A9B00CD
:104ED0004FF4E16200FB02F213440B4408331B88D9
:104EE000A7F842305C4B1B781846594B1B781A4682
:104EF0005B4913461B019B1A9B004FF4E16200FBC8
:104F000002F213440B440A331B88A7F84430524B77
:104F10001B7818464E4B1B781A46514913461B0105
:104F20009B1A9B004FF4E16200FB02F213440B4416
:104F30000C331B88A7F84630474B1B781846444B68
:104F40001B781A46464913461B019B1A9B004FF4D7
:104F5000E16200FB02F213440B440E331B883B87D3
:104F60003D4B1B7818463A4B1B781A463C49134672
:104F70001B019B1A9B004FF4E16200FB02F21344F9
:104F80000B4410331B887B87334B1B781846304B00
:104F90001B781A46324913461B019B1A9B004FF49B
:104FA000E16200FB02F213440B4412331B88BB87FF
:104FB000294B1B781846264B1B781A46284913465E
:104FC0001B019B1A9B004FF4E16200FB02F21344A9
:104FD0000B4414331B88FB871F4B1B7818461C4B54
:104FE0001B781A461E4913461B019B1A9B004FF45F
:104FF000E16200FB02F213440B4416331B883B862C
:10500000154B1B781846124B1B781A461449134649
:105010001B019B1A9B004FF4E16200FB02F2134458
:105020000B4418331B887B860B4B1B781846084BA8
:105030001B781A460A4913461B019B1A9B004FF422
:10504000E16200FB02F213440B441A331B880DE0AB
:10505000AF2B0020580A0020B02B002004010020B4
:10506000880B0020682B0020D8150020BB86C04B81
:105070001B781846BF4B1B781A46BF4913461B01C5
:105080009B1A9B004FF4E16200FB02F213440B44B5
:105090001C331B88FB86012387F82830002387F800
:1050A0002930B34B1B781846B24B1B781A46B249CD
:1050B00013461B019B1A9B004FF4E16200FB02F2B6
:1050C00013440B4422331B887B85A94B1B7818465D
:1050D000A84B1B781A46A84913461B019B1A9B0034
:1050E0004FF4E16200FB02F213440B4424331B88AB
:1050F000BB859F4B1B7818469E4B1B781A469E49D2
:1051000013461B019B1A9B004FF4E16200FB02F265
:1051100013440B4426331B88FB85022387F8203079
:10512000002387F82130924B1B781846914B1B784F
:105130001A46914913461B019B1A9B004FF4E162EA
:1051400000FB02F213440B4428331B887B84884BFA
:105150001B781846874B1B781A46874913461B0154
:105160009B1A9B004FF4E16200FB02F213440B44D4
:105170002A331B88BB847E4B1B7818467D4B1B78DB
:105180001A467D4913461B019B1A9B004FF4E162AE
:1051900000FB02F213440B442C331B88FB840323D3
:1051A0003B7600237B76724B1B781846714B1B783D
:1051B0001A46714913461B019B1A9B004FF4E1628A
:1051C00000FB02F213440B442E331B887B83042321
:1051D0003B74674B1B781846664B1B781A46674929
:1051E0001346DB009B1A9B004FF4527200FB02F245
:1051F00013440B4408331B88DBB27B745C4B1B7875
:1052000018465C4B1B781A465B4913461B019B1AD8
:105210009B004FF4E16200FB02F213440B4436336F
:105220001B887B82524B1B781846524B1B781A46C0
:10523000514913461B019B1A9B004FF4E16200FB8E
:1052400002F213440B4438331B687B6105233B7225
:105250004B4B1878464B1B781C46464B1B781A461E
:10526000454913461B019B1A9B004FF4E16204FB66
:1052700002F213440B4422331B880122194605F025
:1052800017FA03467B723E4B1878394B1B781C4645
:10529000384B1B781A46384913461B019B1A9B0052
:1052A0004FF4E16204FB02F213440B4424331B88E5
:1052B0000222194605F0FCF90346BB72304B187800
:1052C0002B4B1B781C462B4B1B781A462A4913463E
:1052D0001B019B1A9B004FF4E16204FB02F2134492
:1052E0000B4426331B880322194605F0E1F90346D7
:1052F000FB72234B18781E4B1B781C461D4B1B78EA
:105300001A461D4913461B019B1A9B004FF4E1628C
:1053100004FB02F213440B4428331B880422194671
:1053200005F0C6F903463B73154B1878104B1B78F4
:105330001C46104B1B781A460F4913461B019B1A3B
:105340009B004FF4E16204FB02F213440B442A3346
:105350001B880522194605F0ABF903467B73084B01
:105360001878034B1B781C46024B1B781A4609E041
:10537000B02B0020AF2B0020880B002090120020C3
:10538000682B00208E4913461B019B1A9B004FF48B
:10539000E16204FB02F213440B442C331B88062207
:1053A000194605F085F90346BB73864B1878864B82
:1053B0001B781C46854B1B781A46814913461B01F6
:1053C0009B1A9B004FF4E16204FB02F213440B446E
:1053D0002E331B880722194605F06AF90346FB7332
:1053E000794B1B7819467A4A4FF4527301FB03F349
:1053F000134402331B88DBB23B71734B1B78194695
:10540000734A4FF4527301FB03F313441B88DBB25E
:105410007B716D4B1B7819466D4A4FF4527301FB3B
:1054200003F313440C331B881B0A9BB2DBB2BB7122
:10543000654B1B781946664A4FF4527301FB03F320
:1054400013440C331B881B0A9BB2DBB2FB7107F1C0
:105450004803184603F03EFB5B4B1B781846FEF7EB
:10546000F7FE0346002B4ED007F14003184603F029
:105470007DFB07F13803184603F0C8FB07F1300342
:10548000184603F013FC504B1B781A46514B9B5C9B
:10549000012B04D107F12803184603F057FC4A4BAF
:1054A0001B781A464B4B9B5C022B04D107F120035F
:1054B000184603F04BFC444B1B781A46454B9B5C4B
:1054C000032B04D107F11803184603F03FFC3E4BB1
:1054D0001B781A463F4B9B5C042B04D107F1100349
:1054E000184603F033FC384B1B781A46394B9B5C4B
:1054F000052B04D107F10803184603F027FC3B46AF
:10550000184603F049FC042002F076FB0346002B0A
:1055100014BF01230023DBB2002B00F053822A4B7F
:105520001B781846FEF794FE0346002B00F04A82D3
:10553000294B1B6800225A744FF6FF73A7F86E3090
:105540000023A7F86C304FF6FF73A7F86A300023EA
:10555000A7F8683000237B6600233B663B6E002B78
:105560003EDC3B6EDBB21846FEF772FE0346002BB4
:1055700021D00023FB65194A3B6E9B0013445B78E6
:105580001A46FB6D934216DA0D48FA6D396E1346D2
:105590001B019B1A9B004FF4E16201FB02F21344D2
:1055A000034404331B881A467B6E13447B66FB6DF1
:1055B0000133FB65DFE73B6E01333B66CEE700BF9F
:1055C000880B0020682B0020B02B0020AF2B002080
:1055D0009012002004010020902B0020580A002087
:1055E000674B1B78796E184605F09CF90246654BAF
:1055F0001B6892B2DA820023BB65634B1B78634A57
:105600009B0013445B781A46BB6D934280F27C8109
:1056100000237B655C4B1B7818465D49BA6D1346C9
:105620009B0013445B004FF4967200FB02F213449C
:105630000B4408331B781A467B6D934280F2AE8090
:10564000514B1B781A46534913461B019B1A5B00AA
:10565000BA6D13449B010B443E331B88194601224B
:105660007B6D02FA03F30B40002B40F38480464B22
:105670001B7818464849BA6D13461B019B1A5B00FC
:105680004FF4617200FB02F21A447B6D13445B001D
:105690000B44DB88B7F86C209A422AD23A4B1B782D
:1056A00018463D49BA6D13461B019B1A5B004FF427
:1056B000617200FB02F21A447B6D13445B000B44E1
:1056C000DB88A7F86C302E4B1B782E4A1468B7F88D
:1056D0006C201146184605F0F9F80346E386294B7D
:1056E0001B687A6D92B29A86264B1B68BA6D92B28D
:1056F0005A86254B1B7818462749BA6D13461B015D
:105700009B1A5B004FF4617200FB02F21A447B6D3E
:1057100013445B000B44DB88B7F86E209A422AD909
:10572000194B1B7818461C49BA6D13461B019B1A6E
:105730005B004FF4617200FB02F21A447B6D13446C
:105740005B000B44DB88A7F86E300D4B1B780D4ACD
:105750001468B7F86E201146184605F0B7F80346EE
:10576000A387084B1B687A6D92B25A87054B1B685A
:10577000BA6D92B21A877B6D01337B654AE700BF31
:10578000682B0020902B0020B02B0020580A00200E
:105790005C0A0020D8150020880B0020934B187855
:1057A000934B1B781C469349BA6D13461B019B1AF9
:1057B0009B004FF4E16204FB02F213440B442233DA
:1057C0001B880122194604F073FF034687F8533003
:1057D000864B1878864B1B781C468649BA6D134653
:1057E0001B019B1A9B004FF4E16204FB02F213447D
:1057F0000B4424331B880222194604F059FF034648
:1058000087F85230794B1878794B1B781C467949C8
:10581000BA6D13461B019B1A9B004FF4E16204FB17
:1058200002F213440B4426331B880322194604F06A
:105830003FFF034687F8513097F853309BB2B7F8D3
:105840006A209A4211D997F85330A7F86A306A4B08
:105850001B68B7F86A201A86674B1B680122DA8535
:10586000654B1B68BA6D92B29A8597F853309BB21C
:10587000B7F868209A4211D297F85330A7F86830E9
:105880005D4B1B68B7F868205A855B4B1B6801228B
:105890001A85594B1B68BA6D92B2DA8497F8523068
:1058A0009BB2B7F86A209A4211D997F85230A7F8FC
:1058B0006A30514B1B68B7F86A201A864E4B1B683A
:1058C0000122DA854C4B1B68BA6D92B29A8597F823
:1058D00052309BB2B7F868209A4211D297F85230F2
:1058E000A7F86830444B1B68B7F868205A85424BCC
:1058F0001B6801221A85404B1B68BA6D92B2DA848C
:10590000BB6D0133BB6578E63B4B1B689B8F19462B
:105910003A4804F031FE03461A46374B1B6892B2F0
:105920009A83354B1B68B7F868205A83324B1B6843
:1059300001221A75072002F05FF90246304B1B68FE
:1059400092B25A83092002F057F902462C4B1B6889
:1059500092B21A83284B1B68DB8E1946274804F045
:105960000BFE03461A46264B1B6892B29A84224BC2
:105970001B689B8F1946214804F0FEFD03461A461A
:105980001F4B1B6892B2DA841D4B1B68B7F9682065
:105990005A841B4B1B68B7F96A201A84184B1C6881
:1059A000B7F86A301946174804F0E6FD0346A383AA
:1059B000134B1C68B7F868301946124804F0DCFD38
:1059C0000346E383104B1B78012B05D1FFF72AF91F
:1059D0000D4B00221A7005E00B4B1B780133DAB235
:1059E000094B1A7000BF7437BD4690BD682B00206C
:1059F000B02B0020880B0020902B0020702B002063
:105A00009C2B0020802B0020AE2B002080B582B084
:105A100000AF0346FB71102002F0EEF80346DAB245
:105A2000024B1A7000BF0837BD4680BD682B0020AE
:105A300080B400AF044B00225A70034B00221A704E
:105A400000BFBD4680BC7047A405002080B582B071
:105A500000AF78600C4B5B781A4613465B0013442A
:105A6000DB00094A1344043318227968184602F00F
:105A700020FE054B5B780133DAB2034B5A7000BF4E
:105A80000837BD4680BD00BFA405002080B500AF2B
:105A90000D4B5B78002B15D00B4B1B781A46134629
:105AA0005B001344DB00084A13440433074A1268BE
:105AB0001146184602F032FF034B1B780133DAB26D
:105AC000014B1A7000BF80BDA40500209C0500207A
:105AD00080B586B000AFF860B9603B601346FB71DB
:105AE000FFF7A6FF0023FB75FB799B08BB75FB79CD
:105AF00003F00303002B02DDBB7D0133BB75FB68A4
:105B0000FA7DDA72FB68BA7D1A73F868FFF79EFFB8
:105B1000FB79002B34D0FB797B757B7D042B01D97D
:105B200004237B75FB6800221A73FB6800225A73FA
:105B3000FB6800229A73FB680022DA73FB680C335F
:105B40007A7D3968184602F0B4FDFA797B7DD31A64
:105B5000FB717B7D3A6813443B60FB7D0133FB7531
:105B6000FB79002B05D1FB7D803BDAB2FB68DA7252
:105B700002E0FB68FA7DDA72F868FFF767FFC7E7B3
:105B8000FFF784FF00BF1837BD4680BD90B5B1B0A8
:105B900000AFF860B9601346FB71002387F8B83096
:105BA000BB68C7F8B430002387F8B3300023A7F8E8
:105BB000B030002387F8AF30002387F8AE300023E1
:105BC00087F8AD30002387F8BF30002387F8BE3058
:105BD00007F144031846FEF701FBFB68B3F5B36F0A
:105BE00012D0FB68B3F5B36F00F2CE84FB6840F2CD
:105BF0009652934200F0C484FB6840F2975293425D
:105C000000F0BA8400F0C0BCD7F8B4301B7887F835
:105C1000B83007F15C030822D7F8B410184602F038
:105C200048FD97F8B830FF2B00F0D883FF2B00F326
:105C3000C784FE2B00F02182FE2B00F3C184212BB0
:105C40004CDC002B40F3BC84013B202B00F2B884D9
:105C500001A252F823F000BFE75C0008315D0008A4
:105C6000C1650008C1650008655D0008C1650008E0
:105C7000C1650008C1650008C1650008C16500086C
:105C8000C1650008C1650008C1650008C16500085C
:105C9000C1650008B15D0008C1650008C165000864
:105CA000C1650008C1650008C1650008C16500083C
:105CB000C1650008C1650008C1650008C16500082C
:105CC000C1650008C1650008C1650008C16500081C
:105CD000C16500081B5E0008015F0008FD2B00F095
:105CE000CA8100F06DBC97F85D30012B0DD197F89B
:105CF0005E30012B04D1C84B01221A7000F02EBC7B
:105D0000C54B07221A7000F029BC97F85D30022BB2
:105D100040F0248497F85E30012B04D1BE4B012261
:105D20001A7100F01BBCBC4B07221A7100F016BCA4
:105D300097F85D30012B08D197F85E3003F00F0320
:105D4000DAB2B54B5A7000F00BBC97F85D30022BFD
:105D500040F0068497F85E3003F00F03DAB2AE4BE2
:105D60005A71FDE397F85D30012B04D097F85D3050
:105D7000022B40F0F78397F85E30002B08D097F89D
:105D80005E30012B04D097F85E30022B40F0EA839E
:105D900097F85E301946052001F060FF97F85D30F6
:105DA000013B1946062001F059FF04F0FFFDD9E33D
:105DB00097F85D3003F00103002B03D09748FEF7FE
:105DC000DDF902E09548FEF7E9F997F85D3003F058
:105DD0000203002B03D09248FEF7D0F902E090486E
:105DE000FEF7DCF997F85D3003F00403002B03D0D5
:105DF0008C48FEF7C3F902E08A48FEF7CFF997F81E
:105E00005D3003F00803002B03D08748FEF7B6F996
:105E1000B1E38548FEF7C2F9ADE397F85D30013B89
:105E200087F8B33097F85E309BB203F00F03A7F802
:105E3000B03097F85F3003F00F0387F8AF3097F872
:105E4000AF30013B87F8BF3097F8AF3087F8BE30EE
:105E500097F8B330002B04D097F8B330012B40F003
:105E6000838397F85F30002B0AD1002387F8BF3077
:105E700097F8B330684A9B0013445B7887F8BE30CC
:105E80000023A7F8BC3097F85E30012B03D1012323
:105E9000A7F8BC3007E097F85E30002B40F0918304
:105EA0000023A7F8BC3097F8BF3087F8BB3097F8CD
:105EB000BB2097F8BE309A4280F0568397F8B32003
:105EC00097F8BB10594813461B019B1A5B000B4403
:105ED000002200F8232097F8B32097F8BB1053480E
:105EE00013461B019B1A5B000B449B000344B7F84D
:105EF000BC205A8097F8BB30013387F8BB30D6E717
:105F000097F85D3087F8B33097F85E30A7F8B03077
:105F100097F85F3003F00F0387F8AF3097F8AF3092
:105F2000013B87F8BF3097F8AF3087F8BE3097F85D
:105F3000B330012B04D097F8B330022B40F0168316
:105F400097F8B330013B87F8B330002387F8AE30C1
:105F50000E2387F8AD3097F85F30002B0AD100236D
:105F600087F8BF3097F8B3302B4A9B0013445B7817
:105F700087F8BE3097F8BF3087F8BA3097F8BA2064
:105F800097F8BE309A4280F0F18297F8AE3087F8E9
:105F9000B93097F8B92097F8AD309A4265D297F8A2
:105FA000B30097F8BA2097F8B910214C1346DB00DC
:105FB0009B1A5B004FF4D27200FB02F213440B44B5
:105FC00097F8B92004F82320B7F8B0305AB297F800
:105FD000B930012101FA03F35BB213405BB287F8D9
:105FE000643097F86430002B24D097F8B30097F80A
:105FF000BA2097F8B9100E4C1346DB009B1A5B00D1
:106000004FF4D27200FB02F213440B449B00234472
:1060100001225A8023E000BF580A0020F02B002004
:10602000F82B0020002C0020082C0020581D0020F8
:10603000D01D002097F8B30097F8BA2097F8B91050
:10604000BC4C1346DB009B1A5B004FF4D27200FB82
:1060500002F213440B449B00234400225A8097F819
:10606000B930013387F8B93093E797F8BA30013384
:1060700087F8BA3082E7FFF709FD97F85D30002B0B
:1060800000F0768297F85D30012B02D101F081FC9F
:106090006EE297F85D30022B02D104F087FC67E2D4
:1060A00097F85D30032B29D101F0C6FE034687F82F
:1060B000663001F0AFFE034687F8653040F2995331
:1060C0007B640823BB64002387F85430FE2387F8E1
:1060D0004C3097F85D3087F84D3097F8653087F889
:1060E0004E3097F8663087F84F30934B1A6807F1B7
:1060F00044031146184602F011FC39E297F85D306E
:10610000042B45D197F85E3087F8723097F87230DB
:10611000184601F0C9FD034687F8713097F87130D1
:10612000184601F0F9FD0346012B0CBF01230023A3
:10613000DBB2002B00F01C8297F87130184601F09A
:10614000D7FDF866FB6E5B68BB66B86E02F05DFA61
:10615000034687F8673040F299537B640823BB6499
:10616000002387F85430FE2387F84C3097F85D30D1
:1061700087F84D3097F8723087F84E3097F86720DF
:1061800007F15C0107F14400BB6EFFF7A1FCEFE1F2
:1061900097F85D30052B45D197F85E3087F87F3052
:1061A00097F87F30184601F07FFD034687F87E3070
:1061B00097F87E30184601F0AFFD0346012B0CBF67
:1061C00001230023DBB2002B00F0D28197F87E3050
:1061D000184601F08DFDB867BB6F9B687B67786FD1
:1061E00002F013FA034687F8733040F299537B6448
:1061F0000823BB64002387F85430FE2387F84C3013
:1062000097F85D3087F84D3097F87F3087F84E303B
:1062100097F8732007F15C0107F144007B6FFFF7EB
:1062200057FCA5E197F85D30062B40F0878097F882
:106230005E3087F8863097F88630184601F034FDD6
:10624000034687F8853097F88530184601F064FDDD
:106250000346012B0CBF01230023DBB2002B00F00F
:10626000878197F88530184601F042FDC7F8800015
:1062700040F299537B640823BB64002387F85430B1
:10628000FE2387F84C3097F85D3087F84D3097F84B
:10629000863087F84E30012387F84F30D7F88030AA
:1062A000DB685B11BB6107F1180107F144030C3394
:1062B0000422184602F0FDF91F4B1A6807F1440347
:1062C0001146184602F02AFB022387F84F30D7F810
:1062D00080301B695B117B6107F1140107F14403F6
:1062E0000C330422184602F0E4F9134B1A6807F144
:1062F00044031146184602F011FB032387F84F3080
:1063000097F88530184601F077FC03463B6107F1AA
:10631000100107F144030C330422184602F0C9F9B6
:10632000054B1A6807F144031146184602F0F6FAC5
:106330001EE100BFD01D00209C05002097F85D30B5
:10634000072B40F0158197F85E3087F8933097F867
:106350009330184601F0A8FC034687F8923097F86E
:106360009230184601F0D8FC0346012B0CBF0123E4
:106370000023DBB2002B00F0FB8097F89230184628
:1063800001F0B6FCC7F88C00D7F88C301B68C7F852
:106390008830D7F8880002F038F9034687F887304C
:1063A00040F299537B640823BB64002387F8543080
:1063B000FE2387F84C3097F85D3087F84D3097F81A
:1063C000933087F84E3097F8872007F15C0107F18A
:1063D0004400D7F88830FFF77BFBC9E097F85F30BF
:1063E000012B4CD197F85D301B0297F85E201344C7
:1063F000C7F89C30D7F89C0001F056FC034687F89C
:106400009B3097F89B30184601F0F6FBC7F89400D4
:1064100040F299537B640823BB64002387F854300F
:10642000FF2387F84C3097F85D3087F84D3097F8A8
:106430005E3087F84E3097F85F3087F84F30D7F8E6
:1064400094301B16DBB287F85030D7F894301B1409
:10645000DBB287F85130D7F894301B12DBB287F8E3
:106460005230D7F89430DBB287F85330564B1A6865
:1064700007F144031146184602F050FA7AE097F803
:106480005F30022B76D197F85D301B0297F85E20C3
:106490001344C7F8A830D7F8A80001F005FC03465C
:1064A00087F8A73097F860301A0697F861301B0418
:1064B0001A4497F862301B02134497F86320134480
:1064C000C7F8A030D7F8A8300A2B04D8FDF7A8FEEB
:1064D0000346002B01D0012300E00023002B06D04F
:1064E00097F8A730D7F8A010184601F0B7FB40F294
:1064F00099537B640823BB64002387F85430FF233F
:1065000087F84C3097F85D3087F84D3097F85E305B
:1065100087F84E3097F85F3087F84F30D7F8A030C3
:106520001B16DBB287F85030D7F8A0301B14DBB253
:1065300087F85130D7F8A0301B12DBB287F8523001
:10654000D7F8A030DBB287F853301F4B1A6807F139
:1065500044031146184602F0E1F90BE000BF2FE0BA
:1065600000BF2DE000BF2BE000BF29E000BF27E007
:1065700000BF25E000BF23E0642387F8B83020E0A7
:106580006E2387F8B8301CE0FB683B63FB793B6403
:106590000E4B18680D4B1B681B6828331B6807F1EE
:1065A0003001BA689847FB68FB61FB79FB62084BD6
:1065B0001B6807F11C01BA68184601F01FFF00E0D4
:1065C00000BFC437BD4690BD9C050020902B002025
:1065D0009C2B002080B500AF02223F493F4802F0CB
:1065E000DBFC03223C493E4802F0D6FC00223A493B
:1065F0003C4802F0D1FC012237493B4802F0CCFC78
:1066000000223A493A4802F0C7FC06223749394885
:1066100002F0C2FC042304223749384802F0BAF8D9
:1066200004234FF400423649364802F0B3F80423FD
:106630004FF480423249344802F0ACF804234FF45E
:1066400000522D49314802F0A5F804234FF40062AE
:1066500029492F4802F09EF804234FF4806228490C
:106660002C4802F097F804234FF4006224492A488A
:1066700002F090F8022310222149284802F08AF8FB
:10668000022320221E49264802F084F802234022D9
:106690001B49244802F07EF8022380221849224830
:1066A00002F078F804234FF480522049204802F089
:1066B00071F802234FF4007207491E4802F06AF88D
:1066C00004234FF480720E491B4802F063F802F075
:1066D000F9FB00BF80BD00BF00100140C02E0020AC
:1066E000C42E0020C82E0020CC2E0020000801401F
:1066F000D02E0020D42E002000180140E82B0020CE
:1067000000140140F02B0020F82B0020002C00206A
:10671000082C0020102C0020182C0020202C0020F9
:10672000282C0020302C0020382C0020000C0140A8
:10673000402C0020482C0020502C002080B500AFB9
:10674000034B1B68184601F0C3F900BF80BD00BFB2
:106750009805002080B500AF002009F039FB034BFD
:106760001B680133014A136000BF80BD6C2B002001
:10677000F0B5ADF6446D02AF00F0D2FF01F0F3F8D2
:10678000FFF728FFC5494FF0007009F0E1F801F06C
:1067900013F801F0A5F804F0D7F90346B3F1FF3F71
:1067A0000CBF01230023DBB2002B01D001F0F1F874
:1067B000FDF736FD0346002B0CBF01230023DBB29F
:1067C000002B08D00421012001F028FA03461946C5
:1067D000042001F043FA0021012001F01FFA0346D2
:1067E0001946002001F03AFA4FF4FF71012001F040
:1067F00035FA2420FFF70AF941F2883009F0CCF885
:1068000007F668030122A649184604F07DFA052020
:1068100001F0F2F90346DAB207F52973A1491846E7
:1068200004F072FAA04A07F6680313609F4A07F55E
:106830002973136007F668039D49184604F0E8F9C8
:1068400007F529739A49184604F0E2F907F6680338
:1068500000224FF4B361184604F0E8F907F6680324
:10686000002240F29751184604F0E0F907F6680359
:10687000002240F29651184604F0D8F907F5297322
:1068800000224FF4B361184604F0D0F907F52973DC
:10689000002240F29751184604F0C8F907F5297311
:1068A000002240F29651184604F0C0F9042001F08D
:1068B000A3F90346012B0CBF01230023DBB2002BFD
:1068C0000DD01B2001F098F90346DAB23B1D1146AA
:1068D000184606F0B1FD774A3B1D13603BE00420EB
:1068E00001F08AF90346022B0CBF01230023DBB21F
:1068F000002B30D0112001F07FF90346012B0CBF93
:1069000001230023DBB2002B0DD01B2001F074F912
:106910000346DAB23B1D1146184607F0A1F9664A54
:106920003B1D136017E0112001F066F90346022BAE
:106930000CBF01230023DBB2002B0CD01B2001F085
:106940005BF90346DAB23B1D1146184607F0FAFE22
:106950005A4A3B1D13601C2001F04EF90346DCB27D
:106960001E2001F049F90346DAB207F50273214609
:10697000184601F0D3FA524A07F502731360514BDF
:10698000514A1A604F4B514A5A604E4B20225A725C
:106990004C4B20221A724B4B01229A814C4B4D4A90
:1069A0001A604B4B4C4A5A60494B20225A72484B52
:1069B00020221A72464B0A229A8101F04DFF0620CE
:1069C00001F01AF90346DBB2184601F081FF07F522
:1069D000F0734249184600F0FCFF414A07F5F07396
:1069E000136007F5F0730A223E49184601F012F8C9
:1069F00007F5F07332223C49184601F00BF807F511
:106A0000F073FA223949184601F004F807F63863A2
:106A1000A3F65C4340F201121A8007F63863A3F52F
:106A2000466340F201121A80012387F8303E0023AA
:106A300087F8373E4FF47A73A7F82E3E07F638638F
:106A4000A3F6614300221A7002F078FB002387F856
:106A5000363E97F8363E002B4CD197F8363E244A06
:106A60009B00134400225A7097F8363E204A9B0040
:106A7000134401229A7097F8363E1D4A072102F806
:106A8000231097F8363E1A4A9B0013440122DA700D
:106A900097F8363E013387F8363EDAE7C0004010FB
:106AA00000640040006800409C050020A005002014
:106AB0008D5B0008902B0020942B0020982B002049
:106AC0009C2B0020702B00200000002040000020A4
:106AD000802B002080000020C00000200004004027
:106AE00098050020D54800086D4D00081D4D000890
:106AF000580A0020DF4B01221A70DE4B02225A7026
:106B0000042001F079F80346022B0CBF0123002377
:106B1000DBB2002B09D0122001F06EF80346DAB286
:106B2000D44B5A70D34B01221A70102001F064F834
:106B30000346DAB2D04B1A700121002002F068FB44
:106B400002F062FD02F07EFD02F0A4FD02F0E8FD1D
:106B5000002387F8353E97F8353E002B40F05685E8
:106B600097F8353E07F63862A2F65C42D25C0132F5
:106B7000D1B207F63862A2F65C42D15497F8353E9E
:106B800007F63862A2F65C42D25C97F8353E02F016
:106B90000F02D1B207F63862A2F65C42D15497F8E0
:106BA000353EB44A12F82330013B082B00F2C5846D
:106BB00001A252F823F000BFDD6B0008936E0008BD
:106BC000F56E00083B750008F57400083B75000879
:106BD0003B750008D57100080B73000897F8353E27
:106BE000184602F0A9FC02F02DFD02F053FD02F060
:106BF00097FD012387F8373E97F8353E9D4A9B0065
:106C000013445B7897F8372E9A4263D897F8351E6D
:106C100097F8373E5A1E994813469B0013445B0071
:106C20004FF4967201FB02F2134403440433002232
:106C30001A8097F8351E97F8373E5A1E8F4813462C
:106C40009B0013445B004FF4967201FB02F2134465
:106C50000344023300221A8097F8351E97F8373E16
:106C60005A1E864813469B0013445B004FF49672ED
:106C700001FB02F213440344063300221A8097F802
:106C8000351E97F8373E5A1E7C4813469B00134426
:106C90005B004FF4967201FB02F213440344083385
:106CA00000221A7097F8351E97F8373E5A1E73481F
:106CB00013469B0013445B004FF4967201FB02F2F3
:106CC0001344034400221A7097F8373E013387F8C3
:106CD000373E91E797F8353E9B00664A13440133EF
:106CE00007F2D71297F8351E184602F053FC0346F8
:106CF000002B00F00D84012387F8373E97F8353ECE
:106D00005C4A9B0013445B7897F8372E9A4200F256
:106D1000B98097F8373E013BDAB297F8355E97F8BD
:106D2000373E5C1E104603F089F903461846534966
:106D300023469B0023445B004FF4967205FB02F24E
:106D400013440B44043302461A8097F8373E013B44
:106D5000DAB297F8355E97F8373E5C1E11460D2083
:106D600002F09EFF03461846444923469B002344F5
:106D70005B004FF4967205FB02F213440B4402339E
:106D800002461A8097F8351E97F8373E5A1E3B4840
:106D900013469B0013445B004FF4967201FB02F212
:106DA0001344034404331A8897F8355E97F8373E46
:106DB0005C1E104603F03FFB034618462F4923464E
:106DC0009B0023445B004FF4967205FB02F21344D0
:106DD0000B44083302461A7097F8373E013BDAB28B
:106DE00097F8355E97F8373E5C1E104603F047F97A
:106DF00003461846214923469B0023445B004FF479
:106E0000967205FB02F213440B44063302461A80C5
:106E100097F8351E97F8373E5A1E184813469B00C0
:106E200013445B004FF4967201FB02F213440344D7
:106E300001221A70104B1A7897F8354E97F8373EA2
:106E40005D1E97F8373E1946104603F0EFFC0346E7
:106E500019460B4A23461B011B1B5B002B449B015D
:106E600013443E330A461A8097F8373E013387F8B9
:106E7000373E43E7580A0020682B00205C0A0020B8
:106E8000D815002097F8353ECB4A022102F823108E
:106E90003EE397F8353E184602F04EFBC748FDF733
:106EA0007DF941F6FF71122003F036F809211E200A
:106EB00003F032F80621512003F02EF897F8353E02
:106EC000184602F039FB97F8353E1946002002F0CB
:106ED00043FB0346002B06D097F8353EB64A052102
:106EE00002F8231029E397F8353EB34A032102F84C
:106EF000231022E3B148FDF741F997F8353E1846D3
:106F000002F01AFB03F0B0FA012387F8373E97F836
:106F1000353EA94A9B0013445B7897F8372E9A4276
:106F200000F2F58097F8373E013BDBB2184603F0DC
:106F3000A3FA0346002B7FD097F8373E013BDDB222
:106F400097F8350E97F8373E5A1E97F8354E97F852
:106F5000373E591E0B461B015B1A9B004FF4E16143
:106F600004FB01F10B4496491944964C13469B00CF
:106F700013445B004FF4967200FB02F21344234467
:106F800000911A6811465A6810461A89002362F364
:106F90000F030246284603F08CF897F8373E013B72
:106FA000DDB297F8352E97F8373E591E86481346BE
:106FB0001B019B1A5B000B449B0103443E331E885C
:106FC00097F8350E97F8373E5A1E97F8354E97F8D2
:106FD000373E591E0B461B015B1A9B004FF4E161C3
:106FE00004FB01F10B4476491944764C13469B008F
:106FF00013445B004FF4967200FB02F213442344E7
:10700000019119680A46586801461B89ADF800309D
:107010000B463146284603F074F80346002B0CBF9C
:1070200001230023DBB2002B06D097F8353E624ADD
:10703000052102F823106AE097F8373E013BDDB2E4
:1070400097F8350E97F8373E5A1E97F8354E97F851
:10705000373E591E0B461B015B1A9B004FF4E16142
:1070600004FB01F10B4456491944564C13469B004E
:1070700013445B004FF4967200FB02F21344234466
:1070800000911A6811465A6810461A89002362F363
:107090000F030246284603F0E1F897F8373E013B1C
:1070A000DDB297F8354E97F8373E5A1E97F8350EF1
:1070B00097F8373E591E0B461B015B1A9B004FF495
:1070C000E16100FB01F10B443D4919443F4B187845
:1070D0003C4E13469B0013445B004FF4967204FB36
:1070E00002F213443344019000911A6811465A6821
:1070F00010461A89002362F30F030246284603F064
:10710000D5F897F8373E013387F8373EFFE601237D
:1071100087F8373E97F8353E274A9B0013445B7843
:1071200097F8372E9A4200F2F58197F8373E013BE7
:10713000DDB297F8350E97F8373E5A1E97F8354E60
:1071400097F8373E591E0B46DB005B1A9B004FF445
:10715000527104FB01F10B441D491944194C1346AB
:107160009B0013445B004FF4967200FB02F2134441
:10717000234400911A6811465A6810461A89002360
:1071800062F30F030246284603F0F9F80346002B8A
:107190000CBF01230023DBB2002B07D097F8353E4C
:1071A000054A052102F8231000BFB3E197F8373EE6
:1071B000013387F8373EADE7580A0020E82B00205E
:1071C000880B00205C0A0020D8150020682B0020C6
:1071D00090120020012387F8373E97F8353ECF4ABA
:1071E0009B0013445B7897F8372E9A4200F2948103
:1071F00097F8352E97F8373E591E13461B019B1AF8
:107200005B000B449B00C64A981897F8352E97F8F8
:10721000373E591E13461B019B1A5B000B449B0013
:10722000C04A13440422194601F061FA0346012BB7
:107230000CBF01230023DBB2002B60D097F8352E62
:1072400097F8373E591E13461B019B1A5B000B44EF
:107250009B00B34A981897F8352E97F8373E591E79
:1072600013461B019B1A5B000B449B00AD4A134461
:107270000422194601F01DFA97F8352E97F8373E8B
:10728000591EA74813461B019B1A5B000B4410F8BC
:107290002330002B33D097F8373E013BD8B297F814
:1072A000352E97F8373E591E9E4C13461B019B1AEC
:1072B0005B000B449B0023445B88194602F06AFF85
:1072C0000346002B1BD097F8352E97F8373E591EF2
:1072D000944813461B019B1A5B000B44002200F8E4
:1072E000232097F8352E97F8373E591E8C481346C1
:1072F0001B019B1A5B000B44002200F8232097F827
:10730000373E013387F8373E67E7012387F8373E7A
:1073100097F8353E814A9B0013445B7897F8372EE7
:107320009A4200F2098197F8351E97F8373E5A1EA7
:107330001346DB009B1ADB004FF4D26201FB02F222
:107340001344794A981897F8351E97F8373E5A1E15
:107350001346DB009B1ADB004FF4D26201FB02F202
:107360001344724A13443822194601F0C0F9034607
:10737000012B0CBF01230023DBB2002B00F0B480F3
:1073800097F8351E97F8373E5A1E1346DB009B1AB6
:10739000DB004FF4D26201FB02F21344634A9818F7
:1073A00097F8351E97F8373E5A1E1346DB009B1A96
:1073B000DB004FF4D26201FB02F213445A4A134439
:1073C0003822194601F075F90023A7F8323E002350
:1073D00087F8313E97F8313E052B65D897F8350E82
:1073E00097F8373E5A1E97F8311E4F4C1346DB0074
:1073F0009B1A5B004FF4D27200FB02F213440B4461
:1074000014F82330002B49D097F8350E97F8373E03
:107410005A1E97F8311E444C1346DB009B1A5B0042
:107420004FF4D27200FB02F213440B449B0023443E
:107430005B881A4697F8313E02FA03F39AB2B7F81E
:10744000323E1344A7F8323E97F8350E97F8373E90
:107450005A1E97F8311E344C1346DB009B1A5B0012
:107460004FF4D27200FB02F213440B44002204F8E2
:10747000232097F8350E97F8373E5A1E97F8311E9D
:107480002A4C1346DB009B1A5B004FF4D27200FBC0
:1074900002F213440B44002204F8232097F8313EF3
:1074A000013387F8313E95E797F8373E013BD8B274
:1074B00097F8351E97F8373E5A1E1D4C13469B0011
:1074C00013445B004FF4967201FB02F21344234411
:1074D000B7F8321E1C6822465D682C461B89ADF841
:1074E0000030234602F078FE97F8373E013387F8E4
:1074F000373E0DE70F48FCF741FE40F6C41001F09F
:107500006AFE97F8353E054A012102F8231014E07F
:1075100000BF12E000BF10E000BF0EE0580A0020DC
:1075200060240020581D0020D01D0020D8240020F9
:107530005C0A0020E82B002000BF97F8353E384A4F
:1075400012F82330032B46D197F8352E13461B0132
:107550009B1ADB00334A981897F8352E13461B0107
:107560009B1ADB00304A13447822194601F0BFF819
:107570000346012B0CBF01230023DBB2002B06D0F6
:1075800097F8353E264A082102F8231037E097F88D
:10759000353E4FF4D26202FB03F3244A981897F861
:1075A000353E4FF4D26202FB03F3214A13444FF4F9
:1075B000D262194601F09BF80346012B0CBF012350
:1075C0000023DBB2002B1AD097F8353E144A09216C
:1075D00002F8231013E097F8353E114A12F82330D1
:1075E000082B06D097F8353E0D4A12F82330092BA8
:1075F00005D197F8353E0A4A032102F8231097F87F
:10760000353E013387F8353EFFF7A5BA08F0ECF9AF
:107610000848FCF7D3FD322001F0DDFDFFF798BAF2
:10762000580A0020581D002060240020D01D002092
:10763000D8240020E82B002080B582B000AF78600D
:1076400039607B68012B0DD13B684FF6FF72934286
:1076500008D10648FCF7CFFD054802F077FF054842
:1076600002F074FF00BF0837BD4680BDA4050020AE
:10767000702B0020802B002080B500AF4FF6FF71EB
:107680000120FFF7D9FF80BD80B500AF08F0F8F802
:10769000022008F0FDF8042008F0E2F9042008F0C8
:1076A000D7F9002008F03CFA032008F0D9F90320AC
:1076B00008F0CEF9002008F0CBFA032008F0AAFA6F
:1076C000042008F0BBFA002008F0AEFA002008F011
:1076D000F7F9062008F02EFA012008F035FA00200C
:1076E00008F03CFA002008F0BBF9002008F0B0F9DF
:1076F000022008F015FA054B054A1A60054B064AA8
:107700001A60064B024A1A6000BF80BD8C0500203B
:107710000090D003900500200048E8019405002067
:1077200080B500AFFFF7B0FF40F2023008F09AFAE0
:1077300040F2033008F096FA4FF4417008F092FAE4
:1077400040F2053008F08EFA40F2063008F08AFA6E
:1077500040F20B3008F086FA40F2813008F082FAED
:107760004FF4207008F07EFA40F2812008F07AFA97
:1077700040F2093008F076FA40F2862008F072FAFA
:107780004FF4407008F06EFA40F2993008F06AFA4F
:1077900040F29A3008F066FA40F28E3008F062FA51
:1077A00000BF80BD80B500AF024808F09AFB00BF63
:1077B00080BD00BF0038004080B582B002AF4FF4FA
:1077C000005302220321164808F092F84FF40043B8
:1077D00002220321124808F08BF84FF48043012263
:1077E00000210F4808F084F80E4808F045FB0E4BC6
:1077F00000221A600023019300230093002300223B
:107800001021084808F072FB064808F057FB0548AD
:1078100008F05DFB034808F047FB00BFBD4680BD94
:10782000000C0140003800401C38004080B584B096
:1078300000AF786039600421254807F011FF254B1F
:107840001B6803F04103002B14BF01230023DBB2AC
:10785000002B04D0204B1B68DBB2FB73EFE71E4A02
:1078600004211B4807F077FF7B681A46042118485B
:1078700007F07AFF3B689BB21A460421144807F0D0
:107880007CFF0421124807F039FF0421104807F05B
:107890001FFF002204210E4807F00DFF00220421E3
:1078A0000B4807F0FBFE4FF440520421084807F054
:1078B000E8FE0421064807F02AFF0421044807F0E7
:1078C00038FF064808F008FB00BF1037BD4680BDF2
:1078D00000000240083800400C38004000380040EA
:1078E00080B500AFF021112008F06EFC112008F0E7
:1078F0005DFCF021102008F067FC102008F056FC19
:1079000000210E2008F060FC0E2008F04FFC202122
:107910000D2008F059FC0D2008F048FC00211A2029
:1079200008F052FC1A2008F041FC00211D2008F04C
:107930004BFC1D2008F03AFC142008F037FCE02135
:10794000142008F041FC132008F030FCE021132043
:1079500008F03AFCE021032008F036FC032008F090
:1079600025FC00BF80BD80B500AF08F09BF94FF447
:107970001C71032008F066FA002008F0F7F90020D7
:1079800008F026FA002008F001FA08F099F900BF83
:1079900080BD80B500AF00F0E3F90121052000F0C3
:1079A0005DF90021062000F059F900211C2000F0AB
:1079B00055F900211B2000F051F90221022000F0AE
:1079C0004DF90121032000F049F902F0EFFF00BF5B
:1079D00080BD80B582B000AF786039607B683A685E
:1079E0001A62386808F0A3FA386808F0A5FA40F27D
:1079F0007F21386808F0AFFA4FF6FF71386808F059
:107A0000ACFA7B6800225A627B6818460837BD468C
:107A100080BD000080B584B000AFF860B960134647
:107A2000FB80FB685B6A032B4BDCFB681B6A184618
:107A300008F08CFAFB68186AFB685B6A234AD35C1F
:107A40000122194608F08BFAFB68186AFB685B6A2A
:107A50001E4AD35C0022194608F047FBFB685A6AAD
:107A6000FB68B96843F82210FB685A6AFB8819461C
:107A700089000B4419468800194603460B449B00B5
:107A800099B2FB68083223F81210FB681A6AFB6887
:107A90005B6A022101FA03F31946104608F03AFA2C
:107AA000FB681B6A0021184608F031FBFB681B6A63
:107AB000184608F046FAFB685B6A5A1CFB685A6273
:107AC00000E000BF1037BD4680BD00BFF8010108CF
:107AD00080B584B000AF78600023FB607B685B6A90
:107AE000FA689A4240DA7B681A6A0221FB6801FA56
:107AF00003F31946104608F011FA0346002B2FD065
:107B00007B681B6A184608F000FB03467B81FB6814
:107B10009A007B681B6A134434331B687A68F968DF
:107B2000083132F811201046FA6891007A68126A1A
:107B30000A443432034413607B68FA6853F82230F5
:107B400098477B681B6A184608F0DFFA03469AB22A
:107B50007B89D31A99B27B68FA680C3223F8121029
:107B6000FB680133FB60B9E77B681B6A1E2118467E
:107B700008F0DAF900BF1037BD4680BD80B487B089
:107B800000AF786000237B6100233B617B685B6A08
:107B90003A699A421ADA7B683A690C3233F8123041
:107BA0001A4613469B0013445B0019467B683A69EA
:107BB000083233F8123091FBF3F3FB607A69FB680B
:107BC00013447B613B6901333B61DFE77B69184606
:107BD0001C37BD4680BC704780B483B000AF0346FD
:107BE000FB71FB79034A52F8233018460C37BD4627
:107BF00080BC7047F804002080B483B000AF034617
:107C0000FB71FB79044A52F823305B1118460C379C
:107C1000BD4680BC704700BFF804002080B586B028
:107C200000AF03460A46FB711346BB71FB79184649
:107C300002F0A0FE78617B693B61BB79396907F18D
:107C40000802DB000B4493E8030082E80300FB68B2
:107C50005B0918461837BD4680BD000080B483B06C
:107C600000AF03463960FB71FB793A685201044961
:107C700041F8232000BF0C37BD4680BC704700BFD1
:107C8000F804002080B483B000AF03463960FB7174
:107C9000FB7904493A6841F8232000BF0C37BD4600
:107CA00080BC7047F804002080B487B000AF7860D3
:107CB0000023FB750D4B3B610023FB60FB68232B0E
:107CC0000EDC3B699B697A689A4202D1FB68FB75BE
:107CD00006E0FB680133FB603B691C333B61EDE769
:107CE000FB7D18461C37BD4680BC7047080100204C
:107CF00080B483B000AF0346FB71FA791346DB0012
:107D00009B1A9B00034A134418460C37BD4680BC9F
:107D1000704700BF0801002080B483B000AF034665
:107D2000FB71FA790D491346DB009B1A9B000B444B
:107D30000C331968FA7909481346DB009B1A9B003B
:107D4000034410331B68994214BF01230023DBB2A4
:107D500018460C37BD4680BC704700BF08010020A4
:107D600080B500AFFF21002000F002F800BF80BD09
:107D700080B584B000AF03460A46FB711346BB7161
:107D8000114BFB600023BB60BB68232B18DCFB6836
:107D90009A69FB799A420CD9FB689A69BB799A4235
:107DA00007D2BB68DAB2FB685B6919461046FFF779
:107DB00069FFBB680133BB60FB681C33FB60E3E712
:107DC00000BF1037BD4680BD0801002080B483B0DD
:107DD00000AF03460A46FB711346BB71FB790449A9
:107DE000BA79CA5400BF0C37BD4680BC704700BF8B
:107DF000B42B002080B483B000AF0346FB71FB7945
:107E0000034AD35C18460C37BD4680BC704700BFA0
:107E1000B42B002080B483B000AF0023FB71054B6E
:107E20003B603B689B69DBB218460C37BD4680BCA3
:107E3000704700BF0801002080B584B000AF002368
:107E4000FB71134BFB600023BB60BB68232B17DC6B
:107E5000BB68DBB21846FFF75FFF0346012B14BF78
:107E600001230023DBB2002B03D0FB681C3BFB602B
:107E700006E0BB680133BB60FB681C33FB60E4E7D2
:107E8000FB689B69DBB218461037BD4680BD00BF5A
:107E90000801002080B483B000AF786039607B684F
:107EA000012B09D13B684FF6FF72934204D1054B79
:107EB0001B68054AC2F8C03300BF0C37BD4680BC02
:107EC000704700BF880500200801002080B500AF82
:107ED0004FF6FF710120FFF7DDFF80BD80B483B056
:107EE00000AF78607B6800225A807B6800229A800D
:107EF0007B6818460C37BD4680BC704780B483B0A1
:107F000000AF78607B6800225A807B6800229A80EC
:107F10007B6818460C37BD4680BC704780B582B080
:107F200000AF78600B46FB701346BB707B68184649
:107F300006F080FF264A7B681A607B68002283F87F
:107F400030207B68002283F837207B683A3318465C
:107F5000FFF7C4FF7B6848331846FFF7CFFF7B6805
:107F60000022A3F860207B680022A3F862207B68CF
:107F700000229A667B68002283F86C207B68F022DE
:107F8000A3F86E207B680022A3F870207B68002293
:107F9000A3F87220FB78184603F068F802467B6865
:107FA0005A677B685B6F00220A49184602F03EFE62
:107FB0007B68BA7883F838207B6810331C22002154
:107FC000184600F05CFB7B6818460837BD4680BD4C
:107FD00090060108E550FF1880B483B000AF7860C8
:107FE0007B689B6D5A1C7B689A6500BF0C37BD4649
:107FF00080BC704780B485B000AF78600B46FB70E2
:10800000FB78012B0FD17B6893F84830FB81FB890B
:1080100003F00403FB81FB89002B0CBF0123002329
:108020007B737B7B01E000BF002318461437BD46FD
:1080300080BC704780B582B000AF78607B689B7968
:10804000022B29D0022B34DC002B02D0012B0BD0C9
:108050002FE07B689B6D1C4A13607B689B79013322
:10806000DAB27B689A7129E07B6893F83830194658
:108070007868FFF7BFFF0346002B1ED07B689A6D20
:10808000114B1B6864339A4217D37B689B79013389
:10809000DAB27B689A7110E07B680022A3F8702046
:1080A0007B680022A3F872207B6863229A71012307
:1080B00005E07B6800229A7100E000BF00231846AB
:1080C0000837BD4680BD00BFD82B002080B483B0E8
:1080D00000AF7860012318460C37BD4680BC70475E
:1080E00080B582B000AF78607B689B7A022B33D07A
:1080F000022B38DC002B02D0012B15D033E07B683B
:10810000B3F86030312B04D87B6893F83030002B03
:108110002ED17B689B6D1A4A13607B689B7A013372
:10812000DAB27B689A7223E07B6893F8383019469C
:108130007868FFF75FFF0346002B1BD07B689A6DC2
:108140000F4B1B6832339A4214D37B689B7A0133FE
:10815000DAB27B689A720DE07B689B7A0133DAB2FF
:108160007B689A7207E07B6800229A72012303E021
:1081700000BF00E000BF002318460837BD4680BDA1
:10818000DC2B002080B483B000AF78607B689A6DF0
:10819000184B1B689A4210D07B689B6D154A136080
:1081A0007B68B3F87030002B07D07B68B3F8703071
:1081B000013B9AB27B68A3F870207B68B3F870200B
:1081C0007B689A877B681A8B7B68A3F872207B6830
:1081D000B3F872207B68DA877B68B3F87030002BC5
:1081E0000CBF01230023DBB218460C37BD4680BC10
:1081F000704700BFE02B002080B483B000AF7860F0
:10820000012318460C37BD4680BC704780B483B04C
:1082100000AF78607B6800229A877B680022DA874B
:108220007B68012283F83A2000BF0C37BD4680BC32
:108230007047000080B485B000AF78600023FB81F8
:108240007B68B3F91E207B68B3F91C309A4204DDC9
:108250007B68B3F91E309BB203E07B68B3F91C3036
:108260009BB2BB817B685B8B1A46642303FB02F2E3
:10827000BB8992FBF3F3FB817B689A6D1C4B1B68F7
:10828000D31A032B11D97B689B6D194A13607B6845
:10829000B3F87030FA899A4207D97B68B3F8703026
:1082A00001339AB27B68A3F870207B68B3F8703012
:1082B000FA899A4203D27B68FA89A3F870207B6816
:1082C000B3F870207B689A877B681A8B7B68A3F869
:1082D00072207B68B3F872207B68DA877B680022A3
:1082E00083F83A2000BF1437BD4680BC704700BFFA
:1082F000E42B002080B483B000AF786000BF0C375F
:10830000BD4680BC704780B483B000AF786000BFCA
:108310000C37BD4680BC704780B582B000AF786036
:108320007B68184606F06CFE00BF0837BD4680BD6E
:1083300080B483B000AF78607B6802225A7100BFBE
:108340000C37BD4680BC704780B483B000AF786006
:108350007B6805225A7100BF0C37BD4680BC704750
:1083600080B483B000AF78607B6801225A7100BF8F
:108370000C37BD4680BC704780B586B000AF7860D2
:108380007B681B79092B14BF01230023DBB21A463B
:108390007B6883F83A207B683A33184600F072F81D
:1083A00078617B68586F08237A69134902F0F0FD01
:1083B0007B681B7C012B1AD17B689A6D7B685B699B
:1083C000D31AB3F5FA7F02D97B6800221A747B684E
:1083D00093F83730013BDAB27B6883F837207B684B
:1083E00093F83730002B02D17B6800221A7400BF4B
:1083F0001837BD4680BD00BFF4E5061880B586B0CD
:1084000000AFF860B9607A60BB681B681C4A934291
:1084100031D1FB6848337968184600F09AF8FB6858
:1084200093F848309AB2FB681A85FB6893F8483095
:10843000042B14BF01230023FB75FB6893F837302E
:10844000042B0FD9FB6801221A74FB689A6DFB6834
:108450005A61FB6893F837300133DAB2FB6883F86E
:10846000372009E0FB6893F837300233DAB2FB6853
:1084700083F8372000E000BF00BF1837BD4680BD3D
:10848000E550FF182DE9F04F8FB000AF78624FF044
:1084900000024FF00003C7E90A234FF000024FF03B
:1084A0000003C7E90C237B6A1B78DBB200223B6127
:1084B0007A61D7E90423C7E90C23D7E90C234FF0ED
:1084C00000004FF0000111000020D7E90A238618B0
:1084D000BE6141EB0303FB61D7E90623C7E90A2329
:1084E0007B6A5B889BB20022BB60FA60D7E90223FB
:1084F000C7E90C233B6B1D0C3B6B1C04D7E90A231B
:1085000014EB020A45EB030BC7E90AAB7B6A9B88B5
:108510009BB200223B607A60D7E90034C7E90C3493
:10852000D7E90A01D7E90C2310EB020841EB030954
:10853000C7E90A897B6A063307F128010822184631
:1085400000F0B7F87B6A063318463C37BD46BDE8F5
:10855000F08F2DE9B04F86B000AF786039604FF0F2
:1085600000024FF00003C7E902234FF000024FF072
:108570000003C7E9042307F10803082239681846F5
:1085800000F097F8D7E90223C7E90423D7E90423C9
:108590004FF0000A03F0FF0BC7E904ABD7E9040171
:1085A0004FF000024FF000030A000023D2B27B68B4
:1085B0001A70D7E90223C7E90423D7E90423140C6E
:1085C00024040025C7E90445D7E904014FF000025F
:1085D0004FF00003020C42EA01420B0C92B27B689E
:1085E0005A80D7E90223C7E90423D7E904231FFAF5
:1085F00082F84FF00009C7E904893A8A7B689A80BB
:1086000000BF1837BD46BDE8B08F80B485B000AF5D
:1086100078600023FB6005E07B6801337B60FB68CA
:108620000133FB607B681B78002BF5D1FB68184693
:108630001437BD4680BC704780B487B000AFF86087
:10864000B9607A603B60FB687B61BB683B617B68BB
:108650003A6913443B6107E03A69531C3B617B690B
:10866000591C796112781A703B685A1E3A60002BC7
:10867000F2D100BF00BF1C37BD4680BC704780B43C
:1086800087B000AFF8600B467A60FB72FB687B61D5
:1086900004E07B695A1C7A61FA7A1A707B685A1E68
:1086A0007A60002BF5D100BF00BF1C37BD4680BCEF
:1086B000704780B487B000AFF860B9607A60FB683B
:1086C0007B61BB683B6107E03A69531C3B617B6996
:1086D000591C796112781A707B685A1E7A60002BD7
:1086E000F2D100BF00BF1C37BD4680BC704780B4CC
:1086F00087B000AFF860B9607A60FB687B61BB68E7
:108700003B610BE07B695A1C7A611A783B69591C02
:1087100039611B789A4201D0012305E07B685A1E1B
:108720007A60002BEED1002318461C37BD4680BC72
:10873000704780B485B000AFF860B9607A6007E038
:10874000BA68131DBB60FB68191DF96012681A60D6
:108750007B685A1E7A60002BF2D100BF00BF14372D
:10876000BD4680BC704780B485B000AFF860B9608A
:108770007A6004E0FB681A1DFA60BA681A607B68C8
:108780005A1E7A60002BF5D100BF00BF1437BD46DA
:1087900080BC704780B586B000AFF860B960114604
:1087A0001A460B46FB8013467B710023FB750223A0
:1087B000BB750023BB82FB68BA681A60FB68FA8845
:1087C0009A807B79013B042B21D801A252F823F037
:1087D000E5870008EB870008F1870008F7870008A5
:1087E000018800080123BB8212E00123BB750FE062
:1087F0000023BB750CE00323FB750023BB7507E06A
:108800000323FB750123BB750123BB8200E000BF7E
:10881000BB8A012B04D1FB881946B86807F0A2F87F
:10882000FB88BA7DF97DB86807F062F800BF183799
:10883000BD4680BD80B582B000AF78607B68002205
:108840005A707B6800221A70786802F096FF7B6885
:1088500018460837BD4680BD80B500AF00F01EF851
:1088600000F0F2F800F024F900F06EF900F0BCF925
:1088700000F00AFA00F058FA00F07CFA00F002F872
:1088800000BF80BD80B500AF034B10221A720248B2
:1088900000F034F800BF80BD682D002080B500AF27
:1088A000002002F0E3FB0346064A1360012002F0B9
:1088B000DDFB0346044A1360024B1B68034A136046
:1088C00000BF80BD5C2D0020602D0020642D0020A5
:1088D00080B582B000AF0346FB71FB79022B06D84E
:1088E000FB79184602F0C2FB0346034A136000BF3F
:1088F0000837BD4680BD00BF642D002080B582B022
:1089000000AF7860044B1B681946786800F006F8E1
:1089100000BF0837BD4680BD642D002080B582B001
:1089200000AF78603960786800F010F87B681968EB
:108930007B6803F108027B685B68DBB2386802F091
:1089400027FB00BF0837BD4680BD000080B584B05E
:1089500000AF78607B681B7C002B6ED07B6808338F
:10896000BB600023BB737B68DB7DFB737B685B7D37
:10897000002B0FD17B681B7D1A467B6813441B7A42
:108980007A68127D114623F00F03DAB27B680B443C
:108990001A720EE07B681B7D1A467B6813441B7AB3
:1089A0007A68127D114603F00F03DAB27B680B443C
:1089B0001A72FB7B0133FB737B689B7DFA7B9A42C7
:1089C00001D30023FB737B68FA7BDA757B685B7DE0
:1089D000012B02D1FB7B1B01FB737B681B7D1A46BD
:1089E0007B6813441A7A7B681B7D1946FB7B134412
:1089F000DAB27B680B441A727B685B7C1A467B6830
:108A0000134400221A727B689A7C0E4B1A700D4830
:108A100002F0B3FE7B685B68DAB27B68DB7C07F14F
:108A20000801084802F0E7FE0346BB737B685B7CE5
:108A30001A467B681344BA7B1A7200BF1037BD46D2
:108A400080BD00BF582C002080B400AF064B40F220
:108A500099521A60044B08225A60034B00221A7480
:108A600000BFBD4680BC7047802D002080B582B01D
:108A700000AF7860082279680948FFF71AFE094BB1
:108A80001B6819460848FFF749FF084B1B68194641
:108A90000548FFF743FF00BF0837BD4680BD00BF54
:108AA000882D00205C2D0020802D0020602D0020CE
:108AB00080B400AF064B4FF4C0621A60044B08222A
:108AC0005A60034B00221A7400BFBD4680BC704739
:108AD000982D002080B582B000AF78607B681A784E
:108AE000184B1A727B685A78164B5A727B685B88EF
:108AF0001B0A9BB2DAB2134B9A727B685B88DAB2BC
:108B0000104BDA727B689B881B0A9BB2DAB20D4B62
:108B10001A737B689B88DAB20A4B5A737B68DB88CE
:108B20001B0A9BB2DAB2074B9A737B68DB88DAB216
:108B3000044BDA730348FFF7E1FE00BF0837BD4678
:108B400080BD00BF982D002080B400AF064B40F2DE
:108B500001621A60044B08225A60034B00221A7407
:108B600000BFBD4680BC7047B02D002080B582B0EC
:108B700000AF78607B681B881B0A9BB2DAB2194B86
:108B80001A727B681B88DAB2164B5A727B685B8854
:108B90001B0A9BB2DAB2134B9A727B685B88DAB21B
:108BA000104BDA727B689B881B0A9BB2DAB20D4BC2
:108BB0001A737B689B88DAB20A4B5A737B68DB882E
:108BC0001B0A9BB2DAB2074B9A737B68DB88DAB276
:108BD000044BDA730348FFF791FE00BF0837BD4628
:108BE00080BD00BFB02D002080B400AF064B40F226
:108BF00002621A60044B08225A60034B00221A7466
:108C000000BFBD4680BC7047C82D002080B582B033
:108C100000AF78607B681B881B0A9BB2DAB2194BE5
:108C20001A727B681B88DAB2164B5A727B685B88B3
:108C30001B0A9BB2DAB2134B9A727B685B88DAB27A
:108C4000104BDA727B689B881B0A9BB2DAB20D4B21
:108C50001A737B689B88DAB20A4B5A737B68DB888D
:108C60001B0A9BB2DAB2074B9A737B68DB88DAB2D5
:108C7000044BDA730348FFF741FE00BF0837BD46D7
:108C800080BD00BFC82D002080B400AF064B40F26D
:108C900003621A60044B08225A60034B00221A74C4
:108CA00000BFBD4680BC7047E02D002080B582B07B
:108CB00000AF78607B681B881B0A9BB2DAB2194B45
:108CC0001A727B681B88DAB2164B5A727B685B8813
:108CD0001B0A9BB2DAB2134B9A727B685B88DAB2DA
:108CE000104BDA727B689B881B0A9BB2DAB20D4B81
:108CF0001A737B689B88DAB20A4B5A737B68DB88ED
:108D00001B0A9BB2DAB2074B9A737B68DB88DAB234
:108D1000044BDA730348FFF7F1FD00BF0837BD4687
:108D200080BD00BFE02D002080B400AF064B40F2B4
:108D300004621A60044B08225A60034B00221A7422
:108D400000BFBD4680BC7047F82D002080B582B0C2
:108D500000AF7860082279680448FFF7AAFC04484D
:108D6000FFF7CCFD00BF0837BD4680BD002E0020B8
:108D7000F82D002080B400AF064B40F205621A6067
:108D8000044B08225A60034B00221A7400BFBD46F0
:108D900080BC7047102E002080B582B000AF786094
:108DA000114B00221A72104B00225A720E4B0022F5
:108DB0009A720D4B0022DA727B681A790A4B1A7389
:108DC0007B685A79084B5A737B689A79064B9A7379
:108DD0007B68DA79044BDA730348FFF78FFD00BF35
:108DE0000837BD4680BD00BF102E002080B582B080
:108DF00000AF786039607B68012B1FD13B684FF66C
:108E0000FF7293421AD10F48FFF714FD0E48FBF78B
:108E1000E5F90E48FBF7E2F90D48FBF7DFF90D48DD
:108E2000FBF7DCF90C48FBF7D9F90C48FBF7D6F94E
:108E30000B48FBF7D3F90B48FBF7D0F900BF083715
:108E4000BD4680BD582C0020682D0020802D0020BC
:108E5000982D0020B02D0020C82D0020E02D0020EE
:108E6000F82D0020102E002080B500AF4FF6FF71C6
:108E70000120FFF7BBFF80BD80B483B000AF7860F6
:108E800039603B685B00054A1A447B681A607B685E
:108E900018460C37BD4680BC704700BF302E0020FE
:108EA00080B483B000AF78607B681B68044A9B1A6B
:108EB0005B109BB218460C37BD4680BC704700BFA4
:108EC000302E002080B582B000AF2D4806F080F92A
:108ED0002B4806F082F92A4806F089F9284806F05E
:108EE00081F90121264806F05EF9254806F024F9AB
:108EF00000237B607B68234A934203DC7B68013359
:108F00007B60F7E71E4806F031F91D4806F041F98D
:108F10001D4A06211A4806F06FF9194806F09BF918
:108F20001A4A01211A4806F016FC1A4B1A4601216A
:108F3000174806F019FC4FF480720121144806F01E
:108F4000BAFB4FF480620121114806F0A7FB4822CA
:108F500001210F4806F011FC01210D4806F0B8FB75
:108F600001210B4806F0BDFB0121094806F0E1FB99
:108F7000034806F0E9F800BF0837BD4680BD00BFD2
:108F8000002401407F380100282E00204C2401409D
:108F900000000240302E0020B0B584B000AFF86071
:108FA000B9601346FB71FB79012202FA03F39BB20D
:108FB00000220021B86806F09BFCFC79F868FFF7F6
:108FC0006FFF03461D462146B86800F00BF80346C4
:108FD0001A46034B5A5500BF1037BD46B0BD00BFFF
:108FE000282E002080B582B000AF786039607B68A1
:108FF000184A93421AD07B68164A934223D87B685A
:10900000154A934204D07B68144A934206D01AE072
:109010003B68072B12DC3B68DBB217E03B68012B97
:109020000EDC3B68DBB20833DBB20FE03B68052B9C
:1090300008DC3B68DBB20A33DBB207E000BF02E0CA
:1090400000BF00E000BF06F087F81023184608377D
:10905000BD4680BD0010014000080140000C0140E9
:1090600080B582B000AF786039607B68012B1CD17D
:109070003B684FF6FF72934217D100210D48FFF76E
:10908000FBFE01210C48FFF7F7FE02210B48FFF71A
:10909000F3FE03210A48FFF7EFFE04210948FFF71A
:1090A000EBFE05210848FFF7E7FE00BF0837BD4685
:1090B00080BD00BFC02E0020C42E0020C82E00207E
:1090C000CC2E0020D02E0020D42E002080B500AF62
:1090D0004FF6FF710120FFF7C3FF80BD80B500AFE1
:1090E000124B1B6803F40053002B14BF0123002311
:1090F000DBB2002B05D00E4B1B680D4A43F4005326
:1091000013600421094806F00BFB0A4806F0E9FE4B
:109110000421064806F016FB074B1B78DBB201332F
:10912000DAB2054B1A7000BF80BD00BF00000240DC
:109130000400024000380040D82E002080B500AF67
:10914000034BB2221A70024802F017FB00BF80BD29
:10915000A430002080B584B000AFF860B960134639
:10916000FB71FEF71FFBB968F868FEF75FFBBB6891
:10917000DAB2034B1A7000BF1037BD4680BD00BF86
:10918000D92E002080B483B000AF0346FB71044B9E
:109190001B68DBB218460C37BD4680BC704700BF69
:1091A0004800024080B485B000AF78607B689B00C7
:1091B0007B600023FB60FA687B689A4206D200BF9E
:1091C00000BF00BFFB680133FB60F4E700BF14374A
:1091D000BD4680BC704780B485B000AF78607B68C6
:1091E0004FF4616202FB03F37B600023FB60FA68CB
:1091F0007B689A4206D200BF00BF00BFFB68013304
:10920000FB60F4E700BF1437BD4680BC7047000028
:1092100080B582B000AF03460A46FB711346BB71AE
:10922000BB79012B03D10548FAF7A8FF02E00348F8
:10923000FAF7B4FF00BF0837BD4680BD502C0020B0
:109240000EB480B585B000AF78603E21786800F03C
:109250001DF807F12003BB600023FB73FA7B3B7F03
:109260009A420CD2BB681A1DBA601968FB7B7A68F7
:109270001344CAB21A70FB7B0133FB73EEE700BFE5
:109280001437BD46BDE8804003B0704780B485B058
:1092900000AF78600B46FB700023FB73FA7BFB7812
:1092A0009A4208D2FB7B7A68134400221A70FB7B37
:1092B0000133FB73F2E700BF1437BD4680BC704733
:1092C00080B487B000AFF8600B467A60FB72124B37
:1092D00000221A700023FB75FB7D7A689A4208DD34
:1092E000FB7DFA68134400221A70FB7D0133FB7585
:1092F000F2E700233B613B693D2B08DC074A3B69F1
:10930000134400221A703B6901333B61F3E700BF4D
:109310001C37BD4680BC7047D82E0020602F00202F
:1093200080B586B000AFF8607A601A460B46FB72D3
:109330001346BB72254B7B6197F820301846FFF728
:1093400021FF0346FB740023BB74214B1B78DBB267
:10935000002B0AD17B695A1E7A61002B05DDFA7C4D
:10936000BB7A9A4201D9012300E00023002B07D0E9
:1093700097F820301846FFF705FF0346FB74E4E733
:109380007B69002B16DD124B1B78DBB2002B14BF60
:1093900001230023DBB2002B02D00D4B00221A70F8
:1093A0000C4B1B78DAB2FB7AD31ADAB2094B1A707B
:1093B000FB7ABB7497F8203001211846FFF728FF8D
:1093C000BB7C18461837BD4680BD00BFFFFF0F00AD
:1093D000D82E0020D92E002080B584B000AF786050
:1093E0000B46FB701346BB707B68BB600023FB73AE
:1093F0000120FFF7D7FEFB78002B0FD0FB7BBA686C
:1094000013441B789BB219460E4806F052FDFB78B8
:10941000013BFB70FB7B0133FB73ECE70A4B1B68E2
:1094200003F00203002B0CBF01230023DBB2002B4F
:1094300000D0F3E78820FFF7B5FE00BF1037BD4628
:1094400080BD00BF003800400838004080B588B0BB
:1094500002AFF860B96011461A460B46FB7113461D
:10946000BB710123FB75BA79FB791946B868FFF720
:1094700027FFFA79BB79134497F820201946204832
:10948000FFF768FE97F8203000211846FFF7C0FE6E
:10949000FA79BB791344DBB297F820201946F868B3
:1094A000FFF79AFFB97997F8203000930023144A08
:1094B000B868FFF735FF03461A46BB79934214BFDD
:1094C00001230023DBB2002B08D097F82030194687
:1094D000022000F017F80023FB7505E0FA79BB794C
:1094E0000749B868FFF7A8F897F820300121184617
:1094F000FFF78EFEFB7D18461837BD4680BD00BFC6
:10950000602F002080B483B000AF03460A46FB7191
:109510001346BB71FB79002B01D10623FB71BB798C
:109520000449FA79CA54002318460C37BD4680BC5A
:10953000704700BFDC2E002080B483B000AF03462C
:10954000FB71FB79034A0021D15400BF0C37BD46A3
:1095500080BC7047DC2E002080B483B000AF786000
:109560000B46FB707B68002B04D0FB78084AD25C6A
:109570007B681A70FB78064AD35C002B14BF01236A
:109580000023DBB218460C37BD4680BC704700BFD5
:10959000DC2E002080B586B000AFF8600B467A6004
:1095A000FB72FB681B78FB750023BB7500F0A2F90A
:1095B0000346BB757B68BA7D1A701249012000F022
:1095C0008DFB1049022000F089FB0021022000F0F1
:1095D000A3FC4021102000F09FFCBB7D002B01D19B
:1095E00000230BE0BB7D1E2B01D9002306E0BA7DD2
:1095F000FB7D9A420CBF01230023DBB218461837CB
:10960000BD4680BD202F002080B584B002AF00236E
:10961000FB71152201210A48FFF712FEF91D0123F3
:109620000093012301220648FFF710FFFB79842BEA
:1096300001D1012300E0002318460837BD4680BD54
:10964000E02E002080B584B002AF00237B710023A0
:10965000FB710023BB71012201210D48FFF7F0FDD2
:10966000791D01230093012301220948FFF7EEFE33
:109670007B7923F07F03DBB27B717B79802B01D177
:10968000012300E0002318460837BD4680BD00BF17
:10969000E02E002080B584B002AF1E4B1B687B60BB
:1096A000FF23FB70E02201211B48FFF7C9FD0123C6
:1096B00000930023012219491748FFF7C7FEFB78E2
:1096C000012B21D0012201211348FFF7B9FDF91C1C
:1096D00001230093012301220F48FFF7B7FEFB7817
:1096E00003F00103DBB2FB700A4B1A687B68D31AE4
:1096F000C82B05D900210B20FFF704FF002304E04D
:109700008820FFF74FFDDAE7012318460837BD46EA
:1097100080BD00BF6C2B0020E02E0020202F0020F9
:1097200080B584B002AF1E4B1B687B60FF23FB70CB
:10973000FB78012B2ED0202201211A48FFF780FD53
:10974000012300930023012217491648FFF77EFEEC
:10975000032201211348FFF773FDF91C0123009335
:10976000012301220F48FFF771FEFB7803F001038C
:10977000DBB2FB700A4B1A687B68D31A142B05D92D
:1097800000210B20FFF7BEFE002304E08820FFF736
:1097900009FDCDE7012318460837BD4680BD00BF4F
:1097A0006C2B0020E02E0020202F002080B584B0FC
:1097B00002AFFF23FB71012201210F48FFF740FD9B
:1097C000F91D01230093012301220B48FFF73EFE00
:1097D000FB7923F07F03DBB2FB71FB79802B05D192
:1097E00000210C20FFF78EFE012300E00023184625
:1097F0000837BD4680BD00BFE02E002080B584B094
:1098000002AF174B1B687B600023FB70FB78022BB9
:1098100021D1012201211348FFF712FDF91C012378
:109820000093012301220F48FFF710FEFB7803F09D
:109830000203DBB2FB700A4B1A687B68D31A642BF5
:1098400005D900210220FFF75DFE002304E08820F7
:10985000FFF7A8FCDAE7012318460837BD4680BDAC
:109860006C2B0020E02E002080B584B002AF1E4B90
:109870001B687B60FF23FB70B02201211B48FFF7B0
:10988000DFFC012300930023012219491748FFF749
:10989000DDFDFB78012B22D0032201211348FFF7C5
:1098A000CFFCF91C01230093012301220F48FFF78D
:1098B000CDFDFB7803F00103DBB2FB700A4B1A68A5
:1098C0007B68D31AB3F5FA6F05D900210B20FFF797
:1098D00019FE002304E08820FFF764FCD9E7012388
:1098E00018460837BD4680BD6C2B0020E02E0020B6
:1098F000202F002080B58AB004AF0023FB7505231C
:10990000102202219D48FFF79BFC012300930023B6
:1099100002229B499948FFF799FD882304220221DE
:109920009648FFF78DFC01230093002302229449FF
:109930009248FFF78BFDFFF7ADFE30230E22022188
:109940008E48FFF77DFC01230093002302228C49FF
:109950008A48FFF77BFD0F2201218848FFF770FC42
:1099600007F10F0101230093012301228348FFF730
:109970006DFD844B1B683B610023FB73FB7B212B3C
:109980001DD0012201217D48FFF75AFC07F10F018C
:1099900001230093012301227848FFF757FD794BFB
:1099A0001A683B69D31A642B05D900210220FFF7FE
:1099B000A9FD0023DEE08820FFF7F4FBDEE710239B
:1099C0000E2202216D48FFF73BFC01230093002388
:1099D00002226B496948FFF739FD6A4B1B683B61FE
:1099E0000123FB73FB7B002B22D001220121634862
:1099F000FFF726FC07F10F01012300930123012249
:109A00005E48FFF723FDFB7B03F00103DBB2FB7332
:109A10005C4B1A683B69D31A642B05D900210220DC
:109A2000FFF770FD0023A5E08820FFF7BBFBD9E717
:109A3000FFF776FEFFF72EFE00230293002301932B
:109A4000572300930323C02205214C48FFF7F8FB5E
:109A5000012300930023052249494848FFF7F6FCFB
:109A6000C12201214548FFF7EBFB012300930523A9
:109A7000012243494148FFF7E9FC03233B70572388
:109A80007B700023BB700023FB7000233B7100231D
:109A90007B710023BB713B46042219463848FEF710
:109AA00026FE0346012B0CBF01230023DBB2002B53
:109AB00005D000210620FFF725FD00235AE0FFF71F
:109AC000D3FE304B1B683B610023FB73FB7B022BF7
:109AD00022D1012201212948FFF7B2FB07F10F0132
