:020000040800F2
:1040000000800120E91D0108E71D0108E51D0108E8
:10401000E51D0108E51D0108E51D0108000000007F
:10402000000000000000000000000000E71D010883
:10403000E71D010800000000E71D0108E71D010859
:10404000E51D0108E51D0108E51D0108BD73000817
:10405000E51D0108E51D0108E51D0108E51D010834
:10406000E51D0108E51D0108E51D0108E51D010824
:10407000E51D0108E51D010895B20008E51D0108D0
:10408000E51D0108E51D0108E51D0108B1D3000883
:1040900081D3000899D30008E51D0108E51D01083A
:1040A000E51D0108E51D0108E51D0108E51D0108E4
:1040B000E51D0108A5730008E51D0108E51D0108BF
:1040C000E51D0108E51D0108E51D0108E51D0108C4
:1040D000E51D0108E51D0108E51D0108E51D0108B4
:1040E000E51D0108E51D0108E51D0108E51D0108A4
:1040F000E51D0108E51D0108E51D0108E51D010894
:10410000E51D0108E51D0108E51D0108E51D010883
:10411000E51D0108E51D0108E51D0108E51D010873
:10412000F5B20008E51D0108E51D0108E51D0108BF
:10413000E51D0108E51D0108E51D0108F7D300088C
:10414000C7D30008DFD30008E51D0108E51D0108FD
:1041500080B582B000AF78607B681A687B689B8806
:10416000194610460DF051FA0346002B14BF0123E7
:104170000023DBB218460837BD4680BD80B582B04B
:1041800000AF78607B681A687B689B881946104688
:104190000DF036FA00BF0837BD4680BD80B582B04D
:1041A00000AF78607B681A687B689B881946104668
:1041B0000DF028FA00BF0837BD4680BD80B582B03B
:1041C00000AF78607B681A687B689B881946104648
:1041D0000DF01EFA00BF0837BD4680BD80B582B025
:1041E00000AF094B1B68FB80142004F0E5FD03467B
:1041F0003B60FB883A689A420CBF01230023DBB284
:1042000018460837BD4680BDE8F7FF1F80B500AFF0
:10421000042004F0D1FD0346012B0CBF0123002331
:10422000DBB2002B0ED0274B1B6818460AF08EFF1E
:10423000244B1A68234B1B681B6824331B681046E9
:1042400098473DE0042004F0B7FD0346022B0CBF65
:1042500001230023DBB2002B32D02A2004F0ACFD76
:104260000346012B0CBF01230023DBB2002B0ED031
:10427000154B1B6818460AF069FF134B1A68124B5E
:104280001B681B6824331B681046984718E02A20D7
:1042900004F092FD0346022B0CBF01230023DBB286
:1042A000002B0DD0094B1B6818460AF04FFF074B37
:1042B0001A68064B1B681B6824331B681046984716
:1042C00000BF80BD109000201490002018900020A6
:1042D00080B582B000AF0346FB71042004F06CFD92
:1042E0000346012B0CBF01230023DBB2002B04D0BB
:1042F000194B1B68FA795A7129E0042004F05CFD1F
:104300000346022B0CBF01230023DBB2002B1ED07F
:104310002A2004F051FD0346012B0CBF012300238A
:10432000DBB2002B04D00D4B1B68FA795A710EE0FA
:104330002A2004F041FD0346022B0CBF0123002379
:10434000DBB2002B03D0064B1B68FA795A7100BF11
:104350000837BD4680BD00BF10900020149000209B
:104360001890002080B500AF042004F025FD03461E
:10437000012B0CBF01230023DBB2002B03D0184B11
:104380001B681B7929E0042004F016FD0346022B6C
:104390000CBF01230023DBB2002B1DD02A2004F028
:1043A0000BFD0346012B0CBF01230023DBB2002BC6
:1043B00003D00C4B1B681B790FE02A2004F0FCFC97
:1043C0000346022B0CBF01230023DBB2002B03D0DA
:1043D000054B1B681B7900E00023184680BD00BF19
:1043E00010900020149000201890002080B483B01A
:1043F00000AF78607B6800225A707B6801229A7057
:104400007B680122DA707B6800221A717B680022C7
:10441000DA807B6800221A817B6800225A817B68DF
:1044200000229A817B680022DA817B6800221A824E
:104430007B6800225A827B6800229A827B68002275
:104440001A637B6818460C37BD4680BC7047000075
:10445000B0B590B000AF7860042004F0ADFC034626
:10446000012B0CBF01230023DBB2002B0ED0324BFB
:104470001B687A68154603F110040FCC0FC50FCCEA
:104480000FC50FCC0FC523682B6051E0042004F04A
:1044900093FC0346022B0CBF01230023DBB2002B4D
:1044A00033D02A2004F088FC0346012B0CBF0123E3
:1044B0000023DBB2002B0ED0204B1B687A68154618
:1044C00003F110040FCC0FC50FCC0FC50FCC0FC5D7
:1044D00023682B602CE02A2004F06EFC0346022B9C
:1044E0000CBF01230023DBB2002B0ED0144B1B6842
:1044F0007A68154603F110040FCC0FC50FCC0FC519
:104500000FCC0FC523682B6012E007F10C0318468F
:10451000FFF76CFFFF23FB637B681D4607F10C046C
:104520000FCC0FC50FCC0FC50FCC0FC523682B6068
:1045300078684037BD46B0BD109000201490002030
:104540001890002084B0B0B500AF07F1100484E8E3
:104550000F00042004F030FC0346012B0CBF0123A4
:104560000023DBB2002B0ED0294B1B6803F1100493
:1045700007F110050FCD0FC40FCD0FC40FCD0FC421
:104580002B6823603DE0042004F016FC0346022B58
:104590000CBF01230023DBB2002B32D02A2004F011
:1045A0000BFC0346012B0CBF01230023DBB2002BC5
:1045B0000ED0184B1B6803F1100407F110050FCD46
:1045C0000FC40FCD0FC40FCD0FC42B68236018E0AC
:1045D0002A2004F0F1FB0346022B0CBF0123002329
:1045E000DBB2002B0DD00C4B1B6803F1100407F15C
:1045F00010050FCD0FC40FCD0FC40FCD0FC42B6806
:10460000236000BFBD46BDE8B04004B0704700BFA6
:1046100010900020149000201890002080B582B0E7
:1046200000AF0346FB80042004F0C6FB0346012BC9
:104630000CBF01230023DBB2002B0BD0244B1A68E4
:10464000234B1B681B682C331B68B7F906101046F8
:10465000984738E0042004F0AFFB0346022B0CBF60
:1046600001230023DBB2002B2DD02A2004F0A4FB71
:104670000346012B0CBF01230023DBB2002B0CD01F
:10468000144B1B681846134B1B681B682C331B68A4
:10469000B7F906201146984715E02A2004F08CFB54
:1046A0000346022B0CBF01230023DBB2002B0AD0F0
:1046B000094B1A68084B1B681B682C331B68B7F939
:1046C00006101046984700BF0837BD4680BD00BFA2
:1046D00010900020149000201890002080B483B027
:1046E00000AF0346FB71FA79124913465B0013448D
:1046F0005B000B441B78032B13D0FA790D4913464A
:104700005B0013445B000B441B78082B09D0FA793B
:10471000084913465B0013445B000B441B78092BCC
:1047200001D1012300E0002318460C37BD4680BCB0
:10473000704700BFD05C002080B582B000AF00237E
:10474000FB710023BB71122004F036FB0346002BE3
:1047500007DD0020FFF7C2FF0346002B01D0012335
:1047600000E00023002B02D00123FB7110E0122097
:1047700004F022FB0346002B05D11E4B1B78072BB0
:1047800001D1012300E00023002B01D00123FB71A4
:10479000132004F011FB0346002B07DD0120FFF777
:1047A0009DFF0346002B01D0012300E00023002BD6
:1047B00002D00123BB7110E0132004F0FDFA034680
:1047C000002B05D10B4B9B79072B01D1012300E076
:1047D0000023002B01D00123BB71FB79012B04D1F5
:1047E000BB79012B01D1012300E0002318460837D3
:1047F000BD4680BDD05C002080B58EB000AFFFF715
:104800009BFF0346002B0CBF01230023DBB2002BD0
:1048100001D0012320E01E2004F0CEFA0346002B35
:1048200006D00F4B1B685B8D002B01D0012300E0ED
:104830000023002B01D001230EE03B1D1846FFF79B
:1048400007FE7B6B002B14BF01230023DBB2002B80
:1048500001D0012300E0002318463837BD4680BD53
:104860001C900020B0B483B000AF04460846114647
:104870001A462346FB710346BB710B467B711346F8
:104880003B713B79012B15D1FA79B979214813464F
:104890001B019B1A0B44032200F82320FA79B979F3
:1048A0001C4813461B019B1A0B449B00034449F20E
:1048B00080325A80F879BA7979797B790C33DDB214
:1048C000154C1346DB009B1A5B00D22200FB02F260
:1048D00013440B442A4604F823203B79012B02D1D0
:1048E00040F2022500E00225F879BA7979790A4C7C
:1048F0001346DB009B1A5B00D22200FB02F213443A
:104900000B449B0023442A465A8000BF0C37BD4607
:10491000B0BC704780710020F87100202DE9F04F85
:10492000ABB000AF172004F047FA0346A7F8A23057
:10493000B7F8A230032B05D1182004F03DFA034646
:104940009BB206E007F124031846FFF781FDB7F894
:104950005030A7F89E30192004F02EFA034687F84D
:104960009D301A2004F028FA034687F89C30B7F8E7
:10497000A230012B15D1CC4B1B6893F82C30002BA7
:1049800003D10023A7F8A2300BE0C74B1B681B7CA8
:10499000012B03D10123A7F8A23002E00023A7F8DE
:1049A000A230C24B1B78012B04D0C14B1B78192BB2
:1049B00040F01082BD4B1B78012B0FD1162004F064
:1049C000FBF903469CB207F158031846FFF740FD78
:1049D000B7F8843023449BB2B64A1380B34A02230B
:1049E0001370002387F8A53097F8A530012B00F24B
:1049F000F18197F8A5301846FFF770FE0346002BAB
:104A000000F0E281002387F8A63097F8A520AA4994
:104A100013465B0013445B000B4403331B7897F889
:104A2000A6209A4280F0D0816B461E46002387F86C
:104A3000A73097F8A51097F8A630A0481A4652005C
:104A40001A44D3001A464FF4B47301FB03F3134422
:104A5000034413331B78591EC7F898100B460133D3
:104A60000022BB61FA61D7E9064522462B46901821
:104A7000B8605B41FB60D7E90223204612EB0008D7
:104A8000284643EB00094FF000024FF000034FEAC5
:104A9000091343EA18734FEA0812904699460B46E9
:104AA000013300223B617A61D7E9044522462B4657
:104AB000901838605B417B60D7E90023204612EBF9
:104AC000000A284643EB000B4FF000024FF00003B2
:104AD0004FEA0B1343EA1A734FEA0A1292469B46B7
:104AE0000B465A1C13465B0013445B000733DB087C
:104AF000DB00ADEB030D6B4601335B085B00C7F8D1
:104B00009430D7F8944097F8A51097F8A6306B48E2
:104B10001A4652001A44D3001A464FF4B47301FBEC
:104B200003F31344034413331B781A4613465B0004
:104B300013445B001A460021204604F0C3FE002304
:104B400087F8A13097F8A51097F8A6305B481A4669
:104B500052001A44D3001A464FF4B47301FB03F316
:104B60001344034413331A7897F8A13093423DD28B
:104B7000534B1D7897F8A50097F8A63097F8A11029
:104B8000504C1A461201D21A53001A464FF4E173E0
:104B900000FB03F313440B445B002344DB881946FA
:104BA000284607F0A3FD0346A7F8923097F8A51012
:104BB00097F8A63041481A4652001A44D3001A46C4
:104BC0004FF4B47301FB03F3134403441333197814
:104BD00097F8A130B7F89220D7F8940008F016FCA7
:104BE00097F8A130013387F8A130ABE7002387F8AD
:104BF000A03097F8A51097F8A63030481A46520012
:104C00001A44D3001A464FF4B47301FB03F3134460
:104C1000034413331A7897F8A030934280F0CD8084
:104C200097F8A020D7F8941013465B0013445B005C
:104C30000B4404331B88A7F8903097F8A020D7F8CE
:104C4000941013465B0013445B000B4402331B8833
:104C500087F88F30164B1B78182B35D8B7F8902073
:104C6000B7F89E309A422FD9154B1C7897F8A510AB
:104C700097F8A63013481A461201D21A93001A4622
:104C80004FF4617301FB03F31344034430331B8877
:104C90001946204607F078FC03461A4697F89D30DF
:104CA000934211D9012310E01C90002000510020F4
:104CB0002190002022900020D05C0020E05C0020A9
:104CC000907F0020B05F00200023002B57D0B7F862
:104CD000A230022B02DC002B03DC46E0032B1FD0AA
:104CE00043E0474B1A88B7F8903093420ED997F8B3
:104CF0008F2097F8A61097F8A5000123FFF7B2FDC3
:104D000097F8A730013387F8A73041E097F88F2054
:104D100097F8A61097F8A5000023FFF7A3FD37E04A
:104D2000374B1A88B7F89030934214D9B7F89020CF
:104D3000B7F89E309A420ED997F88F2097F8A610B0
:104D400097F8A5000123FFF78DFD97F8A7300133F1
:104D500087F8A7301CE097F88F2097F8A61097F8EF
:104D6000A5000023FFF77EFD12E097F88F2097F84B
:104D7000A61097F8A5000023FFF774FD08E097F848
:104D80008F2097F8A61097F8A5000023FFF76AFD7B
:104D900097F8A72097F89C309A4208D997F88F2067
:104DA00097F8A61097F8A5000023FFF75BFD97F88A
:104DB000A030013387F8A0301BE7B54697F8A6303E
:104DC000013387F8A63020E697F8A530013387F83D
:104DD000A53009E60B4B1B780133DAB2094B1A7088
:104DE000084B1B78192B05D9064B00221A70064B6D
:104DF00001221A7000BFAC37BD46BDE8F08F00BF7E
:104E000022900020219000200051002080B400AFAB
:104E100000BFBD4680BC704780B584B000AF0123A1
:104E20003B7100237B712748FFF792F903461A462E
:104E30007B791344DBB27B712348FFF789F9034682
:104E40005B007A79DBB21344DBB27B711F48FFF75A
:104E50007FF903469B007A79DBB21344DBB27B71A6
:104E60000023BB711A48FFF773F903461A46BB7952
:104E70001344DBB2BB711748FFF76AF903465B00C6
:104E8000BA79DBB21344DBB2BB711348FFF760F9A8
:104E900003469B00BA79DBB21344DBB2BB710F4807
:104EA000FFF756F90346DB00BA79DBB21344DBB2F5
:104EB000BB713B1D184604F0B3FF00BF1037BD4661
:104EC00080BD00BFB0900020B8900020C0900020AE
:104ED00078900020809000209090002098900020F2
:104EE00090B5ADB000AF042003F066FF0346002B81
:104EF0000CBF01230023DBB2002B16D08C4B1B7898
:104F0000012B02D1FFF788FF00E000BF884B1B7820
:104F10000133DAB2864B1A70854B1B78022B40F0B6
:104F20007281834B01221A706DE1042003F044FF6B
:104F30000346002B14BF01230023DBB2002B00F03B
:104F40006281FFF769FFFFF761F9042003F034FF86
:104F50000346022B0BD0042003F02EFF0346012B47
:104F600007D11D2003F028FF0346012B01D10123A7
:104F700000E0002387F8AF306E4B1B78012B7CD10B
:104F8000FFF7DAFB0346002B0AD0FFF7EBF90346E5
:104F9000012B05D197F8AF30002B01D0012300E0A1
:104FA0000023002B10D007F110031846FFF750FA2A
:104FB0003B6C002B0CBF01230023DBB2002B6ED017
:104FC0000220FFF785F96AE0FFF7B6FB0346002BE6
:104FD00006D0FFF7C7F90346072B01D1012300E0F4
:104FE0000023002B03D00520FFF772F957E0FFF7ED
:104FF000A3FB0346002B0BD1FFF7B4F90346042BA8
:1050000006D0FFF7AFF90346012B01D0012300E0E2
:105010000023002B0DD00120FFF75AF9FFF78CFB7E
:105020000346002B0CBF01230023DBB287F8AE3010
:1050300035E007F144031846FFF70AFA7B6F002BAF
:1050400014BF01230023DBB2002B28D00120FFF77F
:105050003FF9384B00221A70374B1B68374A1360F0
:10506000272003F0A9FE0346012B14BF01230023D0
:10507000DBB21A46324B1A7011E0304B1B6803F555
:10508000FA722D4B1B689A4209D22D4B1B78012BCB
:1050900005D1FFF751FB03461A46264B1A70042030
:1050A00003F08AFE0346012B07D11E2003F084FE85
:1050B0000346002B01DD012300E00023002B00F05C
:1050C0008E80204B1B68184604F06AF81D4B1B6845
:1050D000184604F03DFA012387F8AD30194B1B68E0
:1050E0005B8D002B62D197F8AD30012B5ED1154B53
:1050F0001B681B7C012B0AD1124B1B681B79012BEF
:1051000005D1104B1B68184604F034FA4EE00D4BE5
:105110001B681B7C012B17D10A4B1B681B79072BC3
:1051200012D1084B1B68184604F030FA3EE000BF6D
:105130000151002025900020947F0020289000201D
:10514000025100201C900020394B1B681B79092B51
:105150002CD1374B1B681B7C002B04D1344B1B68B4
:10516000184604F01FFA324B1B6893F82C30012BC1
:1051700004D12F4B1B68184604F014FA07F178038A
:105180001846FFF765F9B7F89E301C46252003F056
:1051900013FE03469C42ACBF01230023DBB2002B6D
:1051A00004D0234B1B68012283F82C20FFF724FB3B
:1051B0000346002B08D11E4B1B685B8D002B03D1CF
:1051C00097F8AD30002B01D1012300E00023002B24
:1051D00019D0174B1B68184604F0E4F913E0144B80
:1051E0001B681B79012B0ED0114B1B68184604F06D
:1051F000AFF90F4B1B68184603F0D2FF0C4B1B682E
:10520000184604F0CFF90B4B1B78012B05D1FFF7A3
:10521000FDFD084B00221A7005E0064B1B78013398
:10522000DAB2044B1A7000BFB437BD4690BD00BF60
:105230001C9000202490002080B582B000AF164B57
:105240001B68184603F07AFD03465B017B607B68B0
:10525000124A82FB03129210DB17D31A1946292037
:1052600003F0DCFD07F0CEFB03461946282003F0CF
:10527000D5FD042003F0A0FD0346002B14BF01233D
:105280000023DBB2002B02D06420FFF7C7F900BF78
:105290000837BD4680BD00BF805600206766666641
:1052A00080B500AF1948FEF789FF042003F084FDA4
:1052B0000346002B07DD172003F07EFD0346002B7D
:1052C00001DD012300E00023002B01D0FFF726FBC6
:1052D000042003F071FD0346012B0CBF01230023C2
:1052E000DBB2002B0FD01E2003F066FD0346002B1F
:1052F00014BF01230023DBB2002B04D0044B1B6836
:10530000184604F05BF900BF80BD00BF709000201C
:105310001C90002080B400AF00BFBD4680BC704729
:1053200080B500AF104B1B78012B05D1FFF7F2FFC2
:105330000D4B00221A7005E00B4B1B780133DAB2DB
:10534000094B1A70094B1B78032B05D1FFF7A8FFF7
:10535000064B00221A7005E0044B1B780133DAB2C9
:10536000024B1A7000BF80BD2C9000202D900020B1
:10537000B0B5B6B00AAF184B1B780133DAB2164B92
:105380001A70164BDA78144B1B789A4294BF01239B
:105390000023DAB2124B1B78002B0CBF0123002331
:1053A000DBB21340DBB2002B1ED00B4B00221A7075
:1053B0000B4B1B780133DAB2094B1A70094B1B787F
:1053C0000133DAB2074B1A70064B1B78052B32D922
:1053D000044B01221A702EE02F900020D05C002098
:1053E0003090002004510020BC4B5A7ABC4B1B78F3
:1053F0009A4294BF01230023DAB2BA4B1B78012BE7
:105400000CBF01230023DBB21340DBB2002B12D010
:10541000B34B00221A70B34B00221A70B24B5B7868
:105420000133DAB2B04B5A70AF4B5B78052B02D91F
:10543000AD4B01225A70AB4B1B781946A74A0B465D
:105440005B000B445B00134403331B781B01DAB28F
:10545000A34B1B781344DBB287F88830A14B1B7831
:1054600019469E4A0B465B000B445B0013441B78B5
:105470001B01DAB29B4B1B781344DBB287F88930EF
:10548000984B1B781846964B1B781A46974913463B
:105490001B019B1A9B004FF4617200FB02F2134444
:1054A0000B4404331B88A7F88A30914B18788D4B36
:1054B0001B781C468A4B1B781A468C4913461B01E5
:1054C0009B1A9B004FF4617204FB02F213440B44DD
:1054D00030331B88194607F057F803469BB2A7F8EC
:1054E0008C30804B1B7819467D4B1B781846814ABF
:1054F0000B461B015B1A03449B01134404331B88B6
:1055000003F080039BB2A7F88E30764B1B781846C9
:10551000734B1B781A46754913461B019B1A9B0057
:105520004FF4617200FB02F213440B4406331B88F4
:10553000A7F880306B4B1B781846694B1B781A46CE
:105540006A4913461B019B1A9B004FF4617200FBD2
:1055500002F213440B4408331B88A7F88230614BD6
:105560001B7818465E4B1B781A46604913461B0190
:105570009B1A9B004FF4617200FB02F213440B4430
:105580000A331B88A7F88430564B1B781846544BB7
:105590001B781A46554913461B019B1A9B004FF472
:1055A000617200FB02F213440B440C331B88A7F812
:1055B00086304C4B1B781846494B1B781A464B4992
:1055C00013461B019B1A9B004FF4617200FB02F211
:1055D00013440B440E331B88A7F87830414B1B78DB
:1055E00018463F4B1B781A46404913461B019B1A2D
:1055F0009B004FF4617200FB02F213440B44103322
:105600001B88A7F87A30374B1B781846344B1B7829
:105610001A46364913461B019B1A9B004FF46172D0
:1056200000FB02F213440B4412331B88A7F87C30B2
:105630002C4B1B7818462A4B1B781A462B491346CD
:105640001B019B1A9B004FF4617200FB02F2134492
:105650000B4414331B88A7F87E30224B1B78184666
:105660001F4B1B781A46214913461B019B1A9B00AE
:105670004FF4617200FB02F213440B4416331B8893
:10568000A7F87030174B1B781846154B1B781A4635
:10569000164913461B019B1A9B004FF4617200FBD5
:1056A00002F213440B4418331B88A7F872300D4BD9
:1056B0001B7818460A4B1B781A460C4913461B01E7
:1056C0009B1A9B004FF4617200FB02F213440B44DF
:1056D0001A331B88A7F874300EE000BFD05C00209E
:1056E0002F9000203090002004510020B05F002057
:1056F000907F0020006A0020C64B1B781846C64BDE
:105700001B781A46C54913461B019B1A9B004FF490
:10571000617200FB02F213440B441C331B88A7F890
:105720007630012387F86830002387F86930B94B59
:105730001B781846B84B1B781A46B84913461B010C
:105740009B1A9B004FF4617200FB02F213440B445E
:1057500022331B88A7F86A30AE4B1B781846AE4B35
:105760001B781A46AD4913461B019B1A9B004FF448
:10577000617200FB02F213440B4424331B88A7F828
:105780006C30A44B1B781846A34B1B781A46A349D0
:1057900013461B019B1A9B004FF4617200FB02F23F
:1057A00013440B4426331B88A7F86E30022387F876
:1057B0006030002387F86130964B1B781846964B73
:1057C0001B781A46954913461B019B1A9B004FF400
:1057D000617200FB02F213440B4428331B88A7F8C4
:1057E00062308C4B1B7818468B4B1B781A468B49C2
:1057F00013461B019B1A9B004FF4617200FB02F2DF
:1058000013440B442A331B88A7F86430814B1B7860
:105810001846814B1B781A46804913461B019B1A78
:105820009B004FF4617200FB02F213440B442C33D3
:105830001B88A7F86630032387F85830002387F8C1
:105840005930744B1B781846734B1B781A467349B2
:1058500013461B019B1A9B004FF4617200FB02F27E
:1058600013440B442E331B88A7F85A30042387F8BF
:105870005030684B1B781846674B1B781A466849AE
:105880001346DB009B1A9B004FF4D27200FB02F21E
:1058900013440B4408331B88DBB287F851305D4B4F
:1058A0001B7818465C4B1B781A465C4913461B0153
:1058B0009B1A9B004FF4617200FB02F213440B44ED
:1058C00036331B88A7F85230524B1B781846524B80
:1058D0001B781A46514913461B019B1A9B004FF433
:1058E000617200FB02F213440B4438331B687B6582
:1058F000052387F848304B4B1878464B1B781C46DD
:10590000454B1B781A46454913461B019B1A9B00C1
:105910004FF4617204FB02F213440B4422331B88E0
:105920000122194606F0D0FD034687F849303D4B69
:105930001878384B1B781C46374B1B781A4637496A
:1059400013461B019B1A9B004FF4617204FB02F289
:1059500013440B4424331B880222194606F0B4FD7D
:10596000034687F84A302F4B18782A4B1B781C4681
:10597000294B1B781A46294913461B019B1A9B0089
:105980004FF4617204FB02F213440B4426331B886C
:105990000322194606F098FD034687F84B30214B49
:1059A00018781C4B1B781C461B4B1B781A461B494E
:1059B00013461B019B1A9B004FF4617204FB02F219
:1059C00013440B4428331B880422194606F07CFD3F
:1059D000034687F84C30134B18780E4B1B781C4647
:1059E0000D4B1B781A460D4913461B019B1A9B0051
:1059F0004FF4617204FB02F213440B442A331B88F8
:105A00000522194606F060FD034687F84D30054B28
:105A1000187809E0309000202F900020B05F00201F
:105A2000B8660020907F0020AC4B1B781C46AC4B26
:105A30001B781A46AB4913461B019B1A9B004FF477
:105A4000617204FB02F213440B442C331B880622C0
:105A5000194606F039FD034687F84E30A24B1878F8
:105A60009E4B1B781C469E4B1B781A469D4913463D
:105A70001B019B1A9B004FF4617204FB02F213445A
:105A80000B442E331B880722194606F01DFD0346E2
:105A900087F84F30914B1B781946944A4FF4D273D4
:105AA00001FB03F3134402331B88DBB287F8443055
:105AB0008A4B1B7819468D4A4FF4D27301FB03F3CE
:105AC00013441B88DBB287F84530844B1B7819469A
:105AD000864A4FF4D27301FB03F313440C331B8843
:105AE0001B0A9BB2DBB287F846307C4B1B78194609
:105AF0007E4A4FF4D27301FB03F313440C331B882B
:105B00001B0A9BB2DBB287F8473007F188031846BF
:105B100004F0BCF9714B1B781846FEF7DFFD034615
:105B2000002B4FD007F18003184604F0FDF907F170
:105B30007803184604F04AFA07F17003184604F097
:105B400097FA664B1B781A46694B9B5C012B04D174
:105B500007F16803184604F0DDFA604B1B781A461B
:105B6000634B9B5C022B04D107F16003184604F0E1
:105B7000D1FA5A4B1B781A465D4B9B5C032B04D120
:105B800007F15803184604F0C5FA544B1B781A461F
:105B9000574B9B5C042B04D107F15003184604F0CB
:105BA000B9FA4E4B1B781A46514B9B5C052B04D11E
:105BB00007F14803184604F0ADFA07F14003184610
:105BC00004F0E4FA042003F0F7F80346002B14BFB6
:105BD00001230023DBB2002B00F05C82012387F855
:105BE0003830444B1B681B7987F83A30FEF7BAFB14
:105BF000034687F83930002387F83B303D4B1B685C
:105C000093F828309BB2BB8707F13803184604F09D
:105C1000E7FA324B1B781846FEF760FD0346002B6F
:105C200000F038823B1D1846FEF712FC00237B7102
:105C30004FF6FF73A7F8AE300023A7F8AC304FF64D
:105C4000FF73A7F8AA300023A7F8A8300023C7F8ED
:105C5000A4300023C7F8A030D7F8A030012B4DDCCA
:105C6000D7F8A030DBB21846FEF738FD0346002B0C
:105C70002ED00023C7F89C301F49D7F8A020134628
:105C80005B0013445B000B4403331B781A46D7F8C0
:105C90009C3093421CDA1348D7F89C20D7F8A01008
:105CA00013461B019B1A9B004FF4617201FB02F229
:105CB0001344034404331B881A46D7F8A430134412
:105CC000C7F8A430D7F89C300133C7F89C30D3E72D
:105CD000D7F8A0300133C7F8A030BDE730900020DE
:105CE0002F900020B05F0020907F0020B866002039
:105CF000045100201C900020D05C0020B04B1B7889
:105D0000D7F8A410184606F01DFD03469BB27B8110
:105D10000023C7F89830AB4B1B781946AA4A0B46AC
:105D20005B000B445B00134403331B781A46D7F81F
:105D30009830934280F250810023C7F89430A14BF1
:105D40001B781846A149D7F8982013465B001344E6
:105D5000DB004FF4B47200FB02F213440B44133324
:105D60001B781A46D7F89430934280F2A280954B64
:105D70001B781A46964913461B019B1AD7F89820A0
:105D800013449B010B443E331B8819460122D7F86C
:105D9000943002FA03F30B40002B40F38480894BCC
:105DA0001B7818468B49D7F8982013461B019B1A7D
:105DB0005B004FF4E17200FB02F21A44D7F8943012
:105DC00013445B000B44DB88B7F8AC209A4228D21E
:105DD0007C4B1B7818467F49D7F8982013461B0147
:105DE0009B1A5B004FF4E17200FB02F21A44D7F8F1
:105DF000943013445B000B44DB88A7F8AC30704B45
:105E00001B78B7F8AC201146184606F06FFC034625
:105E10007B85D7F894309BB23B85D7F898309BB2FE
:105E2000FB84684B1B7818466A49D7F898201346BC
:105E30001B019B1A5B004FF4E17200FB02F21A4453
:105E4000D7F8943013445B000B44DB88B7F8AE20DE
:105E50009A4228D95B4B1B7818465E49D7F89820A0
:105E600013461B019B1A5B004FF4E17200FB02F228
:105E70001A44D7F8943013445B000B44DB88A7F82E
:105E8000AE304F4B1B78B7F8AE201146184606F0DF
:105E90002DFC03463B86D7F894309BB2FB85D7F8A0
:105EA00098309BB2BB85D7F894300133C7F8943053
:105EB00045E7444B1B7818464649D7F898201346C7
:105EC0001B019B1A9B004FF4617200FB02F213440A
:105ED0000B442A331B88184605F096F9034687F8C9
:105EE0009330384B1B7818463A49D7F89820134618
:105EF0001B019B1A9B004FF4617200FB02F21344DA
:105F00000B442C331B88184605F07EF9034687F8AE
:105F1000923097F893309BB2B7F8AA209A420CD9E6
:105F200097F89330A7F8AA30B7F8AA30BB840123BA
:105F30007B84D7F898309BB23B8497F893309BB220
:105F4000B7F8A8209A420CD297F89330A7F8A83057
:105F5000B7F8A830FB830123BB83D7F898309BB2F6
:105F60007B8397F892309BB2B7F8AA209A420CD95B
:105F700097F89230A7F8AA30B7F8AA30BB8401236B
:105F80007B84D7F898309BB23B8497F892309BB2D1
:105F9000B7F8A8209A420CD297F89230A7F8A83008
:105FA000B7F8A830FB830123BB83D7F898309BB2A6
:105FB0007B83D7F898300133C7F89830ABE600BF41
:105FC000907F002030900020D05C0020E05C00201A
:105FD000006A0020B05F00203B8E1946374806F06B
:105FE000AFF903469BB23B82B7F8A830FB8101238F
:105FF0003B72072002F0E0FE0246314B1B6892B272
:106000005A83092002F0D8FE02462D4B1B6892B23B
:106010001A837B8D1946294806F092F903461A46E1
:10602000274B1B6892B29A843B8E1946234806F090
:1060300087F903461A46224B1B6892B2DA84204B3A
:106040001B68B7F9A8205A841D4B1B68B7F9AA2012
:106050001A841B4B1C68B7F8AA301946194806F079
:106060006FF90346A383164B1C68B7F8A83019468E
:10607000144806F065F90346E3836D4607F11404FE
:106080000FCC0FC50FCC0FC523682B603B1D0FCB6A
:10609000FEF758FA0C4B1B78012B05D1FFF7CCF813
:1060A000094B00221A7005E0074B1B780133DAB266
:1060B000054B1A7000BFB037BD46B0BD987F0020B9
:1060C0001C900020AC8700202E90002080B584B06A
:1060D00000AF0346FB71102002F06EFE0346DAB2F9
:1060E0001A4B1A70062002F067FE0346002B05D0FB
:1060F000062002F061FE0346012B01D1012300E0DE
:106100000023FB731C2002F057FE0346002B05D032
:106110001C2002F051FE0346012B01D1012300E0B7
:106120000023BB731B2002F047FE0346002B05D063
:106130001B2002F041FE0346012B01D1012300E0A8
:1061400000237B7300BF1037BD4680BD907F0020C9
:1061500080B400AF044B00225A70034B00221A7027
:1061600000BFBD4680BC70478C56002080B582B011
:1061700000AF78600A4B5B781B01094A1344043373
:1061800018227968184603F0B7FB054B5B7801339A
:10619000DAB2034B5A7000BF0837BD4680BD00BF5E
:1061A0008C56002080B500AF0B4B5B78002B11D0D4
:1061B000094B1B781B01084A13440433074A126831
:1061C0001146184603F031FD034B1B780133DAB258
:1061D000014B1A7000BF80BD8C56002084560020F1
:1061E00080B588B000AFF860B96011461A460B461A
:1061F000FB711346BB80FB799BB29B00BB82BB6AE1
:10620000FB61BB8AFA691344FB61FFF7A1FF00231E
:106210007B83BB889B083B83BB8803F00303002B75
:1062200002DD3B8B01333B837B8BDAB2FB68DA7296
:106230003B8B1B0A9BB2DAB2FB689A733B8BDAB2D8
:10624000FB68DA73F868FFF791FFBB88002B3CD03E
:10625000BB88FB82FB8A042B01D90423FB82FB68E9
:1062600000221A73FB6800225A73FB6800229A739B
:10627000FB680022DA73FB680C33FA8AF969184666
:1062800003F03AFBBA88FB8AD31ABB80FB8AFA690F
:106290001344FB617B8B01337B837B8B1B0A9BB29B
:1062A000DAB2FB689A727B8BDAB2FB68DA72BB886F
:1062B000002B06D1FB689B7A63F07F03DAB2FB68A0
:1062C0009A72F868FFF752FFBFE7FFF76BFF00BF56
:1062D0002037BD4680BD80B586B002AFF860B9609A
:1062E0003B601346FB80FA883B680093134600220C
:1062F000B968F868FFF774FF00BF1037BD4680BD6E
:1063000080B483B000AF78607B6810229A757B6898
:1063100018460C37BD4680BC70470000B0B5C2B00F
:1063200002AFF860B9601346FB71002387F8F830BC
:10633000BB68C7F8F430002387F8F3300023A7F8D0
:10634000F030002387F8EF30002387F8EE30002389
:1063500087F8ED30002387F8FF30002387F8FE3000
:1063600007F150031846FFF7CBFFFB68B3F5B36F97
:1063700012D0FB68B3F5B36F00F2BE86FB6840F243
:106380009652934200F0B486FB6840F297529342D3
:1063900000F0AA8600F0B0BED7F8F4301B7887F87A
:1063A000F83007F168030822D7F8F410184603F014
:1063B000A3FA97F8F830FF2B00F0C885FF2B00F305
:1063C000FB86FE2B00F03282FE2B00F3F586212B9C
:1063D0004CDC002B40F3F086013B202B00F2EC86D6
:1063E00001A252F823F000BF77640008C1640008DE
:1063F000B9710008B9710008F7640008B9710008A4
:10640000B9710008B9710008B9710008B9710008C4
:10641000B9710008B9710008B9710008B9710008B4
:10642000B971000845650008B9710008B971000824
:10643000B9710008B9710008B9710008B971000894
:10644000B9710008B9710008B9710008B971000884
:10645000B9710008B9710008B9710008B971000874
:10646000B9710008B9650008A7660008FD2B00F0A7
:10647000DB8100F0A1BE97F86930012B0DD197F8B0
:106480006A30012B04D1D04B01221A7000F01EBEDD
:10649000CD4B07221A7000F019BE97F86930022B15
:1064A00040F0148697F86A30012B04D1C64B0122C4
:1064B0009A7100F00BBEC44B07229A7100F006BE21
:1064C00097F86930012B08D197F86A3003F00F0371
:1064D000DAB2BD4BDA7000F0FBBD97F86930022BE1
:1064E00040F0F68597F86A3003F00F03DAB2B64B46
:1064F0005A7200F0EDBD97F86930012B04D097F87F
:106500006930022B40F0E68597F86A30002B08D0FE
:1065100097F86A30012B04D097F86A30022B40F0CC
:10652000D98597F86A301946052002F077FC97F86C
:106530006930013B1946062002F070FC06F046F96E
:1065400000F0C8BD97F8693003F00103002B03D0B9
:106550009E48FDF713FE02E09C48FDF71FFE97F8EA
:10656000693003F00203002B03D09948FDF706FEC3
:1065700002E09748FDF712FE97F8693003F0040334
:10658000002B03D09348FDF7F9FD05E09148FDF796
:1065900005FE9148FDF702FE97F8693003F0080305
:1065A000002B04D08D48FDF7E9FD00F09CBD8B4821
:1065B000FDF7F4FD00F097BD97F86930013B87F8CF
:1065C000F33097F86A309BB203F00F03A7F8F0306E
:1065D00097F86B3003F00F0387F8EF3097F8EF3040
:1065E000013B87F8FF3097F8EF3087F8FE3097F8D7
:1065F000F330002B04D097F8F330012B40F06C857A
:1066000097F86B30002B0ED1002387F8FF3097F8F6
:10661000F3206D4913465B0013445B000B440333C6
:106620001B7887F8FE300023A7F8FC3097F86A3013
:10663000012B04D149F28033A7F8FC3008E097F829
:106640006A30002B40F0B9854FF41343A7F8FC30B3
:1066500097F8FF3087F8FB3097F8FB2097F8FE306B
:106660009A4280F0398597F8F32097F8FB105C4840
:1066700013461B019B1A0B44032200F8232097F8B2
:10668000F32097F8FB10564813461B019B1A0B4446
:106690009B000344B7F8FC205A8097F8FB30013385
:1066A00087F8FB30D8E797F8693087F8F33097F828
:1066B0006A30A7F8F03097F86B3003F00F0387F8D3
:1066C000EF3097F8EF30013B87F8FF3097F8EF3065
:1066D00087F8FE3097F8F330012B04D097F8F330A9
:1066E000022B40F0FB8497F8F330013B87F8F3303E
:1066F000002387F8EE300E2387F8ED3097F86B30E3
:10670000002B0ED1002387F8FF3097F8F3202E4995
:1067100013465B0013445B000B4403331B7887F87C
:10672000FE3097F8FF3087F8FA3097F8FA2097F89C
:10673000FE309A4280F0D28497F8EE3087F8F93034
:1067400097F8F92097F8ED309A4267D297F8F3005E
:1067500097F8FA2097F8F91097F8F9300C33DDB272
:10676000204C1346DB009B1A5B00D22200FB02F296
:1067700013440B442A4604F82320B7F8F0305AB2E9
:1067800097F8F930012101FA03F35BB213405BB2D1
:1067900087F8733097F87330002B25D097F8F30003
:1067A00097F8FA2097F8F9100E4C1346DB009B1A65
:1067B0005B00D22200FB02F213440B449B002344F3
:1067C00040F202225A8023E0D05C00207890002022
:1067D00080900020909000208890002098900020C9
:1067E00080710020F871002097F8F30097F8FA20E4
:1067F00097F8F910CE4C1346DB009B1A5B00D222AF
:1068000000FB02F213440B449B00234402225A80F3
:1068100097F8F930013387F8F93091E797F8FA30B3
:10682000013387F8FA3080E7FFF7BCFC97F869304E
:10683000002B00F0558497F86930012B03D102F04A
:1068400093F800F04DBC97F86930022B03D105F0A6
:10685000BDFF00F045BC97F86930032B36D102F03C
:10686000CBFB034687F8753002F0B4FB034687F88C
:10687000743040F299533B6508237B65002387F809
:106880006030FE2387F8583097F8693087F8593020
:10689000002387F85A30012387F85B30002387F8FC
:1068A0005C30002387F85D3097F8743087F85E30ED
:1068B00097F8753087F85F309E4B1A6807F15003E0
:1068C0001146184603F09AF900F00ABC97F86930AF
:1068D000042B4ED197F86A3087F8813097F88130D1
:1068E000184602F0C1FA034687F8803097F88030E6
:1068F000184602F0F1FA0346012B0CBF01230023D6
:10690000DBB2002B00F0EC8397F88030184602F0E1
:10691000CFFAF867FB6F5B68BB67B86F02F0BBFF2D
:106920000346A7F8763040F299533B6508237B6510
:10693000002387F86030FE2387F8583097F86930D5
:1069400087F85930002387F85A3097F881301B12A6
:10695000DBB287F85C3097F8813087F85D30B7F8A4
:10696000762007F1680107F15000BB6FFFF7B3FC19
:10697000B6E397F86930052B53D197F86A3087F85A
:106980008F3097F88F30184602F06EFA034687F87A
:106990008E3097F88E30184602F09EFA0346012B8F
:1069A0000CBF01230023DBB2002B00F0998397F882
:1069B0008E30184602F07CFAC7F88800D7F8883085
:1069C0009B68C7F88430D7F8840002F064FF034660
:1069D000A7F8823040F299533B6508237B6500237A
:1069E00087F86030FE2387F8583097F8693087F8C9
:1069F0005930002387F85A3097F88F301B12DBB2DA
:106A000087F85C3097F88F3087F85D30B7F88220D0
:106A100007F1680107F15000D7F88430FFF75BFCFD
:106A20005EE397F86930062B40F0868097F86A306D
:106A300087F8953097F89530184602F015FA034616
:106A400087F8943097F89430184602F045FA0346D8
:106A5000012B0CBF01230023DBB2002B00F040838D
:106A600097F89430184602F023FAC7F8900040F2E5
:106A700099533B6508237B65002387F86030FE232C
:106A800087F8583097F8693087F8593097F895307B
:106A900087F85A30012387F85B30D7F89030DB68ED
:106AA0005B117B6207F1240107F150030C330422D0
:106AB000184602F021FF1F4B1A6807F150031146D8
:106AC000184603F09BF8022387F85B30D7F8903024
:106AD0001B695B113B6207F1200107F150030C3386
:106AE0000422184602F008FF124B1A6807F15003FF
:106AF0001146184603F082F8032387F85B3097F8B5
:106B00009430184602F058F90346FB6107F11C0166
:106B100007F150030C330422184602F0EDFE054B3A
:106B20001A6807F150031146184603F067F8D7E2D8
:106B3000F87100208456002097F86930072B53D154
:106B400097F86A3087F8A43097F8A430184602F016
:106B50008BF9034687F8A33097F8A330184602F064
:106B6000BBF90346012B0CBF01230023DBB2002B32
:106B700000F0B68297F8A330184602F099F9C7F8EA
:106B80009C00D7F89C301B68C7F89830D7F898005D
:106B900002F081FE0346A7F8963040F299533B6518
:106BA00008237B65002387F86030FE2387F8583080
:106BB00097F8693087F85930002387F85A3097F8EA
:106BC000A4301B12DBB287F85C3097F8A43087F84A
:106BD0005D30B7F8962007F1680107F15000D7F84B
:106BE0009830FFF778FB7BE297F869300A2B2CD1BD
:106BF000022387F8A53040F299533B6508237B6553
:106C0000002387F86030FE2387F8583097F8693002
:106C100087F85930002387F85A30002387F85B3013
:106C200097F8A530BB6107F1180107F150030C3349
:106C30000422184602F060FEC24B1A6807F15003A6
:106C40001146184602F0DAFF4AE297F869300B2B3A
:106C50003DD197F86A3087F8AD3097F86A30194619
:106C6000B94A0B469B000B44DB0013441B68C7F872
:106C7000A830D7F8A80002F00EFE0346A7F8A63009
:106C800040F299533B6508237B65002387F8603009
:106C9000FE2387F8583097F8693087F85930002379
:106CA00087F85A3097F8AD301B12DBB287F85C30AA
:106CB00097F8AD3087F85D30B7F8A62007F1680186
:106CC00007F15000D7F8A830FFF705FB08E297F866
:106CD00069300C2B4BD197F86A3087F8B73097F8AA
:106CE0006B309AB297F86C309BB21B029BB2134484
:106CF000A7F8B43097F86A301946934A0B469B00C0
:106D00000B44DB00134424331B68C7F8B0304FF446
:106D1000C673A7F8AE3040F299533B6508237B65F4
:106D2000002387F86030FE2387F8583097F86930E1
:106D300087F85930002387F85A3097F8B7301B127C
:106D4000DBB287F85C3097F8B73087F85D30B7F87A
:106D5000B430DAB2B7F8AE4007F1680107F150007D
:106D6000D7F8B03000932346FFF73AFAB8E197F826
:106D700069300D2B3FD197F86A3087F8BF3097F80C
:106D80006A301946704A0B469B000B44DB001344E3
:106D900020331B68C7F8B8300121D7F8B80005F0D8
:106DA000C3F940F299533B6508237B65002387F8BC
:106DB0006030FE2387F8583097F8693087F85930EB
:106DC00097F8BF3087F85A30002387F85B300023EC
:106DD0007B6107F1140107F150030C3304221846BC
:106DE00002F08AFD574B1A6807F150031146184606
:106DF00002F004FF74E197F869300E2B3FD197F849
:106E00006A3087F8C73097F86A3019464E4A0B4601
:106E10009B000B44DB00134420331B68C7F8C030D1
:106E20000021D7F8C00005F07FF903463B6140F22E
:106E300099533B6508237B65002387F86030FE2368
:106E400087F8583097F8693087F8593097F8C73085
:106E500087F85A30002387F85B3007F1100107F1FB
:106E600050030C330422184602F046FD354B1A68D5
:106E700007F150031146184602F0C0FE30E197F8C2
:106E800069300F2B40F02C8197F86A3087F8D330A7
:106E900097F86B3087F8D23097F86C309AB297F841
:106EA0006D309BB21B029BB213449BB2A7F8D0304B
:106EB00097F86E3087F8CF3097F86A301946224A33
:106EC0000B469B000B44DB00134420331B68C7F8C0
:106ED000C830B7F9D03097F8CF2097F8D210D7F84C
:106EE000C80005F0C9FA40F299533B6508237B6559
:106EF000002387F86030FE2387F8583097F8693010
:106F000087F8593097F8D33087F85A3097F8D2304D
:106F100087F85B3097F86C3087F85C3097F86D3005
:106F200087F85D3097F8CF3087F85E30FF2387F819
:106F30005F30044B1A6807F150031146184602F0FF
:106F40005DFECDE084560020C08F002097F86B30A6
:106F5000012B4CD197F869301B0297F86A20134433
:106F6000C7F8DC30D7F8DC0001F07EFF034687F875
:106F7000DB3097F8DB30184601F01EFFC7F8D4006D
:106F800040F299533B6508237B65002387F8603006
:106F9000FF2387F8583097F8693087F8593097F809
:106FA0006A3087F85A3097F86B3087F85B30D7F83B
:106FB000D4301B16DBB287F85C30D7F8D4301B1402
:106FC000DBB287F85D30D7F8D4301B12DBB287F81C
:106FD0005E30D7F8D430DBB287F85F30794B1A686F
:106FE00007F150031146184602F008FE7AE097F8C0
:106FF0006B30022B76D197F869301B0297F86A2024
:107000001344C7F8E830D7F8E80001F02DFF034635
:1070100087F8E73097F86C301A0697F86D301B0444
:107020001A4497F86E301B02134497F86F201344EC
:10703000C7F8E030D7F8E8300A2B04D8FDF7CEF8CF
:107040000346002B01D0012300E00023002B06D0D3
:1070500097F8E730D7F8E010184601F0DFFE40F26D
:1070600099533B6508237B65002387F86030FF2335
:1070700087F8583097F8693087F8593097F86A30B0
:1070800087F85A3097F86B3087F85B30D7F8E030E4
:107090001B16DBB287F85C30D7F8E0301B14DBB28C
:1070A00087F85D30D7F8E0301B12DBB287F85E302E
:1070B000D7F8E030DBB287F85F30424B1A6807F14F
:1070C00050031146184602F099FD0BE000BF73E033
:1070D00000BF71E000BF6FE000BF6DE000BF6BE07C
:1070E00000BF69E000BF67E0642387F8F83064E020
:1070F0006E2387F8F83060E0FB68FB63FB79FB6484
:10710000042001F059FE0346012B0CBF012300238C
:10711000DBB2002B0BD02C4B18682B4B1B681B6869
:1071200028331B6807F13C01BA68984737E0042010
:1071300001F042FE0346022B0CBF01230023DBB209
:10714000002B2CD02A2001F037FE0346012B0CBF68
:1071500001230023DBB2002B0BD01C4B18681B4B08
:107160001B681B6828331B6807F13C01BA68984705
:1071700015E02A2001F020FE0346022B0CBF01235C
:107180000023DBB2002B0AD0114B1868104B1B6890
:107190001B6828331B6807F13C01BA689847FB68F5
:1071A000BB62FB79BB630B4B1B6807F12801BA6814
:1071B000184602F04FFA00E000BF07F58077BD46A1
:1071C000B0BD00BF84560020109000201490002015
:1071D000189000201C90002080B500AF0222524978
:1071E000524803F0EDF803224F49514803F0E8F804
:1071F00000224D494F4803F0E3F801224A494E4826
:1072000003F0DEF800224D494D4803F0D9F806227C
:107210004A494C4803F0D4F8042304224A494B4815
:1072200002F0DEFB04234FF400424949494802F0D2
:10723000D7FB04234FF480424549474802F0D0FB76
:1072400004234FF400524249444802F0C9FB04238E
:107250004FF400523C49424802F0C2FB04234FF471
:10726000006239493F4802F0BBFB04234FF48062BF
:1072700037493D4802F0B4FB04234FF4006234491F
:107280003A4802F0ADFB022310223149384802F09F
:10729000A7FB022320222E49364802F0A1FB02233D
:1072A00040222B49344802F09BFB022380222849CC
:1072B000324802F095FB04234FF480721F49304896
:1072C00002F08EFB04234FF480522E492E4802F028
:1072D00087FB02234FF4007213492C4802F080FB15
:1072E00002234FF480721049294802F079FB0423ED
:1072F00080220D49274802F073FB042340220A49EB
:10730000254802F06DFB02234FF480721049234898
:1073100002F066FB022320220349214802F060FBB1
:1073200002F0E4FF00BF80BD0010014094930020F4
:10733000989300209C930020A09300200008014017
:10734000A4930020A8930020001801407090002012
:107350000014014078900020809000208890002048
:107360009090002098900020A0900020A8900020ED
:10737000B0900020B8900020C0900020C89000205D
:10738000D0900020000C0140D8900020E090002018
:10739000E8900020F0900020F8900020009100205C
:1073A0000891002080B500AF034B1B68184601F020
:1073B0006FFC00BF80BD00BF8056002080B500AFCD
:1073C00000200AF053FB034B1B680133014A136092
:1073D00000BF80BD947F0020B0B5ADF57D6D02AFDC
:1073E00001F0C6F801F0AAFAFFF7F6FE82494FF065
:1073F00000700AF0FBF801F013F901F045F901F013
:10740000CBF901F051FA05F0AFFA0346B3F1FF3FB3
:107410000CBF01230023DBB2002B01D001F0A4FA42
:107420000121042001F0FAFC0021012001F0D6FC2A
:1074300003461946002001F0F1FC0521102001F05F
:10744000EDFC112001F0B8FC034619462A2001F09A
:10745000E5FC40F20A21012001F0E0FC2B20FEF7C0
:1074600035FE01F0A1FA41F288300AF0E3F807F5A1
:10747000136301226149184605F062FB052001F003
:107480009BFC0346DAB207F529735D49184605F0FF
:1074900057FB5C4A07F5136313605B4A07F52973D2
:1074A000136007F513635949184605F0C1FA07F54B
:1074B00029735649184605F0BBFA062001F07CFCFA
:1074C0000346DBB2184602F073FB02F031FB504B6F
:1074D0001B689BB2184602F05BFB262001F06CFC97
:1074E00003469BB2184602F043FB02F0E6FA4FF463
:1074F000B36002F02DFC0346194607F51363002222
:10750000184605F0A3FA40F2975002F021FC03461A
:10751000194607F513630022184605F097FA40F262
:10752000965002F015FC0346194607F51363002236
:10753000184605F08BFA4FF4B36002F009FC0346DD
:10754000194607F529730022184605F07FFA40F224
:10755000975002F0FDFB0346194607F529730022F8
:10756000184605F073FA40F2965002F0F1FB03461C
:10757000194607F529730022184605F067FA04201A
:1075800001F01AFC0346012B0CBF01230023DBB2E0
:10759000002B0DD01B2001F00FFC0346DAB23B4656
:1075A0001146184607F0AEFD1A4A3B4613604DE0FF
:1075B000042001F001FC0346022B0CBF0123002331
:1075C000DBB2002B42D02A2001F0F6FB0346012B50
:1075D0000CBF01230023DBB2002B1FD01B2001F0C6
:1075E000EBFB0346DAB23B461146184608F076F943
:1075F000094A3B46136029E0C00040100064004087
:107600000068004084560020885600201D63000852
:10761000E8F7FF1F10900020149000202A2001F0AE
:10762000CBFB0346022B0CBF01230023DBB2002B54
:107630000CD01B2001F0C0FB0346DAB23B461146DA
:10764000184608F0BDFEB44A3B4613601C2001F00A
:10765000B3FB0346DCB21E2001F0AEFB0346DAB2F8
:1076600007F501732146184601F038FDAB4A07F5CE
:1076700001731360AA4BAB4A1A60A94BAA4A5A601D
:10768000A74B20225A72A64B20221A72A44B012229
:107690009A81A34B0522DA72A14804F019FDA34B8D
:1076A000A34A1A60A14BA34A5A60A04B20225A72E7
:1076B0009E4B20221A729D4B0A229A819B4B0622D6
:1076C000DA729A4804F004FD9B4B9C4A1A609A4B6C
:1076D000934A1A62924804F013FD0346964A536295
:1076E000954B974A9A62944B904A9A648F4804F05B
:1076F00007FD0346904AD36407F5EE739149184697
:1077000001F048FA904A07F5EE73136007F5EE733F
:107710000A228E49184601F05DFA07F5EE7332220F
:107720008B49184601F056FA07F5EE73FA2289499B
:10773000184601F04FFA07F6C873A3F55F6340F2ED
:1077400001121A8007F6C873A3F6F45340F201122F
:107750001A80012387F8C33F002387F8C73F4FF4FF
:107760007A73A7F8C03F002387F8BF3F7A4B022205
:107770005A70794B01229A70774B0022DA70764B5F
:1077800001221A71744B07221A70734B01225A712D
:10779000714B0222DA71704B01221A726E4B002279
:1077A0005A726D4B01229A726B4B07229A716A4B87
:1077B0000222DA72042001F0FFFA0346002B14BF04
:1077C00001230023DBB2002B25D0122001F0F4FAB4
:1077D0000346DBB203F00F03DAB25F4BDA705E4BA5
:1077E000DB78002B01D0012200E007225A4B1A70EF
:1077F000132001F0E1FA0346DBB203F00F03DAB223
:10780000554B5A72544B5B7A002B01D0012200E099
:107810000722514B9A71002004F02BFC012004F048
:1078200028FC0121002003F005FE0121012003F0C6
:1078300001FE002387F8C63F97F8C63F012B21D8E9
:1078400097F8C62F13465B0013445B00424A13446B
:107850005A1C97F8C63F0133DBB21946104603F0B5
:10786000D7FF97F8C63F4FF4B47202FB03F33B4ACD
:107870001344184603F0E4FF97F8C63F013387F836
:10788000C63FD9E7002387F8C53F97F8C53F012BCE
:1078900000F2E48597F8C53F07F6C872A2F55F626B
:1078A000D25C0132D1B207F6C872A2F55F62D15440
:1078B00097F8C53F07F6C872A2F55F62D25C97F8E9
:1078C000C53F02F00F02D1B207F6C872A2F55F629F
:1078D000D15497F8C52F204913465B0013445B0031
:1078E0000B441B78013B082B00F2378501A252F8AC
:1078F00023F000BF61790008137C0008E17D0008D7
:107900005B8300080F8300085B8300085B8300082B
:10791000F57F000849810008189000201C90002085
:10792000987F00200050002040500020AC870020AD
:1079300080500020C0500020C08F0020C81E0108C9
:10794000D81E01080004004080560020E14E0008C7
:107950007153000821530008D05C0020E05C002037
:1079600097F8C53F184603F0E5FF97F8C52FDF49A4
:1079700013465B0013445B000B4401331B78022B5E
:1079800011D197F8C53F184604F012FB97F8C53F90
:10799000184603F0DFFF97F8C53F1A4649F2110178
:1079A000032004F081FA012387F8C73F97F8C52F19
:1079B000CE4913465B0013445B000B4403331B7832
:1079C00097F8C72F9A427BD897F8C51F97F8C73FFB
:1079D0005A1EC74813465B001344DB004FF4B472D1
:1079E00001FB02F213440344103300221A7097F88B
:1079F000C51F97F8C73F5A1EBD4813465B00134486
:107A0000DB004FF4B47201FB02F21344034403F1B0
:107A100008014FF000024FF00003C1E9002397F87E
:107A2000C51F97F8C73F5A1EB14813465B00134461
:107A3000DB004FF4B47201FB02F213440344113330
:107A400000221A7097F8C51F97F8C73F5A1EA8481A
:107A500013465B001344DB004FF4B47201FB02F2E7
:107A600013440344123300221A7097F8C51F97F885
:107A7000C73F5A1E9E4813465B001344DB004FF479
:107A8000B47201FB02F213440344133300221A7050
:107A900097F8C51F97F8C73F5A1E954813465B00D5
:107AA0001344DB004FF4B47201FB02F213440344AD
:107AB00000221A7097F8C73F013387F8C73F75E770
:107AC00097F8C52F13465B0013445B00874A1344A5
:107AD000033397F8C52F1146184602F013FD0346ED
:107AE000002B00F02684012387F8C73F97F8C52FA5
:107AF0007E4913465B0013445B000B4403331B7841
:107B000097F8C72F9A4279D897F8C51F97F8C72FCB
:107B1000774813465B001344DB004FF4B47201FB5B
:107B200002F21344034401221A7097F8C53F184625
:107B300003F000FF97F8C51F97F8C73F5A1E13467A
:107B40005B001344DB004FF4B47201FB02F21344F8
:107B5000674A991897F8C52F97F8C73F184603F05A
:107B600051F997F8C51F97F8C73F5A1E13465B0097
:107B70001344DB004FF4B47201FB02F213445C4A7D
:107B8000991897F8C52F97F8C73F184603F07CF966
:107B900097F8C51F97F8C73F5A1E13465B0013445A
:107BA000DB004FF4B47201FB02F21344504A9918FF
:107BB00097F8C52F97F8C73F184602F0B7FE4D4B10
:107BC0001A7897F8C54F97F8C73F5D1E97F8C73FDB
:107BD0001946104604F03AFD03461946464A234624
:107BE0001B011B1B2B449B0113443E330A461A8086
:107BF00097F8C73F013387F8C73F77E797F8C52F56
:107C00003A4913465B0013445B000B4402221A708E
:107C10008FE397F8C53F184603F08CFE3748FCF712
:107C2000BDFA012387F8C73F97F8C52F2F491346A0
:107C30005B0013445B000B4403331B7897F8C72F9A
:107C40009A4200F2A98097F8C52F284913465B0095
:107C500013445B000B4401331B78022B40F09680E9
:107C600097F8C51F97F8C73F5A1E214813465B0077
:107C70001344DB004FF4B47201FB02F213440344DB
:107C800010331B78012B27D097F8C51F97F8C73FF3
:107C90005A1E174813465B001344DB004FF4B472BE
:107CA00001FB02F21344034410331B78032B13D05F
:107CB00097F8C51F97F8C73F5A1E0D4813465B003B
:107CC0001344DB004FF4B47201FB02F2134403448B
:107CD00010331B78052B15D197F8C52F97F8C73FA0
:107CE0000749184602F078FC50E000BFD05C002045
:107CF000E05C0020907F0020006A0020709000204F
:107D00009424010897F8C51F97F8C73F5A1EB24838
:107D100013465B001344DB004FF4B47201FB02F224
:107D20001344034410331B78022B27D097F8C51F48
:107D300097F8C73F5A1EA84813465B001344DB0060
:107D40004FF4B47201FB02F21344034410331B7866
:107D5000042B13D097F8C51F97F8C73F5A1E9E48AB
:107D600013465B001344DB004FF4B47201FB02F2D4
:107D70001344034410331B78062B07D197F8C52F03
:107D800097F8C73F9549184602F026FC97F8C73F79
:107D9000013387F8C73F47E797F8C53F184603F018
:107DA000C9FD97F8C53F1946002003F0A5FD03461D
:107DB000002B0AD097F8C52F894913465B0013445E
:107DC0005B000B4405221A70C7E297F8C52F84495F
:107DD00013465B0013445B000B4403221A70BCE2A1
:107DE0008048FCF7CBF997F8C53F184603F0A2FD91
:107DF000012387F8C73F97F8C52F794913465B00E1
:107E000013445B000B4403331B7897F8C72F9A4247
:107E100013D897F8C53F07F6C872A2F55F62D15C28
:107E200097F8C52F97F8C73F184602F014FC97F84B
:107E3000C73F013387F8C73FDDE740F2451003F045
:107E4000C3FA012387F8C73F97F8C52F6449134643
:107E50005B0013445B000B4403331B7897F8C72F78
:107E60009A4200F2688297F8C52F97F8C73F1146EB
:107E7000184602F048FC0346002B03D0052003F00F
:107E8000A3FAF0E797F8C53F07F6C872A2F55F625C
:107E9000D45C97F8C51F97F8C73F5A1E4E48134643
:107EA0005B001344DB004FF4B47201FB02F2134495
:107EB000034413331D7897F8C51F97F8C73F5A1E20
:107EC00013461B019B1A9B004FF4617201FB02F2E7
:107ED0001344454A1A4497F8C70F97F8C53F0093D3
:107EE00013462A46214602F03FFC034683F0010375
:107EF000DBB2002B09D097F8C52F394913465B0038
:107F000013445B000B4405221A7097F8C51F97F8BD
:107F1000C73F5A1E1346DB009B1A9B004FF4D272D8
:107F200001FB02F21344314A991897F8C52F97F8CC
:107F3000C73F184603F002F9034683F00103DBB2A2
:107F4000002B09D097F8C52F254913465B00134431
:107F50005B000B4405221A7007F6C873A3F6F853AA
:107F600000221A8007F6C873A3F6F85300225A803D
:107F700007F5E87297F8C70F97F8C53F00931346C7
:107F80000122032103F01CFD0346002B14D097F8B7
:107F9000C52F97F8C73F591E07F6C873A3F6F853C5
:107FA0001C88134813461B019B1A0B449B01034476
:107FB000043322461A8009E097F8C52F0849134672
:107FC0005B0013445B000B4405221A7097F8C73F0F
:107FD000013387F8C73F37E7E05C00203C25010804
:107FE000D05C002070900020B05F0020B8660020B8
:107FF000006A0020012387F8C73F97F8C52FD049B2
:1080000013465B0013445B000B4403331B7897F863
:10801000C72F9A4200F2918197F8C52F97F8C73F72
:10802000591E13461B019B1A0B449B00C54A981806
:1080300097F8C52F97F8C73F591E13461B019B1A87
:108040000B449B00C04A13440422194601F072FC01
:108050000346012B0CBF01230023DBB2002B6DD0A4
:1080600097F8C52F97F8C73F591E13461B019B1A57
:108070000B449B00B34A981897F8C52F97F8C73F51
:10808000591E13461B019B1A0B449B00AE4A134416
:108090000422194601F030FC97F8C52F97F8C73F26
:1080A000591EA84813461B019B1A0B4410F8233095
:1080B000002B43D097F8C52F97F8C73F591EA24809
:1080C00013461B019B1A0B4410F8234097F8C52F49
:1080D00097F8C73F591E9C4813461B019B1A0B4437
:1080E0009B0003445A8897F8C70F97F8C53F009341
:1080F0000023214603F0E4FD0346002B0CBF0123BF
:108100000023DBB2002B19D097F8C52F97F8C73F93
:10811000591E8D4813461B019B1A0B44002200F880
:10812000232097F8C52F97F8C73F591E8548134657
:108130001B019B1A0B44002200F8232097F8C73F2D
:10814000013387F8C73F58E7012387F8C73F97F8FF
:10815000C52F7B4913465B0013445B000B4403337C
:108160001B7897F8C72F9A4200F2F68097F8C51F40
:1081700097F8C73F5A1E1346DB009B1ADB004FF4EB
:10818000527201FB02F21344704A981897F8C51F07
:1081900097F8C73F5A1E1346DB009B1ADB004FF4CB
:1081A000527201FB02F21344694A13443822194601
:1081B00001F0C0FB0346012B0CBF01230023DBB2FF
:1081C000002B00F09E8097F8C51F97F8C73F5A1EF6
:1081D0001346DB009B1ADB004FF4527201FB02F2E4
:1081E00013445B4A981897F8C51F97F8C73F5A1E63
:1081F0001346DB009B1ADB004FF4527201FB02F2C4
:108200001344524A13443822194601F075FB0023E7
:1082100087F8C43F97F8C43F052B72D897F8C50F6D
:1082200097F8C73F5A1E97F8C41F484C1346DB0007
:108230009B1A5B00D22200FB02F213440B4414F899
:108240002330002B57D097F8C50F97F8C73F5A1E19
:1082500097F8C41F3D4C1346DB009B1A5B00D222EB
:1082600000FB02F213440B4414F8234097F8C50FA7
:1082700097F8C73F5A1E97F8C41F344D1346DB00CA
:108280009B1A5B00D22200FB02F213440B449B00BA
:108290002B445A8897F8C70F97F8C53F00930023DF
:1082A000214603F00DFD97F8C50F97F8C73F5A1EFA
:1082B00097F8C41F254C1346DB009B1A5B00D222A3
:1082C00000FB02F213440B44002204F8232097F829
:1082D000C50F97F8C73F5A1E97F8C41F1C4C13468A
:1082E000DB009B1A5B00D22200FB02F213440B441A
:1082F000002204F8232097F8C43F013387F8C43FD5
:1083000088E797F8C73F013387F8C73F1FE7114851
:10831000FBF734FF40F6C41003F06FF897F8C52F51
:10832000074913465B0013445B000B4401221A709B
:1083300013E000BF11E000BF0FE000BF0DE000BF81
:10834000D05C00208878002080710020F871002027
:10835000007900207090002000BF97F8C52F444995
:1083600013465B0013445B000B441B78032B4ED178
:1083700097F8C52F13461B019B1A9B003D4A98187E
:1083800097F8C52F13461B019B1A9B003A4A1344CA
:108390003C22194601F0CEFA0346012B0CBF012303
:1083A0000023DBB2002B0AD097F8C52F30491346C3
:1083B0005B0013445B000B4408221A7047E097F8F7
:1083C000C53F4FF4527202FB03F32C4A981897F8FA
:1083D000C53F4FF4527202FB03F3294A13444FF492
:1083E0005272194601F0A6FA0346012B0CBF012375
:1083F0000023DBB2002B2AD097F8C52F1C49134667
:108400005B0013445B000B4409221A701FE097F8CD
:10841000C52F174913465B0013445B000B441B78C0
:10842000082B0AD097F8C52F114913465B00134457
:108430005B000B441B78092B09D197F8C52F0C4919
:1084400013465B0013445B000B4403221A7097F839
:10845000C53F013387F8C53FFFF717BA09F012F996
:108460000848FBF7ABFE322002F0C7FFFFF70ABA5D
:10847000D05C00208071002088780020F8710020F6
:10848000007900207090002080B582B000AF786045
:1084900039607B68012B0DD13B684FF6FF72934228
:1084A00008D1064803F0FEFD054803F0FBFD054832
:1084B00001F0F8FA00BF0837BD4680BD987F002064
:1084C000AC8700202090002080B500AF4FF6FF71F0
:1084D0000120FFF7D9FF80BD80B500AF09F01EF87D
:1084E000022009F023F8042009F008F9042009F01B
:1084F000FDF8002009F062F9032009F0FFF80320DD
:1085000009F0F4F8002009F0F1F9032009F0D0F99E
:10851000042009F0E1F9002009F0D4F9002009F065
:108520001DF9062009F054F9012009F05BF900203B
:1085300009F062F9002009F0E1F8002009F0D6F80E
:10854000022009F03BF9054B054A1A60054B064A23
:108550001A60064B024A1A6000BF80BD70560020A8
:108560000090D003745600200048E801785600209F
:1085700080B500AFFFF7B0FF40F2023009F0C0F95C
:1085800040F2033009F0BCF94FF4417009F0B8F93A
:1085900040F2053009F0B4F940F2063009F0B0F9C4
:1085A00040F20B3009F0ACF940F2813009F0A8F943
:1085B0004FF4207009F0A4F940F2812009F0A0F9ED
:1085C00040F2093009F09CF940F2862009F098F950
:1085D0004FF4407009F094F940F2993009F090F9A5
:1085E00040F29A3009F08CF94FF4437009F088F9A1
:1085F00040F28E3009F084F940F28F3009F080F9B2
:1086000000BF80BD80B500AF034809F0CBFA034836
:1086100009F0C8FA00BF80BD00380040003C0040AF
:1086200080B582B002AFA02302220321134808F0D4
:10863000ADFF402301220021104808F0A7FF104899
:1086400009F068FA0F4B00221A60002301930023FF
:108650000093012300222021094809F0B0FA0848BC
:1086600009F07AFA064809F085FA054809F08BFA0C
:10867000034809F067FA00BFBD4680BD000801400D
:10868000003001401C30014080B500AF4FF4005372
:1086900001220021104808F079FF4FF40043012225
:1086A00000210D4808F072FF0C4809F033FA0C4B1A
:1086B00000221A60094809F06BFA084809F055FAD7
:1086C0000121064809F073FA044809F053FA0348F7
:1086D00009F038FA00BF80BD000C014000380040AE
:1086E0001C38004080B584B000AF78603960042148
:1086F000254808F003FE254B1B6803F04103002BBF
:1087000014BF01230023DBB2002B04D0204B1B68D5
:10871000DBB2FB73EFE71E4A04211B4808F069FE39
:108720007B681A460421184808F06CFE3B689BB22F
:108730001A460421144808F06EFE0421124808F07D
:108740002BFE0421104808F011FE002204210E48DF
:1087500008F0FFFD002204210B4808F0EDFD4FF466
:1087600040520421084808F0DAFD0421064808F0C8
:108770001CFE0421044808F02AFE064809F00DFA00
:1087800000BF1037BD4680BD0000024008380040E1
:108790000C3800400038004080B500AF4FF48063D3
:1087A00001220021104808F0F1FE4FF4805301220D
:1087B00000210D4808F0EAFE0C4809F0ABF90C4B1B
:1087C00000221A60094809F0E3F9084809F0CDF9D8
:1087D0000121064809F0EBF9044809F0CBF90348F8
:1087E00009F0B0F900BF80BD00100140003C00401E
:1087F0001C3C004080B584B000AF78603960012136
:10880000254808F07BFD254B1B6803F04103002B36
:1088100014BF01230023DBB2002B04D0204B1B68C4
:10882000DBB2FB73EFE71E4A01211B4808F0E1FDB4
:108830007B681A460121184808F0E4FD3B689BB2AA
:108840001A460121144808F0E6FD0121124808F0FB
:10885000A3FD0121104808F089FD002201210E48E6
:1088600008F077FD002201210B4808F065FD4FF468
:1088700040520121084808F052FD0121064808F045
:1088800094FD0121044808F0A2FD064809F085F98D
:1088900000BF1037BD4680BD00040240083C0040C8
:1088A0000C3C0040003C004080B500AFF02111209E
:1088B00009F0F2FA112009F0E1FAF021102009F094
:1088C000EBFA102009F0DAFA00210E2009F0E4FAA0
:1088D0000E2009F0D3FA0021382009F0DDFA382003
:1088E00009F0CCFA20210D2009F0D6FA0D2009F06C
:1088F000C5FA00211A2009F0CFFA1A2009F0BEFAB1
:1089000000211D2009F0C8FA1D2009F0B7FA142033
:1089100009F0B4FAE021142009F0BEFA132009F09E
:10892000ADFAE021132009F0B7FAE021032009F0A5
:10893000B3FA032009F0A2FA00BF80BD80B500AFF2
:1089400008F0FEFF4FF41C71032009F0C9F8002065
:1089500009F05AF8002009F089F8002009F064F8BD
:1089600008F0FCFF00BF80BD80B500AF00F0D8FA72
:108970000121052000F052FA0021062000F04EFAF5
:1089800000211C2000F04AFA00211B2000F046FACA
:108990000321022000F042FA0021032000F03EFAF9
:1089A00003F014FF00BF80BD80B5ADF6280D00AF09
:1089B00008F09EFC0346C7F81438022003F0EAFED4
:1089C000C7F81008D7F81038C7F82438D7F8243873
:1089D000C7F80C384FF0FF33C7F820383B1D4FF471
:1089E00000620021184600F06DFF07F62803A3F689
:1089F0002403664A1A6007F62803A3F6240301221B
:108A00009A7107F62803A3F624030022DA7107F609
:108A10002803A3F624034FF400429A8007F62803A4
:108A2000A3F62403594A9A6007F62803A3F6240301
:108A300001229A7307F62803A3F624030022DA73AF
:108A400007F62803A3F624034FF480429A8107F621
:108A50002803A3F624034E4A1A6107F62803A3F657
:108A6000240301229A7507F62803A3F624030022A3
:108A7000DA7507F62803A3F624034FF400529A820E
:108A800007F62803A3F62403414A9A6107F6280350
:108A9000A3F6240301229A7707F62803A3F62403FA
:108AA0000022DA7707F62803A3F624034FF40062C6
:108AB0009A830023C7F81C38D7F81C38B3F5FF7F1A
:108AC00012D8D7F824381B68D7F820281340C7F8E5
:108AD0002038D7F81C380133C7F81C38D7F82438A9
:108AE0000433C7F82438E7E708F0ECFB3B1D40F2FD
:108AF000FF11184608F0EEFBC7F8080807F6280330
:108B0000A3F62403D7F80828C3F8FC2707F62803A0
:108B1000A3F62403D3F8FC27D7F80C38D3F8FC3796
:108B20009A422ED008F00CFDD7F82038B3F1FF3F61
:108B300003D0D7F8100808F0B7FC0023C7F818389E
:108B4000D7F81838B3F5007F19D2D7F818389B003A
:108B50003A1D1344C7F80438D7F818389A00D7F8E4
:108B600010381A44D7F804381B681946104608F024
:108B700001FDD7F818380133C7F81838E0E708F0D6
:108B8000EBFC00BF07F62807BD4680BD001401407E
:108B90000018014080B582B000AF786039607B6812
:108BA0003A681A62386809F02BF8386809F02DF82D
:108BB00040F27F21386809F037F84FF6FF713868C6
:108BC00009F034F87B6800225A627B68184608373F
:108BD000BD4680BD80B584B000AFF860B960134673
:108BE000FB80FB685B6A032B4BDCFB681B6A184647
:108BF00009F015F8FB68186AFB685B6A234AD35CC6
:108C00000122194609F014F8FB68186AFB685B6AD0
:108C10001E4AD35C0022194609F0D0F8FB685A6A54
:108C2000FB68B96843F82210FB685A6AFB8819464A
:108C300089000B4419468800194603460B449B00E3
:108C400099B2FB68083223F81210FB681A6AFB68B5
:108C50005B6A022101FA03F31946104608F0C3FFCC
:108C6000FB681B6A0021184609F0BAF8FB681B6A0A
:108C7000184608F0CFFFFB685B6A5A1CFB685A6213
:108C800000E000BF1037BD4680BD00BFEC1E0108EC
:108C900080B584B000AF78600023FB607B685B6ABE
:108CA000FA689A4240DA7B681A6A0221FB6801FA84
:108CB00003F31946104608F09AFF0346002B2FD005
:108CC0007B681B6A184609F089F803467B81FB68BC
:108CD0009A007B681B6A134434331B687A68F9680E
:108CE000083132F811201046FA6891007A68126A49
:108CF0000A443432034413607B68FA6853F8223024
:108D000098477B681B6A184609F068F803469AB2D0
:108D10007B89D31A99B27B68FA680C3223F8121057
:108D2000FB680133FB60B9E77B681B6A1E211846AC
:108D300008F063FF00BF1037BD4680BD80B487B028
:108D400000AF786000237B6100233B617B685B6A36
:108D50003A699A421ADA7B683A690C3233F812306F
:108D60001A4613469B0013445B0019467B683A6918
:108D7000083233F8123091FBF3F3FB607A69FB6839
:108D800013447B613B6901333B61DFE77B69184634
:108D90001C37BD4680BC704780B483B000AF03462B
:108DA000FB71FB79034A52F8233018460C37BD4655
:108DB00080BC7047BC55002080B483B000AF034630
:108DC000FB71FB79044A52F823305B1118460C37CB
:108DD000BD4680BC704700BFBC55002080B586B042
:108DE00000AF03460A46FB711346BB71FB79184678
:108DF00003F0D0FC78617B693B61BB79396907F18D
:108E00000802DB000B4493E8030082E80300FB68E0
:108E10005B0918461837BD4680BD000080B483B09A
:108E200000AF03463960FB71FB793A68520104498F
:108E300041F8232000BF0C37BD4680BC704700BFFF
:108E4000BC55002080B483B000AF03463960FB718D
:108E5000FB7904493A6841F8232000BF0C37BD462E
:108E600080BC7047BC55002080B487B000AF7860EC
:108E70000023FB750D4B3B610023FB60FB682A2B35
:108E80000EDC3B699B697A689A4202D1FB68FB75EC
:108E900006E0FB680133FB603B691C333B61EDE797
:108EA000FB7D18461C37BD4680BC7047085100202A
:108EB00080B483B000AF0346FB71FA791346DB0040
:108EC0009B1A9B00034A134418460C37BD4680BCCE
:108ED000704700BF0851002080B483B000AF034644
:108EE000FB71FA790D491346DB009B1A9B000B447A
:108EF0000C331968FA7909481346DB009B1A9B006A
:108F0000034410331B68994214BF01230023DBB2D2
:108F100018460C37BD4680BC704700BF0851002082
:108F200080B500AFFF21002000F002F800BF80BD37
:108F300080B584B000AF03460A46FB711346BB718F
:108F4000114BFB600023BB60BB682A2B18DCFB685D
:108F50009A69FB799A420CD9FB689A69BB799A4263
:108F600007D2BB68DAB2FB685B6919461046FFF7A7
:108F700069FFBB680133BB60FB681C33FB60E3E740
:108F800000BF1037BD4680BD0851002080B483B0BB
:108F900000AF03460A46FB711346BB71FB790449D7
:108FA000BA79CA5400BF0C37BD4680BC704700BFB9
:108FB0003490002080B483B000AF0346FB71FB798E
:108FC000034AD35C18460C37BD4680BC704700BFCF
:108FD0003490002080B483B000AF0023FB71054BB8
:108FE0003B603B689B69DBB218460C37BD4680BCD2
:108FF000704700BF0851002080B584B000AF002347
:10900000FB71134BFB600023BB60BB682A2B17DC92
:10901000BB68DBB21846FFF75FFF0346012B14BFA6
:1090200001230023DBB2002B03D0FB681C3BFB6059
:1090300006E0BB680133BB60FB681C33FB60E4E700
:10904000FB689B69DBB218461037BD4680BD00BF88
:109050000851002080B483B000AF786039607B682D
:10906000012B09D13B684FF6FF72934204D1054BA7
:109070001B68054AC2F8683400BF0C37BD4680BC87
:10908000704700BF6C5600200851002080B500AF2B
:109090004FF6FF710120FFF7DDFF80BD80B483B084
:1090A00000AF78607B6800225A807B6800229A803B
:1090B0007B6818460C37BD4680BC704780B483B0CF
:1090C00000AF78607B6800225A807B6800229A801B
:1090D0007B6818460C37BD4680BC704780B582B0AF
:1090E00000AF78600B46FB701346BB707B68184678
:1090F00007F0EEFC284A7B681A607B68002283F840
:1091000034207B68002283F83B207B68002283F8B0
:109110003C207B683E331846FFF7C0FF7B684C332A
:109120001846FFF7CBFF7B680022A3F864207B681A
:109130000022A3F866207B680022DA667B680022A2
:1091400083F870207B68F022A3F872207B680022ED
:10915000A3F874207B680022A3F87620FB781846D9
:1091600003F0B4FE02467B689A677B689B6F00221F
:109170000A49184603F06AFC7B68BA7883F83D20F8
:109180007B68103320220021184600F09BFB7B688F
:1091900018460837BD4680BD70240108E550FF1809
:1091A00080B483B000AF78607B68DB6D5A1C7B684D
:1091B000DA6500BF0C37BD4680BC704780B485B00F
:1091C00000AF78600B46FB70FB78012B0FD17B68FA
:1091D00093F84C30FB81FB8903F00403FB81FB898E
:1091E000002B0CBF012300237B737B7B01E000BFBE
:1091F000002318461437BD4680BC704780B582B046
:1092000000AF78607B689B79022B31D0022B3CDC6D
:10921000002B02D0012B13D037E07B68002283F8AB
:109220002C207B68002283F83B207B68DB6D1C4A86
:1092300013607B689B790133DAB27B689A7129E00D
:109240007B6893F83D3019467868FFF7B7FF03460F
:10925000002B1ED07B68DA6D114B1B6864339A4279
:1092600017D37B689B790133DAB27B689A7110E07F
:109270007B680022A3F874207B680022A3F8762084
:109280007B6863229A71012305E07B6800229A7152
:1092900000E000BF002318460837BD4680BD00BF70
:1092A0006090002080B483B000AF7860012318463E
:1092B0000C37BD4680BC704780B582B000AF786087
:1092C0007B689B7A022B33D0022B38DC002B02D038
:1092D000012B15D033E07B68B3F86430312B04D810
:1092E0007B6893F83430002B2ED17B68DB6D1A4AF3
:1092F00013607B689B7A0133DAB27B689A7223E051
:109300007B6893F83D3019467868FFF757FF0346AE
:10931000002B1BD07B68DA6D0F4B1B6832339A42EF
:1093200014D37B689B7A0133DAB27B689A720DE0C2
:109330007B689B7A0133DAB27B689A7207E07B68BC
:1093400000229A72012303E000BF00E000BF002367
:1093500018460837BD4680BD6490002080B483B0B5
:1093600000AF78607B68DA6D1B4B1B689A4210D0A7
:109370007B68DB6D184A13607B68B3F87430002B90
:1093800007D07B68B3F87430013B9AB27B68A3F8CE
:1093900074207B68B3F874207B68A3F840207B6856
:1093A0001A8B7B68A3F876207B68B3F876207B68FD
:1093B000A3F842207B68002283F83C207B68B3F846
:1093C0007430002B0CBF01230023DBB218460C378E
:1093D000BD4680BC704700BF6890002080B483B059
:1093E00000AF7860012318460C37BD4680BC70473B
:1093F00080B483B000AF78607B680022A3F840207F
:109400007B680022A3F842207B68012283F83E207B
:1094100000BF0C37BD4680BC7047000090B585B0DA
:1094200000AF78600023FB817B68B3F91E207B6866
:10943000B3F91C309A4204DD7B68B3F91E309BB24D
:1094400003E07B68B3F91C309BB2BB817B685B8B0C
:109450001A46642303FB02F2BB8992FBF3F3FB8100
:109460007B68DA6D304B1B68D31A032B16D97B68E7
:10947000DB6D2D4A13607B68B3F87430FA899A4229
:1094800008D97B68B3F8743001339AB27B68A3F8CB
:10949000742003E07B68012283F83B207B68B3F8EB
:1094A0007430FA899A4203D27B68FA89A3F874204F
:1094B0007B6893F83B30012B1CD17B68B3F84E20BE
:1094C0007B68DB8D9A420ED27B68B3F84E407B6896
:1094D000B3F874305C21184604F012F803469C423D
:1094E00001D2012300E00023002B03D07B6801227E
:1094F00083F82C207B68B3F874207B68A3F84020A5
:109500007B681A8B7B68A3F876207B68B3F876209B
:109510007B68A3F842207B68002283F83E2000BFCE
:109520001437BD4690BD00BF6C90002080B483B05E
:1095300000AF786000BF0C37BD4680BC704780B478
:1095400083B000AF786000BF0C37BD4680BC704769
:1095500080B582B000AF78607B68184607F09EFB4C
:109560007B6893F83C207B6883F8282000BF08378D
:10957000BD4680BD80B483B000AF78607B680222B6
:109580005A7100BF0C37BD4680BC704780B483B0B1
:1095900000AF78607B6805225A7100BF0C37BD466A
:1095A00080BC704780B483B000AF78607B680122D4
:1095B0005A7100BF0C37BD4680BC704780B586B07D
:1095C00000AF78607B681B79092B14BF012300234F
:1095D000DBB21A467B6883F83E207B683E33184630
:1095E00000F07CF878617B68986F08237A691849E5
:1095F00003F0E8FB7B681B7C012B25D17B68DA6DCF
:109600007B685B69D31AB3F5FA7F02D97B680022C5
:109610001A747B6893F83C30002B03D17B680022DE
:109620001A7411E07B6893F83C300C2B04D97B68EA
:10963000062283F83C2007E07B6893F83C30013B2E
:10964000DAB27B6883F83C2000BF1837BD4680BD86
:10965000F4E5061880B586B000AFF860B9607A60AE
:10966000BB681B681C4A934231D1FB684C33796854
:10967000184600F0A2F8FB6893F84C309AB2FB68E9
:109680005A85FB6893F84C30042B14BF0123002348
:10969000FB75FB6893F83C30042B0FD9FB68012263
:1096A0001A74FB68DA6DFB685A61FB6893F83C300A
:1096B0000133DAB2FB6883F83C2009E0FB6893F8D9
:1096C0003C300233DAB2FB6883F83C2000E000BF94
:1096D00000BF1837BD4680BDE550FF182DE9F04F9B
:1096E0008FB000AF78624FF000024FF00003C7E97F
:1096F0000A234FF000024FF00003C7E90C237B6AF6
:109700001B78DBB200223B617A61D7E90423C7E909
:109710000C23D7E90C234FF000004FF0000111009B
:109720000020D7E90A238618BE6141EB0303FB61E1
:10973000D7E90623C7E90A237B6A5B88184600F04D
:1097400032F903469BB20022BB60FA60D7E90223DC
:10975000C7E90C233B6B1D0C3B6B1C04D7E90A23A8
:1097600014EB020A45EB030BC7E90AAB7B6A9B8843
:10977000184600F018F903469BB200223B607A605D
:10978000D7E90034C7E90C34D7E90A01D7E90C233B
:1097900010EB020841EB0309C7E90A897B6A06332B
:1097A00007F128010822184600F0A6F87B6A063364
:1097B00018463C37BD46BDE8F08F2DE9B04F86B066
:1097C00000AF786039604FF000024FF00003C7E946
:1097D00002234FF000024FF00003C7E9042307F112
:1097E000080308223968184600F086F8D7E90223F2
:1097F000C7E90423D7E904234FF0000A03F0FF0B65
:10980000C7E904ABD7E904014FF000024FF00003B1
:109810000A000023D2B27B681A70D7E90223C7E995
:109820000423D7E90423140C24040025C7E90445C4
:10983000D7E904014FF000024FF00003020C42EAA6
:1098400001420B0C92B27B685A807B685B88184699
:1098500000F0A9F803461A467B685A80D7E902232C
:10986000C7E90423D7E904231FFA82F84FF000095F
:10987000C7E904893A8A7B689A807B689B88184686
:1098800000F091F803461A467B689A8000BF1837AB
:10989000BD46BDE8B08F80B485B000AF78600023CE
:1098A000FB6005E07B6801337B60FB680133FB6094
:1098B0007B681B78002BF5D1FB6818461437BD4632
:1098C00080BC704780B487B000AFF8600B467A6008
:1098D000FB72FB687B6104E07B695A1C7A61FA7A4F
:1098E0001A707B685A1E7A60002BF5D100BF00BF4A
:1098F0001C37BD4680BC704780B487B000AFF860AD
:10990000B9607A60FB687B61BB683B6107E03A69DC
:10991000531C3B617B69591C796112781A707B6812
:109920005A1E7A60002BF2D100BF00BF1C37BD4623
:1099300080BC704780B487B000AFF860B9607A60CF
:10994000FB687B61BB683B610BE07B695A1C7A61F9
:109950001A783B69591C39611B789A4201D001235E
:1099600005E07B685A1E7A60002BEED10023184672
:109970001C37BD4680BC704780B485B000AFF8602E
:10998000B9607A6004E0FB681A1DFA60BA681A6070
:109990007B685A1E7A60002BF5D100BF00BF1437D8
:1099A000BD4680BC704780B485B000AF0346FB80E5
:1099B0000023FB81FB887B73FB881B0A9BB23B73F4
:1099C0007B7B9BB21B02FB813B7B9AB2FB891344DE
:1099D000FB81FB8918461437BD4680BC70470000E8
:1099E00080B586B000AFF860B96011461A460B46E4
:1099F000FB8013467B710023FB750223BB7500239C
:109A0000BB82FB68BA681A60FB68FA889A807B7927
:109A1000013B042B21D801A252F823F0319A00080F
:109A2000379A00083D9A0008439A00084D9A0008AA
:109A30000123BB8212E00123BB750FE00023BB753D
:109A40000CE00323FB750023BB7507E00323FB75C4
:109A50000123BB750123BB8200E000BFBB8A012B41
:109A600004D1FB881946B86807F0CAFDFB88BA7DA7
:109A7000F97DB86807F08AFD00BF1837BD4680BD84
:109A800080B582B000AF78607B6800225A707B6836
:109A900000221A70786803F04FFD7B68184608377B
:109AA000BD4680BD80B582B000AF786000F040F860
:109AB0007B6818460837BD4680BD80B500AF00F012
:109AC0009BF900F0CFF900F01BFA00F06BFA00F000
:109AD000BBFA00F00BFB00F031FB00F043FB00F0A1
