:020000040800F2
:1040000000500020C5160108C3160108C11601089A
:10401000C1160108C1160108C11601080000000000
:10402000000000000000000000000000C3160108AE
:10403000C316010800000000C3160108C3160108DA
:10404000C1160108C1160108C11601081570000843
:10405000C1160108C1160108C1160108C1160108E0
:10406000C1160108C1160108C1160108C1160108D0
:10407000C1160108C11601084DAA0008C1160108A1
:10408000C1160108C1160108C1160108BDCC0008FF
:104090008DCC0008A5CC0008C1160108C116010886
:1040A000C1160108C1160108C1160108C116010890
:1040B000C1160108FD6F0008C1160108C1160108EC
:1040C000C1160108C1160108C1160108C116010870
:1040D000C1160108C1160108C1160108C116010860
:1040E000C1160108C1160108C1160108C116010850
:1040F000C1160108C1160108C1160108C116010840
:10410000C1160108C1160108C1160108C11601082F
:10411000C1160108C1160108C1160108C11601081F
:10412000ADAA0008C1160108C1160108C116010890
:10413000C1160108C1160108C116010803CD000807
:10414000D3CC0008EBCC0008C1160108C116010849
:1041500080B582B000AF78607B681A687B689B8806
:10416000194610460CF0BFFE0346002B14BF012376
:104170000023DBB218460837BD4680BD80B582B04B
:1041800000AF78607B681A687B689B881946104688
:104190000CF0A4FE00BF0837BD4680BD80B582B0DC
:1041A00000AF78607B681A687B689B881946104668
:1041B0000CF096FE00BF0837BD4680BD80B582B0CA
:1041C00000AF78607B681A687B689B881946104648
:1041D0000CF08CFE00BF0837BD4680BD80B582B0B4
:1041E00000AF094B1B68FB80142004F0FBFA034668
:1041F0003B60FB883A689A420CBF01230023DBB284
:1042000018460837BD4680BDE8F7FF1F80B500AFF0
:10421000042004F0E7FA0346012B0CBF012300231E
:10422000DBB2002B0ED0274B1B6818460AF0F8FBB8
:10423000244B1A68234B1B681B6824331B681046E9
:1042400098473DE0042004F0CDFA0346022B0CBF52
:1042500001230023DBB2002B32D0242004F0C2FA69
:104260000346012B0CBF01230023DBB2002B0ED031
:10427000154B1B6818460AF0D3FB134B1A68124BF8
:104280001B681B6824331B681046984718E02420DD
:1042900004F0A8FA0346022B0CBF01230023DBB273
:1042A000002B0DD0094B1B6818460AF0B9FB074BD1
:1042B0001A68064B1B681B6824331B681046984716
:1042C00000BF80BD482D00204C2D0020502D002027
:1042D00080B582B000AF0346FB71042004F082FA7F
:1042E0000346012B0CBF01230023DBB2002B04D0BB
:1042F000194B1B68FA795A7129E0042004F072FA0C
:104300000346022B0CBF01230023DBB2002B1ED07F
:10431000242004F067FA0346012B0CBF012300237D
:10432000DBB2002B04D00D4B1B68FA795A710EE0FA
:10433000242004F057FA0346022B0CBF012300236C
:10434000DBB2002B03D0064B1B68FA795A7100BF11
:104350000837BD4680BD00BF482D00204C2D0020F1
:10436000502D002080B500AF042004F03BFA034636
:10437000012B0CBF01230023DBB2002B03D0184B11
:104380001B681B7929E0042004F02CFA0346022B59
:104390000CBF01230023DBB2002B1DD0242004F02E
:1043A00021FA0346012B0CBF01230023DBB2002BB3
:1043B00003D00C4B1B681B790FE0242004F012FA89
:1043C0000346022B0CBF01230023DBB2002B03D0DA
:1043D000054B1B681B7900E00023184680BD00BF19
:1043E000482D00204C2D0020502D002080B483B09B
:1043F00000AF78607B6800225A707B6801229A7057
:104400007B680122DA707B6800221A717B680022C7
:10441000DA807B6800221A817B6800225A817B68DF
:1044200000229A817B680022DA817B6800221A824E
:104430007B6800225A827B6800229A827B68002275
:104440001A637B6818460C37BD4680BC7047000075
:10445000B0B590B000AF7860042004F0C3F9034613
:10446000012B0CBF01230023DBB2002B0ED0324BFB
:104470001B687A68154603F110040FCC0FC50FCCEA
:104480000FC50FCC0FC523682B6051E0042004F04A
:10449000A9F90346022B0CBF01230023DBB2002B3A
:1044A00033D0242004F09EF90346012B0CBF0123D6
:1044B0000023DBB2002B0ED0204B1B687A68154618
:1044C00003F110040FCC0FC50FCC0FC50FCC0FC5D7
:1044D00023682B602CE0242004F084F90346022B8F
:1044E0000CBF01230023DBB2002B0ED0144B1B6842
:1044F0007A68154603F110040FCC0FC50FCC0FC519
:104500000FCC0FC523682B6012E007F10C0318468F
:10451000FFF76CFFFF23FB637B681D4607F10C046C
:104520000FCC0FC50FCC0FC50FCC0FC523682B6068
:1045300078684037BD46B0BD482D00204C2D002086
:10454000502D002084B0B0B500AF07F1100484E80E
:104550000F00042004F046F90346012B0CBF012391
:104560000023DBB2002B0ED0294B1B6803F1100493
:1045700007F110050FCD0FC40FCD0FC40FCD0FC421
:104580002B6823603DE0042004F02CF90346022B45
:104590000CBF01230023DBB2002B32D0242004F017
:1045A00021F90346012B0CBF01230023DBB2002BB2
:1045B0000ED0184B1B6803F1100407F110050FCD46
:1045C0000FC40FCD0FC40FCD0FC42B68236018E0AC
:1045D000242004F007F90346022B0CBF012300231B
:1045E000DBB2002B0DD00C4B1B6803F1100407F15C
:1045F00010050FCD0FC40FCD0FC40FCD0FC42B6806
:10460000236000BFBD46BDE8B04004B0704700BFA6
:10461000482D00204C2D0020502D002080B582B068
:1046200000AF0346FB80042004F0DCF80346012BB6
:104630000CBF01230023DBB2002B0BD0244B1A68E4
:10464000234B1B681B682C331B68B7F906101046F8
:10465000984738E0042004F0C5F80346022B0CBF4D
:1046600001230023DBB2002B2DD0242004F0BAF864
:104670000346012B0CBF01230023DBB2002B0CD01F
:10468000144B1B681846134B1B681B682C331B68A4
:10469000B7F906201146984715E0242004F0A2F847
:1046A0000346022B0CBF01230023DBB2002B0AD0F0
:1046B000094B1A68084B1B681B682C331B68B7F939
:1046C00006101046984700BF0837BD4680BD00BFA2
:1046D000482D00204C2D0020502D002080B483B0A8
:1046E00000AF0346FB71FA79124913465B0013448D
:1046F0005B000B441B78032B13D0FA790D4913464A
:104700005B0013445B000B441B78082B09D0FA793B
:10471000084913465B0013445B000B441B78092BCC
:1047200001D1012300E0002318460C37BD4680BCB0
:10473000704700BF100A002080B582B000AF002390
:10474000FB710023BB71122004F04CF80346002BD0
:1047500007DD0020FFF7C2FF0346002B01D0012335
:1047600000E00023002B02D00123FB7110E0122097
:1047700004F038F80346002B05D11E4B1B78072B9D
:1047800001D1012300E00023002B01D00123FB71A4
:10479000132004F027F80346002B07DD0120FFF764
:1047A0009DFF0346002B01D0012300E00023002BD6
:1047B00002D00123BB7110E0132004F013F803466C
:1047C000002B05D10B4B9B79072B01D1012300E076
:1047D0000023002B01D00123BB71FB79012B04D1F5
:1047E000BB79012B01D1012300E0002318460837D3
:1047F000BD4680BD100A002080B58EB000AFFFF727
:104800009BFF0346002B0CBF01230023DBB2002BD0
:1048100001D0012320E01E2003F0E4FF0346002B1B
:1048200006D00F4B1B681B8D002B01D0012300E02D
:104830000023002B01D001230EE03B1D1846FFF79B
:1048400007FE7B6B002B14BF01230023DBB2002B80
:1048500001D0012300E0002318463837BD4680BD53
:10486000542D0020B0B483B000AF04460846114672
:104870001A462346FB710346BB710B467B711346F8
:104880003B713B79012B15D1FA79B979214813464F
:104890001B019B1A0B44032200F82320FA79B979F3
:1048A0001C4813461B019B1A0B449B00034449F20E
:1048B00080325A80F879BA7979797B790C33DDB214
:1048C000154C1346DB009B1A5B00D22200FB02F260
:1048D00013440B442A4604F823203B79012B02D1D0
:1048E00040F2022500E00225F879BA7979790A4C7C
:1048F0001346DB009B1A5B00D22200FB02F213443A
:104900000B449B0023442A465A8000BF0C37BD4607
:10491000B0BC7047C01E0020381F00202DE9F04FAA
:10492000ABB000AF172003F05DFF0346A7F8A0303F
:10493000B7F8A030032B05D1182003F053FF03462E
:104940009BB206E007F124031846FFF781FDB7F894
:104950005030A7F89E30192003F044FF034687F833
:104960009D301A2003F03EFF034687F89C30D14B60
:104970001B78012B04D0D04B1B78192B40F00282FE
:10498000CC4B1B78012B0FD1162003F02BFF0346D5
:104990009CB207F158031846FFF75AFDB7F8843068
:1049A00023449BB2C54A1380C24A022313700023DA
:1049B00087F8A53097F8A530012B00F2E38197F82E
:1049C000A5301846FFF78AFE0346002B00F0D4817D
:1049D000002387F8A63097F8A520B94913465B0055
:1049E00013445B000B4403331B7897F8A6209A42CC
:1049F00080F0C2816B461E46002387F8A73097F8E7
:104A0000A51097F8A630AF481A4652001A44D300B2
:104A10001A464FF4B47301FB03F3134403441333F6
:104A20001B78591EC7F898100B4601330022BB6152
:104A3000FA61D7E9064522462B469018B8605B41DB
:104A4000FB60D7E90223204612EB0008284643EB1F
:104A500000094FF000024FF000034FEA091343EA48
:104A600018734FEA0812904699460B46013300220C
:104A70003B617A61D7E9044522462B46901838609D
:104A80005B417B60D7E90023204612EB000A2846F1
:104A900043EB000B4FF000024FF000034FEA0B1303
:104AA00043EA1A734FEA0A1292469B460B465A1C77
:104AB00013465B0013445B000733DB08DB00ADEB00
:104AC000030D6B4601335B085B00C7F89430D7F8E1
:104AD000944097F8A51097F8A6307A481A465200E5
:104AE0001A44D3001A464FF4B47301FB03F3134482
:104AF000034413331B781A4613465B0013445B00D0
:104B00001A460021204604F08DFB002387F8A430CC
:104B100097F8A51097F8A6306A481A4652001A442A
:104B2000D3001A464FF4B47301FB03F31344034458
:104B300013331A7897F8A43093423DD2624B1D7814
:104B400097F8A50097F8A63097F8A4105F4C1A467E
:104B50001201D21A53001A464FF4E17300FB03F31B
:104B600013440B445B002344DB881946284607F0B6
:104B7000BFF90346A7F8923097F8A51097F8A6302A
:104B800050481A4652001A44D3001A464FF4B473E0
:104B900001FB03F3134403441333197897F8A4304B
:104BA000B7F89220D7F8940008F0B6F897F8A43038
:104BB000013387F8A430ABE7002387F8A33097F8D8
:104BC000A51097F8A6303F481A4652001A44D30061
:104BD0001A464FF4B47301FB03F313440344133335
:104BE0001A7897F8A330934280F0BF8097F8A320FB
:104BF000D7F8941013465B0013445B000B44043356
:104C00001B88A7F8903097F8A320D7F89410134684
:104C10005B0013445B000B4402331B8887F88F3022
:104C2000254B1B78182B25D8B7F89020B7F89E3065
:104C30009A421FD9244B1C7897F8A51097F8A630F4
:104C400022481A461201D21A93001A464FF4617391
:104C500001FB03F31344034430331B8819462046F9
:104C600007F094F803461A4697F89D30934201D90D
:104C7000012300E00023002B59D0B7F8A030022B0D
:104C800002D0032B2ED05BE00C4B1A88B7F8903083
:104C900093421DD997F88F2097F8A61097F8A50092
:104CA0000123FFF7DFFD97F8A730013387F8A7301E
:104CB00046E000BF00010020582D00205A2D0020A2
:104CC000100A0020200A0020D02C0020F00C002028
:104CD00097F88F2097F8A61097F8A5000023FFF704
:104CE000C1FD2DE0324B1A88B7F89030934214D9A9
:104CF000B7F89020B7F89E309A420ED997F88F20D7
:104D000097F8A61097F8A5000123FFF7ABFD97F8D9
:104D1000A730013387F8A73012E097F88F2097F873
:104D2000A61097F8A5000023FFF79CFD08E097F870
:104D30008F2097F8A61097F8A5000023FFF792FDA3
:104D400097F8A72097F89C309A4208D997F88F20B7
:104D500097F8A61097F8A5000023FFF783FD97F8B2
:104D6000A330013387F8A33029E7B54697F8A6307A
:104D7000013387F8A6302EE697F8A530013387F87F
:104D8000A53017E60B4B1B780133DAB2094B1A70CA
:104D9000084B1B78192B05D9064B00221A70064BBD
:104DA00001221A7000BFAC37BD46BDE8F08F00BFCE
:104DB0005A2D0020582D00200001002080B400AFA3
:104DC00000BFBD4680BC704780B584B000AF0123F2
:104DD0003B7100237B712748FFF7BAF903461A4657
:104DE0007B791344DBB27B712348FFF7B1F90346AB
:104DF0005B007A79DBB21344DBB27B711F48FFF7AB
:104E0000A7F903469B007A79DBB21344DBB27B71CE
:104E10000023BB711A48FFF79BF903461A46BB797A
:104E20001344DBB2BB711748FFF792F903465B00EE
:104E3000BA79DBB21344DBB2BB711348FFF788F9D0
:104E400003469B00BA79DBB21344DBB2BB710F4857
:104E5000FFF77EF90346DB00BA79DBB21344DBB21D
:104E6000BB713B1D184604F0F1FB00BF1037BD4677
:104E700080BD00BFE42D0020EC2D0020F42D00208B
:104E8000AC2D0020B42D0020C42D0020CC2D0020FE
:104E900080B59EB000AF042003F0A4FC0346002BB5
:104EA0000CBF01230023DBB2002B16D09E4B1B78D6
:104EB000012B02D1FFF788FF00E000BF9A4B1B785F
:104EC0000133DAB2984B1A70974B1B78022B40F0E3
:104ED0001681954B01221A7011E1042003F082FC27
:104EE0000346002B14BF01230023DBB2002B00F08C
:104EF0000681FFF769FFFFF789F9042003F072FCD0
:104F00000346022B0BD0042003F06CFC0346012B5C
:104F100007D11D2003F066FC0346012B01D10123BC
:104F200000E0002387F87730804B1B78012B70D18D
:104F3000FFF702FC0346002B0AD0FFF713FA0346E3
:104F4000012B05D197F87730002B01D0012300E029
:104F50000023002B10D007F10C031846FFF778FA56
:104F6000FB6B002B0CBF01230023DBB2002B5ED0B8
:104F70000220FFF7ADF95AE0FFF7DEFB0346002BF6
:104F800006D0FFF7EFF90346072B01D1012300E01C
:104F90000023002B03D00520FFF79AF947E0FFF725
:104FA000CBFB0346002B0BD1FFF7DCF90346042BA8
:104FB00006D0FFF7D7F90346012B01D0012300E00B
:104FC0000023002B0DD00120FFF782F9FFF7B4FB7F
:104FD0000346002B0CBF01230023DBB287F8763099
:104FE00025E007F140031846FFF732FA3B6F002B2C
:104FF00014BF01230023DBB2002B18D00120FFF7E0
:1050000067F94A4B00221A70494B1B68494A1360E2
:105010000DE0484B1B6803F5FA72454B1B689A423A
:1050200005D2FFF789FB03461A46404B1A7004204D
:1050300003F0D8FB0346012B0CBF01230023DBB296
:10504000002B48D03C4B1B68184603F0BBFD3A4B85
:105050001B68184603F056FF374B1B681B8D002B4F
:105060002ED0354B1B681B7C012B0AD1324B1B68A1
:105070001B79012B05D1304B1B68184603F04EFFFE
:105080001EE02D4B1B681B7C012B0AD12A4B1B6891
:105090001B79072B05D1284B1B68184603F04AFFE4
:1050A0000EE0254B1B681B7C002B09D1224B1B6893
:1050B0001B79092B04D1204B1B68184603F046FFCF
:1050C000FFF79AFB0346002B19D01B4B1B681846B1
:1050D00003F03CFF13E0184B1B681B79012B0ED02B
:1050E000154B1B68184603F00DFF134B1B68184641
:1050F00003F068FD104B1B68184603F027FF0F4BA9
:105100001B78012B05D1FFF759FE0C4B00221A70BA
:1051100005E00A4B1B780133DAB2084B1A7000BF66
:105120007837BD4680BD00BF010100205D2D002005
:10513000D42C0020602D0020542D00205C2D002058
:1051400080B582B000AF164B1B68184603F00CFB0D
:1051500003465B017B607B68124A82FB031292105C
:10516000DB17D31A1946232003F06EFB07F04CF827
:1051700003461946222003F067FB042003F032FBAC
:105180000346002B14BF01230023DBB2002B02D007
:105190006420FFF743FA00BF0837BD4680BD00BF5B
:1051A000C00500206766666680B500AF1948FFF746
:1051B00005F8042003F016FB0346002B07DD17203B
:1051C00003F010FB0346002B01DD012300E0002368
:1051D000002B01D0FFF7A2FB042003F003FB0346E2
:1051E000012B0CBF01230023DBB2002B0FD01E20AC
:1051F00003F0F8FA0346002B14BF01230023DBB2AF
:10520000002B04D0044B1B68184603F0ABFE00BF14
:1052100080BD00BFA42D0020542D002080B400AF1D
:1052200000BFBD4680BC704780B500AF104B1B78F7
:10523000012B05D1FFF7F2FF0D4B00221A7005E09C
:105240000B4B1B780133DAB2094B1A70094B1B78F0
:10525000032B05D1FFF7A8FF064B00221A7005E0CB
:10526000044B1B780133DAB2024B1A7000BF80BDC9
:10527000642D0020652D0020B0B5B4B00AAF184BE6
:105280001B780133DAB2164B1A70164BDA78144BCE
:105290001B789A4294BF01230023DAB2124B1B7889
:1052A000002B0CBF01230023DBB21340DBB2002B29
:1052B0001ED00B4B00221A700B4B1B780133DAB255
:1052C000094B1A70094B1B780133DAB2074B1A707D
:1052D000064B1B78052B32D9044B01221A702EE0A5
:1052E000672D0020100A0020682D002004010020F6
:1052F000BC4B5A7ABC4B1B789A4294BF01230023C3
:10530000DAB2BA4B1B78012B0CBF01230023DBB2AE
:105310001340DBB2002B12D0B34B00221A70B34BF8
:1053200000221A70B24B5B780133DAB2B04B5A707C
:10533000AF4B5B78052B02D9AD4B01225A70AB4BBA
:105340001B781946A74A0B465B000B445B001344CD
:1053500003331B781B01DAB2A34B1B781344DBB277
:1053600087F88030A14B1B7819469E4A0B465B009C
:105370000B445B0013441B781B01DAB29B4B1B7878
:105380001344DBB287F88130984B1B781846964B54
:105390001B781A46974913461B019B1A9B004FF432
:1053A000617200FB02F213440B4404331B88A7F81C
:1053B0008230914B18788D4B1B781C468A4B1B789A
:1053C0001A468C4913461B019B1A9B004FF46172CD
:1053D00004FB02F213440B4430331B88194606F0D9
:1053E000D5FC03469BB2A7F88430804B1B78194646
:1053F0007D4B1B781846814A0B461B015B1A034400
:105400009B01134404331B8803F080039BB2A7F86D
:105410008630764B1B781846734B1B781A467549B5
:1054200013461B019B1A9B004FF4617200FB02F2B2
:1054300013440B4406331B88A7F878306B4B1B785A
:105440001846694B1B781A466A4913461B019B1A7A
:105450009B004FF4617200FB02F213440B440833CB
:105460001B88A7F87A30614B1B7818465E4B1B7877
:105470001A46604913461B019B1A9B004FF4617248
:1054800000FB02F213440B440A331B88A7F87C305C
:10549000564B1B781846544B1B781A4655491346F1
:1054A0001B019B1A9B004FF4617200FB02F2134434
:1054B0000B440C331B88A7F87E304C4B1B781846E6
:1054C000494B1B781A464B4913461B019B1A9B00FC
:1054D0004FF4617200FB02F213440B440E331B883D
:1054E000A7F87030414B1B7818463F4B1B781A4683
:1054F000404913461B019B1A9B004FF4617200FB4D
:1055000002F213440B4410331B88A7F87230374B58
:105510001B781846344B1B781A46364913461B0134
:105520009B1A9B004FF4617200FB02F213440B4480
:1055300012331B88A7F874302C4B1B7818462A4B63
:105540001B781A462B4913461B019B1A9B004FF4EC
:10555000617200FB02F213440B4414331B88A7F85A
:105560007630224B1B7818461F4B1B781A46214970
:1055700013461B019B1A9B004FF4617200FB02F261
:1055800013440B4416331B88A7F86830174B1B785D
:105590001846154B1B781A46164913461B019B1AD1
:1055A0009B004FF4617200FB02F213440B4418336A
:1055B0001B88A7F86A300D4B1B7818460A4B1B78DE
:1055C0001A460C4913461B019B1A9B004FF461724B
:1055D00000FB02F213440B441A331B88A7F86C300B
:1055E0000EE000BF100A0020672D0020682D00206B
:1055F00004010020F00C0020D02C002040170020D7
:10560000C64B1B781846C64B1B781A46C54913462D
:105610001B019B1A9B004FF4617200FB02F21344C2
:105620000B441C331B88A7F86E30012387F86030C9
:10563000002387F86130B94B1B781846B84B1B78AC
:105640001A46B84913461B019B1A9B004FF461721E
:1056500000FB02F213440B4422331B88A7F862308C
:10566000AE4B1B781846AE4B1B781A46AD49134615
:105670001B019B1A9B004FF4617200FB02F2134462
:105680000B4424331B88A7F86430A44B1B781846BE
:10569000A34B1B781A46A34913461B019B1A9B0078
:1056A0004FF4617200FB02F213440B4426331B8853
:1056B000A7F86630022387F85830002387F859305E
:1056C000964B1B781846964B1B781A4695491346FD
:1056D0001B019B1A9B004FF4617200FB02F2134402
:1056E0000B4428331B88A7F85A308C4B1B7818467C
:1056F0008B4B1B781A468B4913461B019B1A9B0048
:105700004FF4617200FB02F213440B442A331B88EE
:10571000A7F85C30814B1B781846814B1B781A46E2
:10572000804913461B019B1A9B004FF4617200FBDA
:1057300002F213440B442C331B88A7F85E3003237A
:1057400087F85030002387F85130744B1B78184687
:10575000734B1B781A46734913461B019B1A9B0017
:105760004FF4617200FB02F213440B442E331B888A
:10577000A7F85230042387F84830684B1B78184646
:10578000674B1B781A4668491346DB009B1A9B003F
:105790004FF4D27200FB02F213440B4408331B880F
:1057A000DBB287F849305D4B1B7818465C4B1B78A1
:1057B0001A465C4913461B019B1A9B004FF4617209
:1057C00000FB02F213440B4436331B88A7F84A301F
:1057D000524B1B781846524B1B781A4651491346B8
:1057E0001B019B1A9B004FF4617200FB02F21344F1
:1057F0000B4438331B68FB64052387F840304B4B60
:105800001878464B1B781C46454B1B781A46454971
:1058100013461B019B1A9B004FF4617204FB02F2BA
:1058200013440B4422331B880122194606F04EFA1A
:10583000034687F841303D4B1878384B1B781C469F
:10584000374B1B781A46374913461B019B1A9B009E
:105850004FF4617204FB02F213440B4424331B889F
:105860000222194606F032FA034687F842302F4BDF
:1058700018782A4B1B781C46294B1B781A46294955
:1058800013461B019B1A9B004FF4617204FB02F24A
:1058900013440B4426331B880322194606F016FADC
:1058A000034687F84330214B18781C4B1B781C4665
:1058B0001B4B1B781A461B4913461B019B1A9B0066
:1058C0004FF4617204FB02F213440B4428331B882B
:1058D0000422194606F0FAF9034687F84430134BC0
:1058E00018780E4B1B781C460D4B1B781A460D4939
:1058F00013461B019B1A9B004FF4617204FB02F2DA
:1059000013440B442A331B880522194606F0DEF99E
:10591000034687F84530054B187809E0682D0020CC
:10592000672D0020F00C0020F8130020D02C002060
:105930009F4B1B781C469F4B1B781A469E4913466B
:105940001B019B1A9B004FF4617204FB02F213448B
:105950000B442C331B880622194606F0B7F9034680
:1059600087F84630954B1878914B1B781C46914B25
:105970001B781A46904913461B019B1A9B004FF453
:10598000617204FB02F213440B442E331B8807227E
:10599000194606F09BF9034687F84730844B1B787D
:1059A0001946874A4FF4D27301FB03F313440233C1
:1059B0001B88DBB287F83C307D4B1B781946804A48
:1059C0004FF4D27301FB03F313441B88DBB287F857
:1059D0003D30774B1B781946794A4FF4D27301FB5F
:1059E00003F313440C331B881B0A9BB2DBB287F80A
:1059F0003E306F4B1B781946714A4FF4D27301FB4E
:105A000003F313440C331B881B0A9BB2DBB287F8E9
:105A10003F3007F18003184603F04CFE644B1B78BF
:105A20001846FEF75BFE0346002B4FD007F17803C4
:105A3000184603F08BFE07F17003184603F0D6FEFC
:105A400007F16803184603F021FF594B1B781A46EB
:105A50005C4B9B5C012B04D107F16003184603F0FB
:105A600065FF534B1B781A46564B9B5C022B04D1A7
:105A700007F15803184603F059FF4D4B1B781A469F
:105A8000504B9B5C032B04D107F15003184603F0E5
:105A90004DFF474B1B781A464A4B9B5C042B04D1A5
:105AA00007F14803184603F041FF414B1B781A46A3
:105AB000444B9B5C052B04D107F14003184603F0CF
:105AC00035FF07F13803184603F056FF042002F0B3
:105AD00089FE0346002B14BF01230023DBB2002BF9
:105AE00000F04082324B1B781846FEF7F7FD034664
:105AF000002B00F037823B1D1846FEF777FC002391
:105B00007B714FF6FF73A7F8A6300023A7F8A430E7
:105B10004FF6FF73A7F8A2300023A7F8A0300023A8
:105B2000C7F89C300023C7F89830D7F89830012B7D
:105B30004CDCD7F89830DBB21846FEF7CFFD0346B1
:105B4000002B2ED00023C7F894301F49D7F8982097
:105B500013465B0013445B000B4403331B781A4667
:105B6000D7F8943093421CDA1348D7F89420D7F82A
:105B7000981013461B019B1A9B004FF4617201FBA6
:105B800002F21344034404331B881A46D7F89C30AE
:105B90001344C7F89C30D7F894300133C7F89430D9
:105BA000D3E7D7F898300133C7F89830BDE700BF86
:105BB000682D0020672D0020F00C0020D02C002044
:105BC000F813002004010020100A0020B04B1B78BD
:105BD000D7F89C10184606F0B7F903469BB27B81B4
:105BE0000023C7F89030AB4B1B781946AA4A0B46E6
:105BF0005B000B445B00134403331B781A46D7F851
:105C00009030934280F250810023C7F88C30A14B32
:105C10001B781846A149D7F8902013465B0013441F
:105C2000DB004FF4B47200FB02F213440B44133355
:105C30001B781A46D7F88C30934280F2A280954B9D
:105C40001B781A46964913461B019B1AD7F89020D9
:105C500013449B010B443E331B8819460122D7F89D
:105C60008C3002FA03F30B40002B40F38480894B05
:105C70001B7818468B49D7F8902013461B019B1AB6
:105C80005B004FF4E17200FB02F21A44D7F88C304B
:105C900013445B000B44DB88B7F8A4209A4228D257
:105CA0007C4B1B7818467F49D7F8902013461B0180
:105CB0009B1A5B004FF4E17200FB02F21A44D7F822
:105CC0008C3013445B000B44DB88A7F8A430704B86
:105CD0001B78B7F8A4201146184606F009F90346C8
:105CE0007B85D7F88C309BB23B85D7F890309BB240
:105CF000FB84684B1B7818466A49D7F890201346F6
:105D00001B019B1A5B004FF4E17200FB02F21A4484
:105D1000D7F88C3013445B000B44DB88B7F8A6201F
:105D20009A4228D95B4B1B7818465E49D7F89020D9
:105D300013461B019B1A5B004FF4E17200FB02F259
:105D40001A44D7F88C3013445B000B44DB88A7F867
:105D5000A6304F4B1B78B7F8A6201146184606F020
:105D6000C7F803463B86D7F88C309BB2FB85D7F843
:105D700090309BB2BB85D7F88C300133C7F88C309C
:105D800045E7444B1B7818464649D7F89020134600
:105D90001B019B1A9B004FF4617200FB02F213443B
:105DA0000B442A331B88184604F00AFE034687F882
:105DB0008B30384B1B7818463A49D7F89020134659
:105DC0001B019B1A9B004FF4617200FB02F213440B
:105DD0000B442C331B88184604F0F2FD034687F869
:105DE0008A3097F88B309BB2B7F8A2209A420CD930
:105DF00097F88B30A7F8A230B7F8A230BB84012304
:105E00007B84D7F890309BB23B8497F88B309BB261
:105E1000B7F8A0209A420CD297F88B30A7F8A030A0
:105E2000B7F8A030FB830123BB83D7F890309BB237
:105E30007B8397F88A309BB2B7F8A2209A420CD99C
:105E400097F88A30A7F8A230B7F8A230BB840123B4
:105E50007B84D7F890309BB23B8497F88A309BB212
:105E6000B7F8A0209A420CD297F88A30A7F8A03051
:105E7000B7F8A030FB830123BB83D7F890309BB2E7
:105E80007B83D7F890300133C7F89030ABE600BF82
:105E9000D02C0020682D0020100A0020200A0020AD
:105EA00040170020F00C00203B8E1946374805F0C3
:105EB00071FE03469BB23B82B7F8A030FB81012301
:105EC0003B72072002F08EFC0246314B1B6892B2F7
:105ED0005A83092002F086FC02462D4B1B6892B2C1
:105EE0001A837B8D1946294805F054FE03461A464D
:105EF000274B1B6892B29A843B8E1946234805F0C3
:105F000049FE03461A46224B1B6892B2DA84204BA4
:105F10001B68B7F9A0205A841D4B1B68B7F9A22053
:105F20001A841B4B1C68B7F8A2301946194805F0B3
:105F300031FE0346A383164B1C68B7F8A030194600
:105F4000144805F027FE0346E3836D4607F1140469
:105F50000FCC0FC50FCC0FC523682B603B1D0FCB9B
:105F6000FEF7F0FA0C4B1B78012B05D1FFF7E8F890
:105F7000094B00221A7005E0074B1B780133DAB297
:105F8000054B1A7000BFA837BD46B0BDD82C002005
:105F9000542D0020E82C0020662D002080B582B012
:105FA00000AF0346FB71102002F01CFC0346DAB27E
:105FB000024B1A7000BF0837BD4680BDD02C0020B0
:105FC00080B400AF044B00225A70034B00221A70B9
:105FD00000BFBD4680BC7047CC05002080B582B0B4
:105FE00000AF78600A4B5B781B01094A1344043305
:105FF00018227968184603F02FF9054B5B780133B6
:10600000DAB2034B5A7000BF0837BD4680BD00BFEF
:10601000CC05002080B500AF0B4B5B78002B11D076
:10602000094B1B781B01084A13440433074A1268C2
:106030001146184603F065FA034B1B780133DAB2B8
:10604000014B1A7000BF80BDCC050020C4050020A4
:1060500080B588B000AFF860B96011461A460B46AB
:10606000FB711346BB71BB6AFB61FFF7A9FF0023FD
:106070007B83BB799B08DBB23B83BB7903F00303D3
:10608000002B02DD3B8B01333B837B8BDAB2FB6859
:10609000DA723B8B1B0A9BB2DAB2FB689A733B8BBA
:1060A000DAB2FB68DA73F868FFF798FFBB79002B68
:1060B0003CD0BB79FB75FB7D042B01D90423FB7518
:1060C000FB6800221A73FB6800225A73FB680022E7
:1060D0009A73FB680022DA73FB680C33FA7DF96966
:1060E000184603F0B9F8BA79FB7DD31ABB71FB7D72
:1060F000FA691344FB617B8B01337B837B8B1B0A27
:106100009BB2DAB2FB689A727B8BDAB2FB68DA7206
:10611000BB79002B06D1FB689B7A63F07F03DAB270
:10612000FB689A72F868FFF759FFBFE7FFF772FF45
:1061300000BF2037BD4680BD80B586B002AFF86095
:10614000B9603B601346FB71FA793B6800931346D4
:106150000022B968F868FFF77BFF00BF1037BD4623
:1061600080BD80B483B000AF78607B6810229A75E0
:106170007B6818460C37BD4680BC7047B0B5B6B0DA
:1061800000AFF860B9601346FB71002387F8D03088
:10619000BB68C7F8CC30002387F8CB300023A7F8C2
:1061A000C830002387F8C730002387F8C6300023A3
:1061B00087F8C530002387F8D730002387F8D6301A
:1061C00007F14C031846FFF7CCFFFB68B3F5B36F3C
:1061D00012D0FB68B3F5B36F00F2B985FB6840F2EB
:1061E0009652934200F0AF85FB6840F2975293427B
:1061F00000F0A58500F0ABBDD7F8CC301B7887F850
:10620000D03007F164030822D7F8CC10184603F009
:1062100023F897F8D030FF2B00F0C384FF2B00F356
:10622000FC85FE2B00F03282FE2B00F3F685212B3D
:106230004CDC002B40F3F185013B202B00F2ED8577
:1062400001A252F823F000BFD762000821630008C2
:106250001B6E00081B6E0008576300081B6E0008C9
:106260001B6E00081B6E00081B6E00081B6E0008EA
:106270001B6E00081B6E00081B6E00081B6E0008DA
:106280001B6E0008A56300081B6E00081B6E00084B
:106290001B6E00081B6E00081B6E00081B6E0008BA
:1062A0001B6E00081B6E00081B6E00081B6E0008AA
:1062B0001B6E00081B6E00081B6E00081B6E00089A
:1062C0001B6E00081964000807650008FD2B00F02C
:1062D000DB8100F0A2BD97F86530012B0DD197F856
:1062E0006630012B04D1D04B01221A7000F019BD89
:1062F000CD4B07221A7000F014BD97F86530022BC1
:1063000040F00F8597F86630012B04D1C64B01226F
:106310009A7100F006BDC44B07229A7100F001BDCE
:1063200097F86530012B08D197F8663003F00F031A
:10633000DAB2BD4BDA7000F0F6BC97F86530022B8C
:1063400040F0F18497F8663003F00F03DAB2B64BF1
:106350005A7200F0E8BC97F86530012B04D097F82A
:106360006530022B40F0E18497F86630002B08D0AE
:1063700097F86630012B04D097F86630022B40F076
:10638000D48497F866301946052002F05DFA97F834
:106390006530013B1946062002F056FA05F018FE5A
:1063A00000F0C3BC97F8653003F00103002B03D065
:1063B0009E48FDF7E3FE02E09C48FDF7EFFE97F8EC
:1063C000653003F00203002B03D09948FDF7D6FE99
:1063D00002E09748FDF7E2FE97F8653003F004030A
:1063E000002B03D09348FDF7C9FE05E09148FDF767
:1063F000D5FE9148FDF7D2FE97F8653003F008030B
:10640000002B04D08D48FDF7B9FE00F097BC8B48F7
:10641000FDF7C4FE00F092BC97F86530013B87F8A9
:10642000CB3097F866309BB203F00F03A7F8C83063
:1064300097F8673003F00F0387F8C73097F8C73035
:10644000013B87F8D73097F8C73087F8D63097F8F0
:10645000CB30002B04D097F8CB30012B40F0678471
:1064600097F86730002B0ED1002387F8D73097F8C4
:10647000CB206D4913465B0013445B000B44033390
:106480001B7887F8D6300023A7F8D43097F8663009
:10649000012B04D149F28033A7F8D43008E097F8F3
:1064A0006630002B40F0BA844FF41343A7F8D43081
:1064B00097F8D73087F8D33097F8D32097F8D630AD
:1064C0009A4280F0348497F8CB2097F8D3105C4838
:1064D00013461B019B1A0B44032200F8232097F854
:1064E000CB2097F8D310564813461B019B1A0B4438
:1064F0009B000344B7F8D4205A8097F8D330013377
:1065000087F8D330D8E797F8653087F8CB3097F81D
:106510006630A7F8C83097F8673003F00F0387F8A4
:10652000C73097F8C730013B87F8D73097F8C730A6
:1065300087F8D63097F8CB30012B04D097F8CB30C2
:10654000022B40F0F68397F8CB30013B87F8CB3035
:10655000002387F8C6300E2387F8C53097F86730D8
:10656000002B0ED1002387F8D73097F8CB202E4987
:1065700013465B0013445B000B4403331B7887F81E
:10658000D63097F8D73087F8D23097F8D22097F8DE
:10659000D6309A4280F0CD8397F8C63087F8D13054
:1065A00097F8D12097F8C5309A4267D297F8CB0078
:1065B00097F8D22097F8D11097F8D1300C33DDB28C
:1065C000204C1346DB009B1A5B00D22200FB02F238
:1065D00013440B442A4604F82320B7F8C8305AB2B3
:1065E00097F8D130012101FA03F35BB213405BB29B
:1065F00087F86C3097F86C30002B25D097F8CB00DB
:1066000097F8D22097F8D1100E4C1346DB009B1A56
:106610005B00D22200FB02F213440B449B00234494
:1066200040F202225A8023E0100A0020AC2D002004
:10663000B42D0020C42D0020BC2D0020CC2D002026
:10664000C01E0020381F002097F8CB0097F8D220FA
:1066500097F8D110CB4C1346DB009B1A5B00D2227B
:1066600000FB02F213440B449B00234402225A8095
:1066700097F8D130013387F8D13091E797F8D230CD
:10668000013387F8D23080E7FFF7C4FC97F8653014
:10669000002B00F0508397F86530012B02D101F0F8
:1066A0006FFF48E397F86530022B02D105F090FCAC
:1066B00041E397F86530032B35D102F0B3F9034677
:1066C00087F86E3002F09CF9034687F86D3040F28F
:1066D0009953FB6408233B65002387F85C30FE2355
:1066E00087F8543097F8653087F85530002387F8DD
:1066F0005630012387F85730002387F8583000239D
:1067000087F8593097F86D3087F85A3097F86E301F
:1067100087F85B309C4B1A6807F14C03114618460A
:1067200002F0D8FE07E397F86530042B4ED197F8B6
:10673000663087F87A3097F87A30184602F0AAF86F
:10674000034687F8793097F87930184602F0DAF87E
:106750000346012B0CBF01230023DBB2002B00F00A
:10676000EA8297F87930184602F0B8F878677B6FBC
:106770005B683B67386F02F03EFD034687F86F3079
:1067800040F29953FB6408233B65002387F85C3093
:10679000FE2387F8543097F8653087F8553000238A
:1067A00087F8563097F87A301B12DBB287F85830EA
:1067B00097F87A3087F8593097F86F2007F164011D
:1067C00007F14C003B6FFFF7B7FCB4E297F8653078
:1067D000052B50D197F8663087F8873097F88730C7
:1067E000184602F057F8034687F8863097F8863047
:1067F000184602F087F80346012B0CBF0123002343
:10680000DBB2002B00F0978297F88630184602F032
:1068100065F8C7F88000D7F880309B68FB67F86F91
:1068200002F0E9FC034687F87B3040F29953FB64A1
:1068300008233B65002387F85C30FE2387F854303B
:1068400097F8653087F85530002387F8563097F869
:1068500087301B12DBB287F8583097F8873087F8FB
:10686000593097F87B2007F1640107F14C00FB6F6A
:10687000FFF762FC5FE297F86530062B40F08680F8
:1068800097F8663087F88E3097F88E30184602F009
:1068900001F8034687F88D3097F88D30184602F0DE
:1068A00031F80346012B0CBF01230023DBB2002B80
:1068B00000F0418297F88D30184602F00FF8C7F8C3
:1068C000880040F29953FB6408233B65002387F856
:1068D0005C30FE2387F8543097F8653087F85530E0
:1068E00097F88E3087F85630012387F85730D7F85D
:1068F0008830DB685B113B6207F1200107F14C0334
:106900000C330422184602F0A7FC1F4B1A6807F14B
:106910004C031146184602F0DDFD022387F857307C
:10692000D7F888301B695B11FB6107F11C0107F187
:106930004C030C330422184602F08EFC124B1A68EA
:1069400007F14C031146184602F0C4FD032387F8F3
:10695000573097F88D30184601F044FF0346BB616D
:1069600007F1180107F14C030C330422184602F01A
:1069700073FC054B1A6807F14C031146184602F0E8
:10698000A9FDD8E1381F0020C405002097F8653024
:10699000072B53D197F8663087F8993097F89930DC
:1069A000184601F077FF034687F8983097F898303B
:1069B000184601F0A7FF0346012B0CBF012300235B
:1069C000DBB2002B00F0B78197F89830184601F041
:1069D00085FFC7F89400D7F894301B68C7F890304B
:1069E000D7F8900002F007FC034687F88F3040F29A
:1069F0009953FB6408233B65002387F85C30FE2332
:106A000087F8543097F8653087F85530002387F8B9
:106A1000563097F899301B12DBB287F8583097F848
:106A2000993087F8593097F88F2007F1640107F102
:106A30004C00D7F89030FFF77FFB7CE197F865308A
:106A40000A2B2CD1022387F89A3040F29953FB6429
:106A500008233B65002387F85C30FE2387F8543019
:106A600097F8653087F85530002387F856300023B3
:106A700087F8573097F89A307B6107F1140107F1D6
:106A80004C030C330422184602F0E6FBBD4B1A6897
:106A900007F14C031146184602F01CFD4BE197F834
:106AA00065300B2B3DD197F8663087F8A23097F808
:106AB00066301946B44A0B469B000B44DB00134476
:106AC0001B68C7F89C30D7F89C0002F094FB034683
:106AD00087F89B3040F29953FB6408233B65002301
:106AE00087F85C30FE2387F8543097F8653087F8D4
:106AF0005530002387F8563097F8A2301B12DBB2CE
:106B000087F8583097F8A23087F8593097F89B20CB
:106B100007F1640107F14C00D7F89C30FFF70CFB3C
:106B200009E197F865300C2B40F0058197F8663045
:106B300087F8AB3097F866301946934A0B469B00AE
:106B40000B44DB00134424331B68C7F8A430102324
:106B500087F8A33040F29953FB6408233B65002378
:106B600087F85C30FE2387F8543097F8653087F853
:106B70005530002387F8563097F8AB301B12DBB244
:106B800087F8583097F8AB3087F8593097F8A3203A
:106B900007F1640107F14C00D7F8A430FFF7CCFAF5
:106BA000C9E097F86730012B4CD197F865301B028C
:106BB00097F866201344C7F8B430D7F8B40001F052
:106BC00069FE034687F8B33097F8B330184601F0F2
:106BD00009FEC7F8AC0040F29953FB6408233B65FB
:106BE000002387F85C30FF2387F8543097F865302E
:106BF00087F8553097F8663087F8563097F8673041
:106C000087F85730D7F8AC301B16DBB287F858300E
:106C1000D7F8AC301B14DBB287F85930D7F8AC305A
:106C20001B12DBB287F85A30D7F8AC30DBB287F8EA
:106C30005B30544B1A6807F14C031146184602F0BA
:106C400049FC7AE097F86730022B76D197F86530E7
:106C50001B0297F866201344C7F8C030D7F8C0006D
:106C600001F018FE034687F8BF3097F868301A061F
:106C700097F869301B041A4497F86A301B021344D2
:106C800097F86B201344C7F8B830D7F8C0300A2BF8
:106C900004D8FDF7A3FA0346002B01D0012300E03E
:106CA0000023002B06D097F8BF30D7F8B81018464D
:106CB00001F0CAFD40F29953FB6408233B650023B1
:106CC00087F85C30FF2387F8543097F8653087F8F1
:106CD000553097F8663087F8563097F8673087F860
:106CE0005730D7F8B8301B16DBB287F85830D7F8D2
:106CF000B8301B14DBB287F85930D7F8B8301B1204
:106D0000DBB287F85A30D7F8B830DBB287F85B309F
:106D10001C4B1A6807F14C031146184602F0DAFBC7
:106D20000BE000BF79E000BF77E000BF75E000BF77
:106D300073E000BF71E000BF6FE000BF6DE064234F
:106D400087F8D0306AE06E2387F8D03066E0FB68C1
:106D5000BB63FB79BB64042001F044FD0346012BB7
:106D60000CBF01230023DBB2002B11D0074B1868A6
:106D7000064B1B681B6828331B6807F13801BA688B
:106D800098473DE0C4050020F82C0020482D002045
:106D9000042001F027FD0346022B0CBF0123002332
:106DA000DBB2002B2CD0242001F01CFD0346012B6C
:106DB0000CBF01230023DBB2002B0BD0194B18684A
:106DC000184B1B681B6828331B6807F13801BA6829
:106DD000984715E0242001F005FD0346022B0CBF67
:106DE00001230023DBB2002B0AD00F4B18680E4B97
:106DF0001B681B6828331B6807F13801BA6898477D
:106E0000FB687B62FB797B63084B1B6807F12401FD
:106E1000BA68184602F0E8F800E000BFD837BD466F
:106E2000B0BD00BF4C2D0020502D0020542D00205F
:106E300080B500AF02225249524802F09DFE032263
:106E40004F49514802F098FE00224D494F4802F048
:106E500093FE01224A494E4802F08EFE00224D491F
:106E60004D4802F089FE06224A494C4802F084FE51
:106E7000042304224A494B4802F060FA04234FF4E9
:106E800000424949494802F059FA04234FF480422C
:106E90004549474802F052FA04234FF40052424950
:106EA000444802F04BFA04234FF400523C49424854
:106EB00002F044FA04234FF4006239493F4802F0DB
:106EC0003DFA04234FF4806237493D4802F036FA18
:106ED00004234FF4006234493A4802F02FFA0223A7
:106EE00010223149384802F029FA022320222E4983
:106EF000364802F023FA022340222B49344802F09C
:106F00001DFA022380222849324802F017FA04238E
:106F10004FF480721F49304802F010FA04234FF4F6
:106F200080522E492E4802F009FA02234FF40072D3
:106F300013492C4802F002FA02234FF480721049E0
:106F4000294802F0FBF9042380220D49274802F06A
:106F5000F5F9042340220A49254802F0EFF90223FB
:106F60004FF480721049234802F0E8F902232022EE
:106F70000349214802F0E2F902F094FD00BF80BD10
:106F800000100140AC300020B0300020B4300020B0
:106F9000B830002000080140BC300020C030002084
:106FA00000180140A42D002000140140AC2D002049
:106FB000B42D0020BC2D0020C42D0020CC2D00209D
:106FC000D42D0020DC2D0020E42D0020EC2D00200D
:106FD000F42D0020FC2D0020042E0020000C014088
:106FE0000C2E0020142E00201C2E0020242E002009
:106FF0002C2E0020342E00203C2E002080B500AF27
:10700000034B1B68184601F059FB00BF80BD00BF51
:10701000C005002080B500AF00200AF095F9034BB1
:107020001B680133014A136000BF80BDD42C0020CF
:10703000B0B5ADF57D6D02AF01F0A6F801F08AFAAA
:10704000FFF7F6FE70494FF0007009F03DFF01F0C8
:10705000F3F801F025F901F0ABF901F031FA05F090
:1070600085F80346B3F1FF3F0CBF01230023DBB2D9
:10707000002B01D001F084FAFDF7B0F80346002B95
:107080000CBF01230023DBB2002B08D00421012018
:1070900001F0BAFB03461946042001F0D5FB00219C
:1070A000012001F0B1FB03461946002001F0CCFBA2
:1070B0000521102001F0C8FB112001F093FB0346CD
:1070C0001946242001F0C0FB4FF4FF71012001F0AC
:1070D000BBFB2520FEF762FF41F2883009F018FF64
:1070E00007F5136301224949184605F02BF90520DD
:1070F00001F078FB0346DAB207F5297344491846D4
:1071000005F020F9434A07F513631360424A07F577
:107110002973136007F513634049184605F08AF890
:1071200007F529733D49184605F084F807F5136300
:1071300000224FF4B361184605F08AF807F513638F
:10714000002240F29751184605F082F807F51363C4
:10715000002240F29651184605F07AF807F5297397
:1071600000224FF4B361184605F072F807F5297351
:10717000002240F29751184605F06AF807F5297386
:10718000002240F29651184605F062F8042001F002
:1071900029FB0346012B0CBF01230023DBB2002B8C
:1071A0000DD01B2001F01EFB0346DAB23B1D114639
:1071B000184607F011FC1A4A3B1D13604CE00420EE
:1071C00001F010FB0346022B0CBF01230023DBB2AE
:1071D000002B41D0242001F005FB0346012B0CBFFE
:1071E00001230023DBB2002B1ED01B2001F0FAFA92
:1071F0000346DAB23B1D1146184607F0DDFF094A87
:107200003B1D136028E000BFC00040100064004038
:1072100000680040C4050020C80500207D6100080A
:10722000482D00204C2D0020242001F0DBFA0346DD
:10723000022B0CBF01230023DBB2002B0CD01B2040
:1072400001F0D0FA0346DAB23B1D1146184608F0A9
:1072500025FDB94A3B1D13601C2001F0C3FA03460B
:10726000DCB21E2001F0BEFA0346DAB207F5027363
:107270002146184601F048FCB04A07F50273136036
:10728000AF4BB04A1A60AE4BAF4A5A60AC4B2022AB
:107290005A72AB4B20221A72A94B01229A81A84B39
:1072A0000522DA72A64804F0EFFAA84BA84A1A6041
:1072B000A64BA84A5A60A54B20225A72A34B202203
:1072C0001A72A24B0A229A819D4B0622DA729F48BB
:1072D00004F0DAFAA04BA14A1A609F4B984A1A624E
:1072E000974804F0E8FA03469B4A53629A4B9C4A3B
:1072F0009A62994B954A9A64944804F0DCFA0346E2
:10730000954AD36402F07CF8062001F06BFA03463C
:10731000DBB2184602F0B8F807F5F0739149184649
:1073200001F04EF9904A07F5F073136007F5F0731A
:107330000A228E49184601F063F907F5F0733222EC
:107340008B49184601F05CF907F5F073FA22894978
:10735000184601F055F907F6C873A3F6EC5340F24E
:1073600001121A8007F6C873A3F55F6340F2011299
:107370001A80012387F8C33F002387F8C73F4FF4E3
:107380007A73A7F8C03F002387F8BF3F7A4B0222E9
:107390005A70794B01229A70774B0022DA70764B43
:1073A00001221A71744B07221A70734B01225A7111
:1073B000714B0222DA71704B01221A726E4B00225D
:1073C0005A726D4B01229A726B4B07229A716A4B6B
:1073D0000222DA72042001F005FA0346002B14BFE2
:1073E00001230023DBB2002B25D0122001F0FAF993
:1073F0000346DBB203F00F03DAB25F4BDA705E4B89
:10740000DB78002B01D0012200E007225A4B1A70D2
:10741000132001F0E7F90346DBB203F00F03DAB201
:10742000554B5A72544B5B7A002B01D0012200E07D
:107430000722514B9A71002004F0F7F9012004F063
:10744000F4F90121002003F0D1FB0121012003F018
:10745000CDFB002387F8C63F97F8C63F012B21D804
:1074600097F8C62F13465B0013445B00424A13444F
:107470005A1C97F8C63F0133DBB21946104603F099
:10748000A3FD97F8C63F4FF4B47202FB03F33B4AE7
:107490001344184603F0B0FD97F8C63F013387F850
:1074A000C63FD9E7002387F8C53F97F8C53F012BB2
:1074B00000F2E48597F8C53F07F6C872A2F6EC52D1
:1074C000D25C0132D1B207F6C872A2F6EC52D154A6
:1074D00097F8C53F07F6C872A2F6EC52D25C97F84F
:1074E000C53F02F00F02D1B207F6C872A2F6EC5205
:1074F000D15497F8C52F204913465B0013445B0015
:107500000B441B78013B082B00F2378501A252F88F
:1075100023F000BF8175000833780008017A000865
:107520007B7F00082F7F00087B7F00087B7F00089F
:10753000157C0008697D0008502D0020542D002086
:10754000D82C00200000002040000020E82C002063
:1075500080000020C0000020F82C0020A4170108A3
:10756000B417010800040040C0050020914E000837
:107570007952000829520008100A0020200A002031
:1075800097F8C53F184603F0B1FD97F8C52FDF49BE
:1075900013465B0013445B000B4401331B78022B42
:1075A00011D197F8C53F184604F0DEF897F8C53FAB
:1075B000184603F0ABFD97F8C53F1A4649F2110192
:1075C000032004F04DF8012387F8C73F97F8C52F33
:1075D000CE4913465B0013445B000B4403331B7816
:1075E00097F8C72F9A427BD897F8C51F97F8C73FDF
:1075F0005A1EC74813465B001344DB004FF4B472B5
:1076000001FB02F213440344103300221A7097F86E
:10761000C51F97F8C73F5A1EBD4813465B00134469
:10762000DB004FF4B47201FB02F21344034403F194
:1076300008014FF000024FF00003C1E9002397F862
:10764000C51F97F8C73F5A1EB14813465B00134445
:10765000DB004FF4B47201FB02F213440344113314
:1076600000221A7097F8C51F97F8C73F5A1EA848FE
:1076700013465B001344DB004FF4B47201FB02F2CB
:1076800013440344123300221A7097F8C51F97F869
:10769000C73F5A1E9E4813465B001344DB004FF45D
:1076A000B47201FB02F213440344133300221A7034
:1076B00097F8C51F97F8C73F5A1E954813465B00B9
:1076C0001344DB004FF4B47201FB02F21344034491
:1076D00000221A7097F8C73F013387F8C73F75E754
:1076E00097F8C52F13465B0013445B00874A134489
:1076F000033397F8C52F1146184602F0DFFA034608
:10770000002B00F02684012387F8C73F97F8C52F88
:107710007E4913465B0013445B000B4403331B7824
:1077200097F8C72F9A4279D897F8C51F97F8C72FAF
:10773000774813465B001344DB004FF4B47201FB3F
:1077400002F21344034401221A7097F8C53F184609
:1077500003F0CCFC97F8C51F97F8C73F5A1E134695
:107760005B001344DB004FF4B47201FB02F21344DC
:10777000674A991897F8C52F97F8C73F184602F03F
:107780001DFF97F8C51F97F8C73F5A1E13465B00A9
:107790001344DB004FF4B47201FB02F213445C4A61
:1077A000991897F8C52F97F8C73F184602F048FF79
:1077B00097F8C51F97F8C73F5A1E13465B0013443E
:1077C000DB004FF4B47201FB02F21344504A9918E3
:1077D00097F8C52F97F8C73F184602F083FC4D4B2A
:1077E0001A7897F8C54F97F8C73F5D1E97F8C73FBF
:1077F0001946104604F02CFB03461946464A234618
:107800001B011B1B2B449B0113443E330A461A8069
:1078100097F8C73F013387F8C73F77E797F8C52F39
:107820003A4913465B0013445B000B4402221A7072
:107830008FE397F8C53F184603F058FC3748FCF72C
:10784000ADFC012387F8C73F97F8C52F2F49134692
:107850005B0013445B000B4403331B7897F8C72F7E
:107860009A4200F2A98097F8C52F284913465B0079
:1078700013445B000B4401331B78022B40F09680CD
:1078800097F8C51F97F8C73F5A1E214813465B005B
:107890001344DB004FF4B47201FB02F213440344BF
:1078A00010331B78012B27D097F8C51F97F8C73FD7
:1078B0005A1E174813465B001344DB004FF4B472A2
:1078C00001FB02F21344034410331B78032B13D043
:1078D00097F8C51F97F8C73F5A1E0D4813465B001F
:1078E0001344DB004FF4B47201FB02F2134403446F
:1078F00010331B78052B15D197F8C52F97F8C73F84
:107900000749184602F044FA50E000BF100A002070
:10791000200A0020D02C002040170020A42D002099
:107920009C1C010897F8C51F97F8C73F5A1EB2481C
:1079300013465B001344DB004FF4B47201FB02F208
:107940001344034410331B78022B27D097F8C51F2C
:1079500097F8C73F5A1EA84813465B001344DB0044
:107960004FF4B47201FB02F21344034410331B784A
:10797000042B13D097F8C51F97F8C73F5A1E9E488F
:1079800013465B001344DB004FF4B47201FB02F2B8
:107990001344034410331B78062B07D197F8C52FE7
:1079A00097F8C73F9549184602F0F2F997F8C73F94
:1079B000013387F8C73F47E797F8C53F184603F0FC
:1079C00095FB97F8C53F1946002003F071FB03466D
:1079D000002B0AD097F8C52F894913465B00134442
:1079E0005B000B4405221A70C7E297F8C52F844943
:1079F00013465B0013445B000B4403221A70BCE285
:107A00008048FCF7BBFB97F8C53F184603F06EFBB8
:107A1000012387F8C73F97F8C52F794913465B00C4
:107A200013445B000B4403331B7897F8C72F9A422B
:107A300013D897F8C53F07F6C872A2F6EC52D15C8E
:107A400097F8C52F97F8C73F184602F0E0F997F866
:107A5000C73F013387F8C73FDDE740F2451003F029
:107A60008FF8012387F8C73F97F8C52F644913465D
:107A70005B0013445B000B4403331B7897F8C72F5C
:107A80009A4200F2688297F8C52F97F8C73F1146CF
:107A9000184602F014FA0346002B03D0052003F029
:107AA0006FF8F0E797F8C53F07F6C872A2F6EC52F8
:107AB000D45C97F8C51F97F8C73F5A1E4E48134627
:107AC0005B001344DB004FF4B47201FB02F2134479
:107AD000034413331D7897F8C51F97F8C73F5A1E04
:107AE00013461B019B1A9B004FF4617201FB02F2CB
:107AF0001344454A1A4497F8C70F97F8C53F0093B7
:107B000013462A46214602F00BFA034683F001038E
:107B1000DBB2002B09D097F8C52F394913465B001B
:107B200013445B000B4405221A7097F8C51F97F8A1
:107B3000C73F5A1E1346DB009B1A9B004FF4D272BC
:107B400001FB02F21344314A991897F8C52F97F8B0
:107B5000C73F184602F0CEFE034683F00103DBB2B6
:107B6000002B09D097F8C52F254913465B00134415
:107B70005B000B4405221A7007F6C873A3F6F45392
:107B800000221A8007F6C873A3F6F45300225A8025
:107B900007F5EA7297F8C70F97F8C53F00931346A9
:107BA0000122032103F0E8FA0346002B14D097F8D2
:107BB000C52F97F8C73F591E07F6C873A3F6F453AD
:107BC0001C88134813461B019B1A0B449B0103445A
:107BD000043322461A8009E097F8C52F0849134656
:107BE0005B0013445B000B4405221A7097F8C73FF3
:107BF000013387F8C73F37E7200A0020441D0108FA
:107C0000100A0020A42D0020F00C0020F813002002
:107C100040170020012387F8C73F97F8C52FD049A8
:107C200013465B0013445B000B4403331B7897F847
:107C3000C72F9A4200F2918197F8C52F97F8C73F56
:107C4000591E13461B019B1A0B449B00C54A9818EA
:107C500097F8C52F97F8C73F591E13461B019B1A6B
:107C60000B449B00C04A13440422194601F012FB46
:107C70000346012B0CBF01230023DBB2002B6DD088
:107C800097F8C52F97F8C73F591E13461B019B1A3B
:107C90000B449B00B34A981897F8C52F97F8C73F35
:107CA000591E13461B019B1A0B449B00AE4A1344FA
:107CB0000422194601F0D0FA97F8C52F97F8C73F6C
:107CC000591EA84813461B019B1A0B4410F8233079
:107CD000002B43D097F8C52F97F8C73F591EA248ED
:107CE00013461B019B1A0B4410F8234097F8C52F2D
:107CF00097F8C73F591E9C4813461B019B1A0B441B
:107D00009B0003445A8897F8C70F97F8C53F009324
:107D10000023214603F0B0FB0346002B0CBF0123D8
:107D20000023DBB2002B19D097F8C52F97F8C73F77
:107D3000591E8D4813461B019B1A0B44002200F864
:107D4000232097F8C52F97F8C73F591E854813463B
:107D50001B019B1A0B44002200F8232097F8C73F11
:107D6000013387F8C73F58E7012387F8C73F97F8E3
:107D7000C52F7B4913465B0013445B000B44033360
:107D80001B7897F8C72F9A4200F2F68097F8C51F24
:107D900097F8C73F5A1E1346DB009B1ADB004FF4CF
:107DA000527201FB02F21344704A981897F8C51FEB
:107DB00097F8C73F5A1E1346DB009B1ADB004FF4AF
:107DC000527201FB02F21344694A134438221946E5
:107DD00001F060FA0346012B0CBF01230023DBB244
:107DE000002B00F09E8097F8C51F97F8C73F5A1EDA
:107DF0001346DB009B1ADB004FF4527201FB02F2C8
:107E000013445B4A981897F8C51F97F8C73F5A1E46
:107E10001346DB009B1ADB004FF4527201FB02F2A7
:107E20001344524A13443822194601F015FA00232C
:107E300087F8C43F97F8C43F052B72D897F8C50F51
:107E400097F8C73F5A1E97F8C41F484C1346DB00EB
:107E50009B1A5B00D22200FB02F213440B4414F87D
:107E60002330002B57D097F8C50F97F8C73F5A1EFD
:107E700097F8C41F3D4C1346DB009B1A5B00D222CF
:107E800000FB02F213440B4414F8234097F8C50F8B
:107E900097F8C73F5A1E97F8C41F344D1346DB00AE
:107EA0009B1A5B00D22200FB02F213440B449B009E
:107EB0002B445A8897F8C70F97F8C53F00930023C3
:107EC000214603F0D9FA97F8C50F97F8C73F5A1E15
:107ED00097F8C41F254C1346DB009B1A5B00D22287
:107EE00000FB02F213440B44002204F8232097F80D
:107EF000C50F97F8C73F5A1E97F8C41F1C4C13466E
:107F0000DB009B1A5B00D22200FB02F213440B44FD
:107F1000002204F8232097F8C43F013387F8C43FB8
:107F200088E797F8C73F013387F8C73F1FE7114835
:107F3000FCF724F940F6C41002F03BFE97F8C52F79
:107F4000074913465B0013445B000B4401221A707F
:107F500013E000BF11E000BF0FE000BF0DE000BF65
:107F6000100A0020C8250020C01E0020381F002055
:107F700040260020A42D002000BF97F8C52F4449BB
:107F800013465B0013445B000B441B78032B4ED15C
:107F900097F8C52F13461B019B1A9B003D4A981862
:107FA00097F8C52F13461B019B1A9B003A4A1344AE
:107FB0003C22194601F06EF90346012B0CBF012348
:107FC0000023DBB2002B0AD097F8C52F30491346A7
:107FD0005B0013445B000B4408221A7047E097F8DB
:107FE000C53F4FF4527202FB03F32C4A981897F8DE
:107FF000C53F4FF4527202FB03F3294A13444FF476
:108000005272194601F046F90346012B0CBF0123B9
:108010000023DBB2002B2AD097F8C52F1C4913464A
:108020005B0013445B000B4409221A701FE097F8B1
:10803000C52F174913465B0013445B000B441B78A4
:10804000082B0AD097F8C52F114913465B0013443B
:108050005B000B441B78092B09D197F8C52F0C49FD
:1080600013465B0013445B000B4403221A7097F81D
:10807000C53F013387F8C53FFFF717BA08F070FF17
:108080000848FCF79BF8322002F093FDFFF70ABA8C
:10809000100A0020C01E0020C8250020381F002024
:1080A00040260020A42D002080B582B000AF78606B
:1080B00039607B68012B0AD13B684FF6FF7293420F
:1080C00005D1054803F0CAFB044803F0C7FB00BF15
:1080D0000837BD4680BD00BFD82C0020E82C00200A
:1080E00080B500AF4FF6FF710120FFF7DDFF80BDC7
:1080F00080B500AF08F080FE022008F085FE042065
:1081000008F06AFF042008F05FFF002008F0C4FFB9
:10811000032008F061FF032008F056FF002009F05B
:1081200053F8032009F032F8042009F043F8002046
:1081300009F036F8002008F07FFF062008F0B6FFAF
:10814000012008F0BDFF002008F0C4FF002008F067
:1081500043FF002008F038FF022008F09DFF054B88
:10816000054A1A60054B064A1A60064B024A1A6015
:1081700000BF80BDB00500200090D003B4050020F2
:108180000048E801B805002080B500AFFFF7B0FF58
:1081900040F2023009F022F840F2033009F01EF8F4
:1081A0004FF4417009F01AF840F2053009F016F862
:1081B00040F2063009F012F840F20B3009F00EF8E8
:1081C00040F2813009F00AF84FF4207009F006F807
:1081D00040F2812009F002F840F2093008F0FEFF79
:1081E00040F2862008F0FAFF4FF4407008F0F6FFE6
:1081F00040F2993008F0F2FF40F29A3008F0EEFFBA
:108200004FF4437008F0EAFF40F28E3008F0E6FFCA
:1082100040F28F3008F0E2FF00BF80BD80B500AFB4
:10822000034809F02DF9034809F02AF900BF80BD81
:1082300000380040003C004080B582B002AFA0236F
:1082400002220321134808F00FFE402301220021DF
:10825000104808F009FE104809F0CAF80F4B002238
:108260001A600023019300230093012300222021A0
:10827000094809F012F9084809F0DCF8064809F045
:10828000E7F8054809F0EDF8034809F0C9F800BF20
:10829000BD4680BD00080140003001401C30014057
:1082A00080B500AF4FF4005301220021104808F0C0
:1082B000DBFD4FF40043012200210D4808F0D4FDFE
:1082C0000C4809F095F80C4B00221A60094809F097
:1082D000CDF8084809F0B7F80121064809F0D5F8AB
:1082E000044809F0B5F8034809F09AF800BF80BDCA
:1082F000000C0140003800401C38004080B584B0BC
:1083000000AF786039600421254808F065FC254BF2
:108310001B6803F04103002B14BF01230023DBB2D1
:10832000002B04D0204B1B68DBB2FB73EFE71E4A27
:1083300004211B4808F0CBFC7B681A46042118482E
:1083400008F0CEFC3B689BB21A460421144808F0A2
:10835000D0FC0421124808F08DFC0421104808F0DC
:1083600073FC002204210E4808F061FC0022042165
:108370000B4808F04FFC4FF440520421084808F025
:108380003CFC0421064808F07EFC0421044808F067
:108390008CFC064809F06FF800BF1037BD4680BD61
:1083A00000000240083800400C380040003800400F
:1083B00080B500AF4FF4806301220021104808F01F
:1083C00053FD4FF48053012200210D4808F04CFD6D
:1083D0000C4809F00DF80C4B00221A60094809F00E
:1083E00045F8084809F02FF80121064809F04DF832
:1083F000044809F02DF8034809F012F800BF80BDC9
:1084000000100140003C00401C3C004080B584B09E
:1084100000AF786039600121254808F0DDFB254B6D
:108420001B6803F04103002B14BF01230023DBB2C0
:10843000002B04D0204B1B68DBB2FB73EFE71E4A16
:1084400001211B4808F043FC7B681A4601211848AB
:1084500008F046FC3B689BB21A460121144808F01C
:1084600048FC0121124808F005FC0121104808F0E1
:10847000EBFB002201210E4808F0D9FB002201216C
:108480000B4808F0C7FB4FF440520121084808F0A0
:10849000B4FB0121064808F0F6FB0121044808F06E
:1084A00004FC064808F0E7FF00BF1037BD4680BD5A
:1084B00000040240083C00400C3C0040003C0040EE
:1084C00080B500AFF021112009F054F9112009F016
:1084D00043F9F021102009F04DF9102009F03CF982
:1084E00000210E2009F046F90E2009F035F900218F
:1084F000382009F03FF9382009F02EF920210D200D
:1085000009F038F90D2009F027F900211A2009F0A7
:1085100031F91A2009F020F900211D2009F02AF96B
:108520001D2009F019F9142009F016F9E021142092
:1085300009F020F9132009F00FF9E021132009F0C8
:1085400019F9E021032009F015F9032009F004F9D5
:1085500000BF80BD80B500AF08F060FE4FF41C7115
:10856000032008F02BFF002008F0BCFE002008F0DC
:10857000EBFE002008F0C6FE08F05EFE00BF80BDE6
:1085800080B500AF00F0E2F90121052000F05CF9B0
:108590000021062000F058F900211C2000F054F9B9
:1085A00000211B2000F050F90321022000F04CF9BB
:1085B0000021032000F048F903F00AFD00BF80BD50
:1085C00080B582B000AF786039607B683A681A6223
:1085D000386808F083FF386808F085FF40F27F2193
:1085E000386808F08FFF4FF6FF71386808F08CFF8D
:1085F0007B6800225A627B6818460837BD4680BDFA
:1086000080B584B000AFF860B9601346FB80FB68AA
:108610005B6A032B4BDCFB681B6A184608F06DFF96
:10862000FB68186AFB685B6A234AD35C012219461F
:1086300008F06CFFFB68186AFB685B6A1E4AD35C33
:108640000022194609F028F8FB685A6AFB68B968E5
:1086500043F82210FB685A6AFB88194689000B44CC
:1086600019468800194603460B449B0099B2FB68E3
:10867000083223F81210FB681A6AFB685B6A022151
:1086800001FA03F31946104608F01BFFFB681B6A4A
:108690000021184609F012F8FB681B6A184608F01A
:1086A00027FFFB685B6A5A1CFB685A6200E000BF48
:1086B0001037BD4680BD00BFC817010880B584B023
:1086C00000AF78600023FB607B685B6AFA689A42BF
:1086D00040DA7B681A6A0221FB6801FA03F3194643
:1086E000104608F0F2FE0346002B2FD07B681B6A71
:1086F000184608F0E1FF03467B81FB689A007B681F
:108700001B6A134434331B687A68F968083132F8FD
:1087100011201046FA6891007A68126A0A443432CD
:10872000034413607B68FA6853F8223098477B68EB
:108730001B6A184608F0C0FF03469AB27B89D31A19
:1087400099B27B68FA680C3223F81210FB68013387
:10875000FB60B9E77B681B6A1E21184608F0BBFE68
:1087600000BF1037BD4680BD80B487B000AF7860D1
:1087700000237B6100233B617B685B6A3A699A4214
:108780001ADA7B683A690C3233F812301A4613460B
:108790009B0013445B0019467B683A69083233F842
:1087A000123091FBF3F3FB607A69FB6813447B6141
:1087B0003B6901333B61DFE77B6918461C37BD46E7
:1087C00080BC704780B483B000AF0346FB71FB7977
:1087D000034A52F8233018460C37BD4680BC704718
:1087E0001405002080B483B000AF0346FB71FB7911
:1087F000044A52F823305B1118460C37BD4680BC42
:10880000704700BF1405002080B586B000AF034656
:108810000A46FB711346BB71FB79184603F0BCFB9B
:1088200078617B693B61BB79396907F10802DB003C
:108830000B4493E8030082E80300FB685B091846D9
:108840001837BD4680BD000080B483B000AF03463A
:108850003960FB71FB793A685201044941F82320E1
:1088600000BF0C37BD4680BC704700BF1405002018
:1088700080B483B000AF03463960FB71FB790449D3
:108880003A6841F8232000BF0C37BD4680BC7047D2
:108890001405002080B487B000AF78600023FB751A
:1088A0000D4B3B610023FB60FB68242B0EDC3B6916
:1088B0009B697A689A4202D1FB68FB7506E0FB6807
:1088C0000133FB603B691C333B61EDE7FB7D1846E0
:1088D0001C37BD4680BC70470801002080B483B0BF
:1088E00000AF0346FB71FA791346DB009B1A9B002D
:1088F000034A134418460C37BD4680BC704700BF7E
:108900000801002080B483B000AF0346FB71FA7900
:108910000D491346DB009B1A9B000B440C3319686E
:10892000FA7909481346DB009B1A9B000344103375
:108930001B68994214BF01230023DBB218460C3791
:10894000BD4680BC704700BF0801002080B500AF65
:10895000FF21002000F002F800BF80BD80B584B088
:1089600000AF03460A46FB711346BB71114BFB6017
:108970000023BB60BB68242B18DCFB689A69FB7979
:108980009A420CD9FB689A69BB799A4207D2BB68B4
:10899000DAB2FB685B6919461046FFF769FFBB68EE
:1089A0000133BB60FB681C33FB60E3E700BF10379B
:1089B000BD4680BD0801002080B483B000AF0346EF
:1089C0000A46FB711346BB71FB790449BA79CA5454
:1089D00000BF0C37BD4680BC704700BF6C2D002027
:1089E00080B483B000AF0346FB71FB79034AD35CCC
:1089F00018460C37BD4680BC704700BF6C2D002068
:108A000080B483B000AF0023FB71054B3B603B6833
:108A10009B69DBB218460C37BD4680BC704700BF6F
:108A20000801002080B584B000AF0023FB71134B18
:108A3000FB600023BB60BB68242B17DCBB68DBB288
:108A40001846FFF75FFF0346012B14BF01230023E5
:108A5000DBB2002B03D0FB681C3BFB6006E0BB686D
:108A60000133BB60FB681C33FB60E4E7FB689B6978
:108A7000DBB218461037BD4680BD00BF080100209C
:108A800080B483B000AF786039607B68012B09D176
:108A90003B684FF6FF72934204D1054B1B68054AB1
:108AA000C2F8C03300BF0C37BD4680BC704700BF62
:108AB000AC0500200801002080B500AF4FF6FF7123
:108AC0000120FFF7DDFF80BD80B483B000AF786088
:108AD0007B6800225A807B6800229A807B68184657
:108AE0000C37BD4680BC704780B483B000AF78605F
:108AF0007B6800225A807B6800229A807B68184637
:108B00000C37BD4680BC704780B582B000AF78603E
:108B10000B46FB701346BB707B68184607F046FC9B
:108B2000264A7B681A607B68002283F830207B68C5
:108B3000002283F837207B683A331846FFF7C4FFDA
:108B40007B6848331846FFF7CFFF7B680022A3F805
:108B500060207B680022A3F862207B6800229A666E
:108B60007B68002283F86C207B68F022A3F86E20DB
:108B70007B680022A3F870207B680022A3F8722093
:108B8000FB78184603F0A6FD02467B685A677B68AF
:108B90005B6F00220A49184603F05AFB7B68BA78DB
:108BA00083F838207B6810331C220021184600F01F
:108BB00039FB7B6818460837BD4680BD781C010824
:108BC000E550FF1880B483B000AF78607B689B6D80
:108BD0005A1C7B689A6500BF0C37BD4680BC704745
:108BE00080B485B000AF78600B46FB70FB78012B3A
:108BF0000FD17B6893F84830FB81FB8903F00403B5
:108C0000FB81FB89002B0CBF012300237B737B7B43
:108C100001E000BF002318461437BD4680BC7047F2
:108C200080B582B000AF78607B689B79022B29D039
:108C3000022B34DC002B02D0012B0BD02FE07B6801
:108C40009B6D1C4A13607B689B790133DAB27B68A9
:108C50009A7129E07B6893F8383019467868FFF7F5
:108C6000BFFF0346002B1ED07B689A6D114B1B681B
:108C700064339A4217D37B689B790133DAB27B68FD
:108C80009A7110E07B680022A3F870207B680022B4
:108C9000A3F872207B6863229A71012305E07B6848
:108CA00000229A7100E000BF002318460837BD4635
:108CB00080BD00BF942D002080B483B000AF7860E9
:108CC000012318460C37BD4680BC704780B582B082
:108CD00000AF78607B689B7A022B33D0022B38DCA4
:108CE000002B02D0012B15D033E07B68B3F8603045
:108CF000312B04D87B6893F83030002B2ED17B6861
:108D00009B6D1A4A13607B689B7A0133DAB27B68E9
:108D10009A7223E07B6893F8383019467868FFF739
:108D20005FFF0346002B1BD07B689A6D0F4B1B68BF
:108D300032339A4214D37B689B7A0133DAB27B6870
:108D40009A720DE07B689B7A0133DAB27B689A7283
:108D500007E07B6800229A72012303E000BF00E075
:108D600000BF002318460837BD4680BD982D00205F
:108D700080B483B000AF78607B689A6D184B1B6835
:108D80009A4210D07B689B6D154A13607B68B3F8DC
:108D90007030002B07D07B68B3F87030013B9AB27B
:108DA0007B68A3F870207B68B3F870207B689A8793
:108DB0007B681A8B7B68A3F872207B68B3F87220FB
:108DC0007B68DA877B68B3F87030002B0CBF012317
:108DD0000023DBB218460C37BD4680BC704700BF8D
:108DE0009C2D002080B483B000AF7860012318462A
:108DF0000C37BD4680BC704780B483B000AF78604C
:108E00007B6800229A877B680022DA877B680122D0
:108E100083F83A2000BF0C37BD4680BC7047000085
:108E200080B485B000AF78600023FB817B68B3F924
:108E30001E207B68B3F91C309A4204DD7B68B3F9CD
:108E40001E309BB203E07B68B3F91C309BB2BB8140
:108E50007B685B8B1A46642303FB02F2BB8992FB9F
:108E6000F3F3FB817B689A6D1C4B1B68D31A032BB1
:108E700011D97B689B6D194A13607B68B3F8703019
:108E8000FA899A4207D97B68B3F8703001339AB2F5
:108E90007B68A3F870207B68B3F87030FA899A4237
:108EA00003D27B68FA89A3F870207B68B3F870203E
:108EB0007B689A877B681A8B7B68A3F872207B6833
:108EC000B3F872207B68DA877B68002283F83A2047
:108ED00000BF1437BD4680BC704700BFA02D0020E6
:108EE00080B483B000AF786000BF0C37BD4680BC53
:108EF000704780B483B000AF786000BF0C37BD46C8
:108F000080BC704780B582B000AF78607B6818463F
:108F100007F032FB00BF0837BD4680BD80B483B088
:108F200000AF78607B6802225A7100BF0C37BD46E3
:108F300080BC704780B483B000AF78607B68052246
:108F40005A7100BF0C37BD4680BC704780B483B0F7
:108F500000AF78607B6801225A7100BF0C37BD46B4
:108F600080BC704780B586B000AF78607B681B79A5
:108F7000092B14BF01230023DBB21A467B6883F858
:108F80003A207B683A33184600F072F878617B68C3
:108F9000586F08237A69134903F018FB7B681B7C20
:108FA000012B1AD17B689A6D7B685B69D31AB3F584
:108FB000FA7F02D97B6800221A747B6893F83730F5
:108FC000013BDAB27B6883F837207B6893F837304F
:108FD000002B02D17B6800221A7400BF1837BD46EF
:108FE00080BD00BFF4E5061880B586B000AFF8601C
:108FF000B9607A60BB681B681C4A934231D1FB6838
:1090000048337968184600F09AF8FB6893F84830BE
:109010009AB2FB681A85FB6893F84830042B14BF9A
:1090200001230023FB75FB6893F83730042B0FD91D
:10903000FB6801221A74FB689A6DFB685A61FB6831
:1090400093F837300133DAB2FB6883F8372009E050
:10905000FB6893F837300233DAB2FB6883F83720C5
:1090600000E000BF00BF1837BD4680BDE550FF18C7
:109070002DE9F04F8FB000AF78624FF000024FF053
:109080000003C7E90A234FF000024FF00003C7E9CD
:109090000C237B6A1B78DBB200223B617A61D7E943
:1090A0000423C7E90C23D7E90C234FF000004FF04D
:1090B000000111000020D7E90A238618BE6141EBA8
:1090C0000303FB61D7E90623C7E90A237B6A5B88B0
:1090D0009BB20022BB60FA60D7E90223C7E90C23E8
:1090E0003B6B1D0C3B6B1C04D7E90A2314EB020AF3
:1090F00045EB030BC7E90AAB7B6A9B889BB2002256
:109100003B607A60D7E90034C7E90C34D7E90A013B
:10911000D7E90C2310EB020841EB0309C7E90A89E0
:109120007B6A063307F128010822184600F094F8FC
:109130007B6A063318463C37BD46BDE8F08F2DE903
:10914000B04F86B000AF786039604FF000024FF04A
:109150000003C7E902234FF000024FF00003C7E904
:10916000042307F1080308223968184600F074F850
:10917000D7E90223C7E90423D7E904234FF0000A03
:1091800003F0FF0BC7E904ABD7E904014FF000027D
:109190004FF000030A000023D2B27B681A70D7E9AF
:1091A0000223C7E90423D7E90423140C240400256F
:1091B000C7E90445D7E904014FF000024FF000036E
:1091C000020C42EA01420B0C92B27B685A80D7E94A
:1091D0000223C7E90423D7E904231FFA82F84FF0DA
:1091E0000009C7E904893A8A7B689A8000BF18376A
:1091F000BD46BDE8B08F80B485B000AF7860002375
:10920000FB6005E07B6801337B60FB680133FB603A
:109210007B681B78002BF5D1FB6818461437BD46D8
:1092200080BC704780B487B000AFF8600B467A60AE
:10923000FB72FB687B6104E07B695A1C7A61FA7AF5
:109240001A707B685A1E7A60002BF5D100BF00BFF0
:109250001C37BD4680BC704780B487B000AFF86053
:10926000B9607A60FB687B61BB683B6107E03A6983
:10927000531C3B617B69591C796112781A707B68B9
:109280005A1E7A60002BF2D100BF00BF1C37BD46CA
:1092900080BC704780B487B000AFF860B9607A6076
:1092A000FB687B61BB683B610BE07B695A1C7A61A0
:1092B0001A783B69591C39611B789A4201D0012305
:1092C00005E07B685A1E7A60002BEED10023184619
:1092D0001C37BD4680BC704780B485B000AFF860D5
:1092E000B9607A6007E0BA68131DBB60FB68191D9E
:1092F000F96012681A607B685A1E7A60002BF2D1FE
:1093000000BF00BF1437BD4680BC704780B485B035
:1093100000AFF860B9607A6004E0FB681A1DFA607B
:10932000BA681A607B685A1E7A60002BF5D100BFBC
:1093300000BF1437BD4680BC7047000080B586B0C2
:1093400000AFF860B96011461A460B46FB80134621
:109350007B710023FB750223BB750023BB82FB6876
:10936000BA681A60FB68FA889A807B79013B042B03
:1093700021D801A252F823F08D930008939300089E
:10938000999300089F930008A99300080123BB82CA
:1093900012E00123BB750FE00023BB750CE0032333
:1093A000FB750023BB7507E00323FB750123BB7529
:1093B0000123BB8200E000BFBB8A012B04D1FB88E4
:1093C0001946B86807F08AFDFB88BA7DF97DB86850
:1093D00007F04AFD00BF1837BD4680BD80B582B09A
:1093E00000AF78607B6800225A707B6800221A7098
:1093F000786803F00AFD7B6818460837BD4680BDD3
:1094000080B500AF00F026F800F00EF900F040F94A
:1094100000F08AF900F0D8F900F026FA00F074FAAA
:1094200000F098FA00F002F800BF80BD80B500AFF0
:10943000074B40F299521A60054B08225A60044BC0
:1094400010221A72024800F035F800BF80BD00BF3C
:10945000542F002080B500AF002003F03BF90346F5
:10946000064A1360012003F035F90346044A1360ED
:10947000024B1B68034A136000BF80BD482F0020C9
:109480004C2F0020502F002080B582B000AF034643
:10949000FB71FB79022B06D8FB79184603F01AF909
:1094A0000346034A136000BF0837BD4680BD00BFB6
:1094B000502F002080B582B000AF7860044B1B684D
:1094C0001946786800F006F800BF0837BD4680BD31
:1094D000502F002080B582B000AF78603960786886
:1094E00000F024F87B6819687B6803F108027B6848
:1094F0005B68DBB2386803F069F800BF0837BD4627
:1095000080BD80B582B000AF786039607B68196833
:109510007B6803F108027B685B68DBB2386803F0A4
:1095200055F800BF0837BD4680BD000080B584B047
:1095300000AF78607B681B7C002B6ED07B680833A3
:10954000BB600023BB737B68DB7DFB737B685B7D4B
:10955000002B0FD17B681B7D1A467B6813441B7A56
:109560007A68127D114623F00F03DAB27B680B4450
:109570001A720EE07B681B7D1A467B6813441B7AC7
:109580007A68127D114603F00F03DAB27B680B4450
:109590001A72FB7B0133FB737B689B7DFA7B9A42DB
:1095A00001D30023FB737B68FA7BDA757B685B7DF4
:1095B000012B02D1FB7B1B01FB737B681B7D1A46D1
:1095C0007B6813441A7A7B681B7D1946FB7B134426
:1095D000DAB27B680B441A727B685B7C1A467B6844
:1095E000134400221A727B689A7C0E4B1A700D4845
:1095F00003F00BFC7B685B68DAB27B68DB7C07F10D
:109600000801084803F03FFC0346BB737B685B7CA2
:109610001A467B681344BA7B1A7200BF1037BD46E6
:1096200080BD00BF442E002080B400AF064B40F246
:1096300099521A60044B08225A60034B00221A7494
:1096400000BFBD4680BC70476C2F002080B582B043
:1096500000AF7860082279680948FFF7FDFD094BE3
:109660001B6819460848FFF735FF084B1B68194669
:109670000548FFF72FFF00BF0837BD4680BD00BF7C
:10968000742F0020482F00206C2F00204C2F00202A
:1096900080B400AF064B4FF4C0621A60044B08223E
:1096A0005A60034B00221A7400BFBD4680BC70474D
:1096B000842F002080B582B000AF78607B681A7874
:1096C000184B1A727B685A78164B5A727B685B8803
:1096D0001B0A9BB2DAB2134B9A727B685B88DAB2D0
:1096E000104BDA727B689B881B0A9BB2DAB20D4B77
:1096F0001A737B689B88DAB20A4B5A737B68DB88E3
:109700001B0A9BB2DAB2074B9A737B68DB88DAB22A
:10971000044BDA730348FFF7CDFE00BF0837BD46A0
:1097200080BD00BF842F002080B400AF064B40F204
:1097300001621A60044B08225A60034B00221A741B
:1097400000BFBD4680BC70479C2F002080B582B012
:1097500000AF78607B681B881B0A9BB2DAB2194B9A
:109760001A727B681B88DAB2164B5A727B685B8868
:109770001B0A9BB2DAB2134B9A727B685B88DAB22F
:10978000104BDA727B689B881B0A9BB2DAB20D4BD6
:109790001A737B689B88DAB20A4B5A737B68DB8842
:1097A0001B0A9BB2DAB2074B9A737B68DB88DAB28A
:1097B000044BDA730348FFF77DFE00BF0837BD4650
:1097C00080BD00BF9C2F002080B400AF064B40F24C
:1097D00002621A60044B08225A60034B00221A747A
:1097E00000BFBD4680BC7047B42F002080B582B05A
:1097F00000AF78607B681B881B0A9BB2DAB2194BFA
:109800001A727B681B88DAB2164B5A727B685B88C7
:109810001B0A9BB2DAB2134B9A727B685B88DAB28E
:10982000104BDA727B689B881B0A9BB2DAB20D4B35
:109830001A737B689B88DAB20A4B5A737B68DB88A1
:109840001B0A9BB2DAB2074B9A737B68DB88DAB2E9
:10985000044BDA730348FFF72DFE00BF0837BD46FF
:1098600080BD00BFB42F002080B400AF064B40F293
:1098700003621A60044B08225A60034B00221A74D8
:1098800000BFBD4680BC7047CC2F002080B582B0A1
:1098900000AF78607B681B881B0A9BB2DAB2194B59
:1098A0001A727B681B88DAB2164B5A727B685B8827
:1098B0001B0A9BB2DAB2134B9A727B685B88DAB2EE
:1098C000104BDA727B689B881B0A9BB2DAB20D4B95
:1098D0001A737B689B88DAB20A4B5A737B68DB8801
:1098E0001B0A9BB2DAB2074B9A737B68DB88DAB249
:1098F000044BDA730348FFF7DDFD00BF0837BD46B0
:1099000080BD00BFCC2F002080B400AF064B40F2DA
:1099100004621A60044B08225A60034B00221A7436
:1099200000BFBD4680BC7047E42F002080B582B0E8
:1099300000AF7860082279680448FFF78DFC04487E
:10994000FFF7B8FD00BF0837BD4680BDEC2F0020F3
:10995000E42F002080B400AF064B40F205621A608D
:10996000044B08225A60034B00221A7400BFBD4604
:1099700080BC7047FC2F002080B582B000AF7860BB
:10998000114B00221A72104B00225A720E4B002209
:109990009A720D4B0022DA727B681A790A4B1A739D
:1099A0007B685A79084B5A737B689A79064B9A738D
:1099B0007B68DA79044BDA730348FFF77BFD00BF5D
:1099C0000837BD4680BD00BFFC2F002080B582B0A7
:1099D00000AF786039607B68012B1FD13B684FF680
:1099E000FF7293421AD10F48FFF7F8FC0E48FCF7BC
:1099F000B8FB0E48FCF7B5FB0D48FCF7B2FB0D4871
:109A0000FCF7AFFB0C48FCF7ACFB0C48FCF7A9FBE0
:109A10000B48FCF7A6FB0B48FCF7A3FB00BF08377D
:109A2000BD4680BD442E0020542F00206C2F002006
:109A3000842F00209C2F0020B42F0020CC2F00204A
:109A4000E42F0020FC2F002080B500AF4FF6FF71FF
:109A50000120FFF7BBFF80BD80B483B000AF78600A
:109A600039603B685B00054A1A447B681A607B6872
:109A700018460C37BD4680BC704700BF1C30002024
:109A800080B483B000AF78607B681B68044A9B1A7F
:109A90005B109BB218460C37BD4680BC704700BFB8
:109AA0001C30002080B582B000AF2D4806F04CFE7F
:109AB0002B4806F04EFE2A4806F055FE284806F0D0
:109AC0004DFE0121264806F02AFE254806F0F0FD4D
:109AD00000237B607B68234A934203DC7B6801336D
